:020000040800F2
:100000000000032005250008D5240008D724000897
:10001000D9240008DB240008DD24000800000000CB
:10002000000000000000000000000000DF240008C5
:10003000E124000800000000E3240008E524000893
:1000400055250008552500085525000855250008A8
:100050005525000855250008552500085525000898
:100060005525000855250008552500085525000888
:100070005525000855250008552500085525000878
:100080005525000855250008552500085525000868
:100090005525000855250008552500085525000858
:1000A0005525000855250008552500085525000848
:1000B0005525000855250008552500085525000838
:1000C0005525000855250008552500085525000828
:1000D0005525000855250008552500085525000818
:1000E0005525000855250008552500085525000808
:1000F00055250008552500085525000855250008F8
:1001000055250008552500085525000855250008E7
:1001100055250008552500085525000855250008D7
:1001200055250008552500085525000855250008C7
:1001300055250008552500085525000855250008B7
:1001400055250008552500085525000855250008A7
:100150005525000855250008552500085525000897
:100160005525000855250008552500085525000887
:1001700055250008552500085525000800000000F9
:100180005525000855250008552500085525000867
:100190005525000855250008552500085525000857
:0C01A000552500085525000855250008CD
:1001AC0010B5054C237833B9044B13B10448AFF3A5
:1001BC0000800123237010BD0C0000200000000003
:1001CC00B025000808B5034B1BB103490348AFF336
:1001DC00008008BD0000000010000020B0250008C1
:1001EC0053B94AB9002908BF00281CBF4FF0FF3192
:1001FC004FF0FF3000F07AB9ADF1080C6DE904CE88
:10020C0000F006F8DDF804E0DDE9022304B07047E5
:10021C002DE9F0478C460D460446089E002B51D123
:10022C008A4217466DD9B2FA82FEBEF1000F0BD08E
:10023C00CEF1200C01FA0EF520FA0CFC02FA0EF7A6
:10024C004CEA050C00FA0EF44FEA174A250CBCFBDD
:10025C00FAF81FFA87F90AFB18CC45EA0C4508FB9B
:10026C0009F3AB420AD9ED1908F1FF3280F0238172
:10027C00AB4240F22081A8F102083D44ED1AA4B231
:10028C00B5FBFAF00AFB105544EA054400FB09F9EA
:10029C00A14509D9E41900F1FF3380F00A81A14589
:1002AC0040F2078102383C44A4EB090440EA0840C0
:1002BC000021002E61D024FA0EF400233460736008
:1002CC00BDE8F0878B4207D9002E54D0002186E878
:1002DC0021000846BDE8F087B3FA83F1002940F00D
:1002EC008E80AB4202D3824200F2FA80841A65EB14
:1002FC0003050120AC46002E3FD086E81010BDE867
:10030C00F08712B90127B7FBF2F7B7FA87FEBEF1F7
:10031C00000F34D1EB1B3A0C1FFA87FC0121B3FB05
:10032C00F2F8250C02FB183345EA03450CFB08F3E5
:10033C00AB4207D9ED1908F1FF3002D2AB4200F203
:10034C00D1808046ED1AA3B2B5FBF2F002FB10553A
:10035C0043EA05440CFB00FCA44507D9E41900F161
:10036C00FF3302D2A44500F2B8801846A4EB0C046B
:10037C0040EA08409DE731463046BDE8F087CEF1B3
:10038C00200405FA0EF307FA0EF720FA04F83A0CDB
:10039C0025FA04F448EA0308B4FBF2F14FEA1845D5
:1003AC0002FB11441FFA87FC45EA044501FB0CF3E0
:1003BC00AB4200FA0EF409D9ED1901F1FF3080F0CF
:1003CC008A80AB4240F2878002393D44EB1A1FFA17
:1003DC0088F5B3FBF2F002FB103345EA034500FB52
:1003EC000CF3AB4207D9ED1900F1FF386FD2AB42D9
:1003FC006DD902383D44EB1A40EA01418FE7C1F157
:10040C00200722FA07F88B4005FA01F448EA0303A7
:10041C0020FA07FE4FEA134CFD404EEA040EB5FBE2
:10042C00FCF94FEA1E440CFB19551FFA83F844EAF9
:10043C00054509FB08F4AC4202FA01F200FA01FA94
:10044C0008D9ED1809F1FF3043D2AC4241D9A9F1DA
:10045C0002091D442D1B1FFA8EFEB5FBFCF00CFB94
:10046C0010554EEA054400FB08F8A04507D9E418DE
:10047C0000F1FF3529D2A04527D902381C4440EAA7
:10048C000940A4EB0804A0FB02894C45C6464D4626
:10049C0015D312D056B1BAEB0E0364EB050404FA73
:1004AC0007F7CB401F43CC40376074600021BDE898
:1004BC00F0871846F8E69046E0E6C245EAD2B8EB7B
:1004CC00020E69EB03050138E4E72846D7E74046FE
:1004DC0091E78146BEE7014678E702383C4445E7A0
:1004EC00084608E7A8F102083D442BE7704700BF17
:1004FC0038B50E4A0E4B054618784FF47A73B3FB99
:10050C00F0F31068B0FBF3F000F09CF8044658B917
:10051C000F2D09D8024629464FF0FF3000F05EF847
:10052C00044B20461D6038BD012038BD080000205A
:10053C00000000200400002008B50B4B1A6842F4A0
:10054C0000721A601A6842F480621A601A6842F4E7
:10055C0080721A60032000F02FF80020FFF7C8FF0C
:10056C0001F056FE002008BD003C0240034A044B3B
:10057C0011681B780B441360704700BF28000020E3
:10058C0000000020014B1868704700BF28000020B5
:10059C0038B50446FFF7F6FF631C1CBF054B1B78F0
:1005AC00054618BFE418FFF7EDFF401B8442FAD84C
:1005BC0038BD00BF00000020074AD36823F4E06375
:1005CC001B041B0C43F0BF63000243F4003300F424
:1005DC00E0600343D360704700ED00E0174B30B58B
:1005EC00DC68C4F30224C4F10703251D042B28BFC7
:1005FC000423062D4FF0010505FA03F303F1FF3335
:10060C008CBF033C00241940A14005FA04F4013CC2
:10061C002240002842EA01024FEA0212ADBF00F16B
:10062C00604000F00F00064B00F56140B5BFD2B240
:10063C00D2B21A5480F8002330BD00BF00ED00E0A8
:10064C0014ED00E00138B0F1807F0AD2064B074A66
:10065C005860F02182F823100020072298601A605D
:10066C0070470120704700BF10E000E000ED00E093
:10067C0070B5044629B14FF40063C3604FF4804356
:10068C008360E3692268E0681568002BA36843EA7D
:10069C000003304843F4007300EA05000CBF4FF42C
:1006AC008061002103430B43136001201568FFF7A1
:1006BC006FFF236840221D6001205A605D68FFF7C0
:1006CC0067FF23685D6000259D60DD609A6922F0FC
:1006DC00BE021204120C42F080029A6101209E6943
:1006EC00FFF756FF236801209E61DD61DD69FFF78E
:1006FC004FFF2268184BD56141F218050120515962
:10070C000B4043F0087343F0040353515659FFF761
:10071C003FFF2368114A5E5103F5805301201A6094
:10072C001D68FFF735FF226802F580531D60A36931
:10073C00012B07D141F21C01535843F4803343F091
:10074C00400353506369064A998811601A68054B37
:10075C001A6070BD0F8120FF233FDEF88020C1029C
:10076C004080024044800240F8B590F84430822B1F
:10077C000546164630D00268822380F8443013694F
:10078C00890101F4F86403F01C012143048AE4029A
:10079C00A4B20C4344F001041461FFF7F3FE0746C6
:1007AC0014F0010007D12B685B699BB23360012305
:1007BC0085F84430F8BDFFF7E5FEC01BB0F5803F6F
:1007CC0007D3012385F84430002385F845300320F6
:1007DC00F8BD2B681C69E3E70220F8BD90F84430A3
:1007EC00422B70B505462ED0422380F84430036866
:1007FC008C01186904F4F86444F0030400F01C0044
:10080C0020432C8AE402A4B2044392B25A611C61C4
:10081C00FFF7B8FE064614F0010003D1012385F85A
:10082C00443070BDFFF7AEFE801BB0F5803F07D3A0
:10083C00012385F84430002385F84530032070BD32
:10084C002B681C69E7E7022070BD0000F7B5002398
:10085C0000930446002800F0DE8090F8443003F04A
:10086C00FF021BB980F8452001F0EEFC0023019338
:10087C006A4B5A6C42F480425A645B6C03F48043BA
:10088C000193019B664B5A6822F400025A605A6825
:10089C00216A0A435A60236803F580531A6842F0B0
:1008AC0001021A60FFF76EFE0546236803F58052BD
:1008BC001268D0071DD41D6901F014F9594B5A4A1E
:1008CC000344934225F01C0522D845F00805236803
:1008DC004FF400421D6100212046FFF77FFF0546C3
:1008EC0068B3012120460125FFF7C2FE84F844506D
:1008FC000BE0FFF747FE401BB0F5FA7FD5D9032577
:10090C00002384F8445084F84530284603B0F0BDE9
:10091C00464B474A0344934202D845F00C05D6E7B0
:10092C00444B454A03449342D1D9444B444A034473
:10093C00934294BF45F0040545F01005C7E7FF202E
:10094C00FFF726FE6368002B53D0FFF71BFE41F226
:10095C00883706466A4601212046FFF705FFFFF758
:10096C0011FE801BB8420BD901212046FFF780FEF7
:10097C00012384F84430002384F845300325C4E770
:10098C00009B5907E6D54FF4805200212046FFF713
:10099C0025FF0028A5D1FFF7F5FD41F28837064663
:1009AC006A4601212046FFF7DFFEFFF7EBFD801BB7
:1009BC00B842D9D8009B9A06F2D56A461F21204628
:1009CC00FFF7D2FE00288CD1009B13F0100218BF49
:1009DC004FF400625B074CBF00234FF48043E2608E
:1009EC00A36000212046FFF743FE012384F8443026
:1009FC008BE7A368E2685B0843EAD20292B229460D
:100A0C002046FFF7EBFE00287FF46BAF40F6FF703B
:100A1C00FFF7BEFDE5E7012577E700BF0038024090
:100A2C000038014000D3CEFEBFE1E40040F1E9FD07
:100A3C003F787D0100796CFCFF596202001F0AFAB5
:100A4C007FF0FA022DE9F04F85B00B68DFF8C48116
:100A5C006E4ADFF8C491019300230124019D9C4050
:100A6C002540AC4240F0B8804C6824F0100C0CF1DE
:100A7C00FF36012E4FEA430E12D88768032606FA7A
:100A8C000EF627EA0607CE6806FA0EF63E43866097
:100A9C004768C4F3001627EA05079E403E434660AC
:100AAC000326C76806FA0EF6F64307EA060A8F68AD
:100ABC0007FA0EF747EA0A07BCF1020FC76016D116
:100ACC004FEAD30A00EB8A0A03F0070BDAF820701E
:100ADC004FEA8B0B4FF00F0C0CFA0BFC27EA0C0CAB
:100AEC000F6907FA0BF747EA0C07CAF8207007687A
:100AFC003E4004F0030707FA0EFE4EEA06060660B7
:100B0C00E60069D54FF0000BCDF80CB0D8F8447066
:100B1C003F4E47F48047C8F84470D8F8447007F447
:100B2C0080470397039F23F0030707F1804707F5DE
:100B3C009C3703F0030CD7F808A04FEA8C0C4FF04D
:100B4C000F0E0EFA0CFEB0422AEA0E0E4BD006F532
:100B5C008066B04249D006F58066B04247D006F5B3
:100B6C008066B04245D006F58066B04243D0484519
:100B7C0043D006F50066B04241D006F58066B0421F
:100B8C003FD006F58066B0423DD006F58066B04297
:100B9C0014BF0A26092606FA0CF646EA0E06BE60B3
:100BAC001668EF4314F4803F0CBF3E402E43166092
:100BBC00566814F4003F0CBF3E402E4356609668B6
:100BCC0014F4801F0CBF3E402E439660D668A402DE
:100BDC0054BF3E402E43D6600133102B7FF43DAF03
:100BEC0005B0BDE8F08F5E46D5E70126D3E70226B7
:100BFC00D1E70326CFE70426CDE70526CBE706266B
:100C0C00C9E70726C7E70826C5E700BF003C014037
:100C1C000000024000380240001402400AB1816119
:100C2C0070470904FBE701684B6913F480634FF0CC
:100C3C00000210D06FF480634B612023026380F8B4
:100C4C003D3080F83E20036C80F83C2043F00403D8
:100C5C00036401207047184670472DE9F843044699
:100C6C0017469946C1F307488EB22568B8F1010FB3
:100C7C000CBF6B69AB6936EA030314BF012000207B
:100C8C0008B9BDE8F8836B695A0516D52B6843F48F
:100C9C0000732B606FF480636B612022002323634D
:100CAC0084F83D2084F83E30226C42F00402226429
:100CBC0084F83C300120BDE8F8837B1CD5D0FFF7CD
:100CCC0061FCA0EB0900874201D3002FCDD100239A
:100CDC002022236384F83D2084F83E30226C42F0BD
:100CEC002002E4E770B504460D46164623685B699E
:100CFC005B0701D5002070BD2046FFF794FFA8B913
:100D0C006A1CF3D0FFF73EFC801B854201D3002DFB
:100D1C00ECD100232022236384F83D2084F83E305C
:100D2C00226C84F83C3042F020022264012070BD19
:100D3C0070B504460D4616462068436913F040030F
:100D4C0001D0002070BD4269D2060ED56FF01002A2
:100D5C0042612022236384F83D2084F83E30226CCB
:100D6C00226484F83C30012070BDFFF70BFC801B23
:100D7C00A84201D8002DDFD100232022236384F860
:100D8C003D2084F83E30226C42F02002E8E72DE949
:100D9C00F843089E044690461F46C1F307498DB29E
:100DAC002368B9F1010F0CBF5B699B6935EA03033A
:100DBC000CBF01230023434502D00020BDE8F8837B
:100DCC007B1CEDD0FFF7DEFB801B874201D3002F8D
:100DDC00E6D100232022236384F83D2084F83E30A2
:100DEC00226C84F83C3042F0200222640120BDE8E1
:100DFC00F88370B504460D46164623685B691B06DE
:100E0C0001D5002070BD2046FFF70DFFA8B96A1C64
:100E1C00F3D0FFF7B7FB801B854201D3002DECD13B
:100E2C0000232022236384F83D2084F83E30226C7A
:100E3C0084F83C3042F020022264012070BD000096
:100E4C002DE9FF41154602680B9E9846136843F442
:100E5C00807313600F460A9B009600224FF001111D
:100E6C000446FFF794FF236838B11B68DB0502D5F5
:100E7C004FF40073236403200AE007F0FE071F61A0
:100E8C000A9A194933462046FFF7E7FE18B10120AC
:100E9C0004B0BDE8F081236803905A6903929B6902
:100EAC00039332460A99039B2046FFF7A2FF40B1F9
:100EBC00236C042B01BF2268136843F40073136086
:100ECC00E5E7B8F1010F236802D1EDB21D61DFE750
:100EDC002A0A1A610A9932462046FFF78AFF00282F
:100EEC00E6D12368F1E700BF020001002DE9FF41C4
:100EFC00984603680B9D16461A6842F480621A6085
:100F0C001A6842F480721A600F460A9B0095002200
:100F1C004FF001110446FFF73AFF236848B11B68F4
:100F2C00DB0502D54FF400732364032004B0BDE845
:100F3C00F081FFB207F0FE021A612A490A9A2B4689
:100F4C002046FFF78AFE08B10120EFE723680390E3
:100F5C005A6903929B6903932A460A99039B20467C
:100F6C00FFF747FF40B1236C042B01BF22681368C5
:100F7C0043F400731360E7E7B8F1010F236825D140
:100F8C00F6B21E612A460A992046FFF732FF024646
:100F9C000028E8D121680B6843F480730B6020466D
:100FAC000A9B00954FF00111FFF7F1FE2368002812
:100FBC00B5D147F001071F610A9A0A492B46204612
:100FCC00FFF74BFE003018BF0120AFE7320A1A6161
:100FDC000A992A462046FFF70CFF0028C3D1236844
:100FEC00CEE700BF0200010070B5044608B901202D
:100FFC0070BD90F83D3003F0FF021BB980F83C2027
:10100C0001F0B0F9242384F83D3023681A6822F0EB
:10101C0001021A601A6842F400421A601A6822F43B
:10102C0000421A6000F064FD6568414B9D424DD84A
:10103C00404B9842DBD922683F495368B0FBF1F131
:10104C0023F03F030B435360136A23F03F0301313A
:10105C0019431162D169364B21F44F419D4221F065
:10106C00FF0100F1FF3048D86D00B0FBF5F0013006
:10107C00C0F30B03042B38BF04230B43D36111685B
:10108C00206AE36921F0C00103430B4313609168AC
:10109C00E068236921F40341034321F0FF010B4372
:1010AC009360D168A069636921F0FF0103430B438E
:1010BC00D360136843F001031360002020232064E5
:1010CC0084F83D30206384F83E0070BD1B4B984281
:1010DC008DD92268184E5368B0FBF6F623F03F0307
:1010EC0033435360136A4FF49671714323F03F03FB
:1010FC004FF47A76B1FBF6F1A9E7A36853B905EB87
:10110C004503B0FBF3F0431CC3F30B036BB143F487
:10111C000043B2E719236B43B0FBF3F0431CC3F35A
:10112C000B0313B143F44043A7E70123A5E700BF2A
:10113C00A08601007F841E0040420F00FF083D0086
:10114C002DE9F743044699460F4690460C9EFFF74F
:10115C0019FA94F83D30202B054603D0022003B039
:10116C00BDE8F0830090192301223B492046FFF78C
:10117C000EFE0028F2D194F83C30012BEED0012366
:10118C0084F83C3023681A68D1075EBF1A6842F0B5
:10119C0001021A601A6822F400621A60212384F892
:1011AC003D30402384F83E30002323640A9B636265
:1011BC00BDF82C306385638D2385284BE362019544
:1011CC0000964B46424639462046FFF739FE00282A
:1011DC002AD00120C3E7FFF70CFE40B1236C042B8F
:1011EC0001BF2268136843F400731360F1E7636A6C
:1011FC0027681A4612F8011B39616262628D218DD3
:10120C00013A92B262857A69481E80B252072085F3
:10121C000AD548B15A783A6102336362638D013B57
:10122C0002399BB221856385238D2A46314620469F
:10123C00002BD0D1FFF756FD0028CFD122681368C0
:10124C0043F400731360202384F83D3084F83C0091
:10125C0084F83E0083E700BF020010000000FFFF8F
:10126C002DE9F043044687B099460D469046109FF1
:10127C00FFF788F994F83D30202B064604D0022560
:10128C00284607B0BDE8F083009019230122774966
:10129C002046FFF77CFD0028F1D194F83C30012B5F
:1012AC00EDD0012384F83C3023681A68D0075EBF68
:1012BC001A6842F001021A601A6822F400621A607D
:1012CC00222384F83D30402384F83E3000232364ED
:1012DC000E9B6362BDF83C306385638D2385644B44
:1012EC00E3622946019600974B4642462046FFF79B
:1012FC00FDFD054608B10125C2E7228D236892B990
:10130C0002905A6902929A690292029A1A6842F4FD
:10131C0000721A60202384F83D30002384F83E309C
:10132C0084F83C30ACE7012A2CD11A6822F4806294
:10133C001A6003905A6903929A690392039A1A6885
:10134C0042F400721A60DFF82C81238D002BE1D05F
:10135C00032B6ED8012B2DD1324639462046FFF790
:10136C00E7FC0028C7D12268636A12691A70636AA5
:10137C0001336362238D013B2385638D013B9BB25B
:10138C006385E2E7022A0ED11A6822F480621A60A1
:10139C001A6842F400621A6004905A6904929B69BC
:1013AC000493049BCFE705905A6905929B690593BA
:1013BC00059BC8E7022B00963B464FF000024146C6
:1013CC00204619D1FFF7E3FC002894D123681A6852
:1013DC0042F400721A60626A1B691370626A531CD1
:1013EC006362238D013B2385638D013B9BB2638537
:1013FC0023681B695370BAE7FFF7C9FC0246002843
:10140C007FF479AF2368196821F480611960616AEF
:10141C001B690B70636A009601336362238D013B79
:10142C002385638D013B9BB2638541463B46204639
:10143C00C8E7324639462046FFF77AFC00287FF48D
:10144C005AAF2268636A12691A70626A531C63622B
:10145C00238D013B2385638D013B9BB26385236800
:10146C00596949077FF571AFC3E700BF020010004F
:10147C000000FFFF0400010090F83D20D2B2202AAA
:10148C0010B516D1242380F83D3003681C6824F075
:10149C0001041C605C6A24F010045C625C6A2143E9
:1014AC005962196841F00101196080F83D20002053
:1014BC0010BD022010BD30B590F83D40E4B2202C98
:1014CC0016D10268242380F83D30156825F00105FB
:1014DC001560556A4FF6F0732B400B439BB2536269
:1014EC00136843F00103136080F83D40002030BDC9
:1014FC00022030BDF0B504468BB060B390F8BD331C
:10150C00056803F0FF021BB980F8BC2300F09AFFBA
:10151C00032384F8BD33EB6B254613F4807355F825
:10152C00100B08BF236100F0F7FB0FCD6E460FC602
:10153C000FCD0FC695E8030086E803002546271D4E
:10154C0097E80E0055F8100B00F0A6FB064620B1EC
:10155C00022384F8BD33012550E00146206800F0D9
:10156C00E1FB3046D4F804E01C264FF0010C014698
:10157C00C2B2964500F101001CD800231C26194666
:10158C00D8B2864503F1010322D80FCD6E460FC6A3
:10159C000FCD0FC695E8030086E8030097E80E0010
:1015AC00206800F001FC0123054600B3022284F8F8
:1015BC00BD23D0E706FB024383F83DC083F83C20F3
:1015CC00A3F8422083F83F10596499641965CFE75A
:1015DC0006FB004282F8FD1182F8FC0182F8FF1133
:1015EC00C2F80412C2F80812C2F81012C8E784F844
:1015FC00380084F8BD33206800F090FC28460BB00E
:10160C00F0BD00002DE9F341044608B901203FE08C
:10161C000368DD0710D4236898075AD423681A0787
:10162C0000F19C8023685B0700F1BA80A069002858
:10163C0040F01B8100202BE0A44B9A6802F00C02B6
:10164C00042A07D09A6802F00C02082A0AD15B68B7
:10165C00590207D59D4B1B689A03DCD56368002B98
:10166C00D9D1D3E76368994DB3F5803F13D12B687B
:10167C0043F480332B60FEF785FF944D06462B68B0
:10168C009B03C8D4FEF77EFF801B6428F7D9032088
:10169C0002B0BDE8F081B3F5A02F04D12B6843F460
:1016AC0080232B60E3E72A6822F480322A602A68C0
:1016BC0022F480222A60002BDDD1FEF763FF064660
:1016CC002B689F03A7D5FEF75DFF801B6428F7D915
:1016DC00DDE77E4B9A6812F00C0F07D09A6802F087
:1016EC000C02082A11D15B685E020ED4774B1A6883
:1016FC00950702D5E268012A88D11A68216922F07F
:10170C00F80242EAC1021A6088E7E268704BB2B193
:10171C0001221A60FEF736FF6C4D06462B689807BF
:10172C0007D52B68226923F0F80343EAC2032B6028
:10173C0074E7FEF727FF801B0228EFD9A7E71A6092
:10174C00FEF720FF614D06462B6899077FF566AFC3
:10175C00FEF718FF801B0228F6D998E762695D4BEB
:10176C007AB101221A60FEF70DFF584D06466B6FD9
:10177C009F073FF557AFFEF705FF801B0228F6D9F0
:10178C0085E71A60FEF7FEFE504D06466B6F980714
:10179C007FF548AFFEF7F6FE801B0228F6D976E7F8
:1017AC004A4B1A6C12F0805228D101921A6C42F0FA
:1017BC0080521A641B6C03F080530193019B012629
:1017CC00454D2B68D9051BD5A368404D012B27D15E
:1017DC002B6F43F001032B67FEF7D4FE3B4D0746FE
:1017EC0041F288382B6F9B0739D5002E3FF41EAF82
:1017FC00364A136C23F08053136417E70026DFE797
:10180C002B6843F480732B60FEF7BCFE07462B68F5
:10181C00DA05D9D4FEF7B6FEC01B0228F7D936E795
:10182C00052B04D12B6F43F004032B67D0E72A6FF1
:10183C0022F001022A672A6F22F004022A67002B89
:10184C00CAD1FEF79FFE41F2883807462B6F9807E6
:10185C00CBD5FEF797FEC01B4045F7D917E7FEF72F
:10186C0091FEC01B4045BDD911E7184DAB6803F084
:10187C000C03082B47D0194E00230228336035D1B6
:10188C00FEF780FE07462B68990129D4226AE3698A
:10189C001343626A43EA8213E26A43EA0263A26A6E
:1018AC000A4C5208013A43EA02436B60012333604D
:1018BC00FEF768FE054623689A013FF5BBAEFEF7BE
:1018CC0061FE401B0228F6D9E1E600BF0038024059
:1018DC0000004742800E47420070004060004742C3
:1018EC00FEF750FEC01B0228CDD9D0E6FEF74AFE0B
:1018FC0004462B689B017FF59DAEFEF743FE001B53
:10190C000228F6D9C3E601283FF4C2AE6868E36941
:10191C0000F480029A427FF479AE226A00F03F0311
:10192C0093427FF473AE626A47F6C07303409342EE
:10193C007FF46CAEA26A00F4403393427FF466AE3F
:10194C00E36A00F07060C01A18BF0120A0E600BF67
:10195C00134908B58B6803F00C03042B03D0082B38
:10196C0003D0104808BD104808BD4A684B68496848
:10197C0013F4800314BF0C480A48C1F3881118BF34
:10198C00002302F03F02A1FB0001FEF729FC044BEF
:10199C005B68C3F3014301335B00B0FBF3F008BD9C
:1019AC00003802400024F40000127A002DE9F041C6
:1019BC000D46044610B90120BDE8F081444B1A686D
:1019CC0002F00F028A4229D321688F072ED4C80750
:1019DC0041D43F4B1A6802F00F02954267D322683C
:1019EC0051076DD4130707D53A4A2169936823F43C
:1019FC00604343EAC1039360FFF7AAFF354B364AB5
:101A0C009B68C3F30313D35CD840344B1860344B3E
:101A1C001868FEF76DFD0020BDE8F081CAB21A709F
:101A2C001B6803F00F039942C5D1CDE7294B11F088
:101A3C00040F1EBF9A6842F4E0529A600E0742BF30
:101A4C009A6842F460429A609A68A06822F0F002A8
:101A5C0002439A60BBE762681E4B012A1DD11B68CA
:101A6C0013F4003FA7D01B4EB36823F003031343BA
:101A7C00B360FEF787FD41F288380746B3686268A9
:101A8C0003F00C03B3EB820FA3D0FEF77BFDC01B5E
:101A9C004045F3D90320BDE8F081911E01291B6854
:101AAC0002D813F0007FDDE713F0020FDAE7EAB299
:101ABC001A701B6803F00F039D427FF47CAF8EE716
:101ACC000449E0688B6823F4E05303438B6089E797
:101ADC00003C024000380240C825000808000020E5
:101AEC0004000020014B1868704700BF080000205C
:101AFC00044B054A9B68C3F38223D35C034A1068EA
:101B0C00D840704700380240D82500080800002053
:101B1C00044B054A9B68C3F34233D35C034A1068F9
:101B2C00D840704700380240D82500080800002033
:101B3C0038B50368C1681A69044622F440520A4356
:101B4C001A612569A268D968C0692A43656921F4BC
:101B5C0016412A4321F00C0102430A43DA605A6908
:101B6C00A16922F440720A43B0F5004F5A61254A2C
:101B7C0029D1934203D002F58062934220D1FFF722
:101B8C00C7FF6268256892184FF000034FF01901E7
:101B9C005B41A0FB0101FEF723FB6421B0FBF1F4D8
:101BAC0001FB1403DB003233B3FBF1F303F0070248
:101BBC005B0002EB041203F4F8731344AB6038BD02
:101BCC00FFF796FFDDE7934202D00F4A934216D1FE
:101BDC00FFF79EFF6368256819219A00A0FB01019D
:101BEC009B0FFEF7FDFA6422B0FBF2F102FB11032E
:101BFC001B013233B3FBF2F303EB0113DEE7FFF708
:101C0C0077FFE7E7001001400014014010B50446CF
:101C1C0040B390F8393003F0FF021BB980F838203C
:101C2C0000F0DAFB2268242384F83930D36823F4DB
:101C3C000053D3602046FFF77BFF23681A6922F418
:101C4C0090421A615A6922F02A025A61DA6842F407
:101C5C000052DA6000202023E06384F8393084F8E5
:101C6C003A3010BD012010BD0A4B013B01D10320BD
:101C7C0070470269002AF8DA0369064A43F0010347
:101C8C000361013AF3D0036913F00103F9D118464B
:101C9C00704700BF410D030084B038B505AD85E831
:101CAC000E000A9B012B044625D1836B23F4803351
:101CBC008363C36823F4840323F04003C360C368C5
:101CCC0023F44013C360119B012B02BFC36843F480
:101CDC008013C360FFF7C8FF089B012B07D1A368D3
:101CEC0043F00603A360A36843F02003A360BDE8A0
:101CFC00384004B07047C36843F04003C360FFF73B
:101D0C00B3FF0E9B23B9A36B43F48033A363E3E7C8
:101D1C00A36B23F48033F9E7836823F0010383601A
:101D2C000020704708B5C368012923F0C043C36085
:101D3C0008D1C36843F00053C3603220FEF728FC7F
:101D4C00002008BD19B9C36843F08043F4E70120B3
:101D5C0008BD0000890141F02001064A0161013AE9
:101D6C0005D0036913F02003F9D1184670470320FE
:101D7C00704700BF410D03001023064A0361013A6E
:101D8C0005D0036913F01003F9D1184670470320EE
:101D9C00704700BF410D0300D0F800381943C0F85C
:101DAC00001800207047000084B02DE9F843044669
:101DBC0009A880E80E000023139D0F46194603F175
:101DCC00400204EB820201330F2B5160F7D104F572
:101DDC000066002D6CD1736843F002037360A36B33
:101DEC0043F40013A363A36B23F40023A363A36B3B
:101DFC0023F48023A3630023C4F8003ED4F80038F6
:101E0C00C4F800380E9B012B5CD10B99002957D1DB
:101E1C002046FFF7C1FF10212046FFF79BFF01462C
:101E2C002046FFF7A9FF00284ED1081C18BF01203F
:101E3C000023336104F5106273611946F3614FF0AE
:101E4C00904E4FF0006C4FF67F38BB423ED10021D4
:101E5C0004F530620F464FF0904E4FF0006C4FF689
:101E6C007F388B4245D1336923F48073336100236F
:101E7C00A3616FF0804363610C9B1BB9A36943F0B2
:101E8C001003A361A269244B1343A3610F9B1BB1E5
:101E9C00A36943F00803A361012D01BFA36943F0BB
:101EAC00804343F00403A361BDE8F84304B07047DA
:101EBC00A36B23F40013A363A36B43F4002399E7F0
:101ECC001946A5E70321A3E70120B1E7D2F800905A
:101EDC00B9F1000F0BDA3BB9C2F800C01161013344
:101EEC00C2F808802032B0E7C2F800E0F6E71160D3
:101EFC00F4E7D2F80090B9F1000F0BDA39B9C2F857
:101F0C0000C017610131C2F808802032A9E7C2F87D
:101F1C0000E0F6E71760F4E700383C8008B5D0F82D
:101F2C00043843F00203C0F804380320FEF730FBFA
:101F3C00002008BD30B595B03022002108A800F073
:101F4C0029FB0021142203A800F024FB00241D4BC4
:101F5C0001941A6C42F080521A641B6C03F080538B
:101F6C000193019B184B02941A6842F440421A6088
:101F7C001B6803F440430293029B012308934FF424
:101F8C00A02309934FF480030F9304231093A823E9
:101F9C000225119308A8072313930E951295FFF7AA
:101FAC0031FB0F2303934FF4A053069305214FF4F9
:101FBC00805303A8049505940793FFF7F7FC15B01D
:101FCC0030BD00BF00380240007000402DE9F041E8
:101FDC0096B0FEF7B1FAFFF7ADFF1422002111A85D
:101FEC00002400F0D7FA7D4B05941A6B7C4842F024
:101FFC0004021A631A6B02F004020592059A069405
:10200C001A6B42F080021A631A6B02F0800206927D
:10201C00069A07941A6B42F001021A631A6B02F0CB
:10202C0001020792079A08941A6B42F002021A6393
:10203C001A6B02F002020892089A09941A6B42F089
:10204C0008021A631A6B02F008020992099A0A94A0
:10205C001A6B42F040021A631B6B03F040030A93A5
:10206C00224644F281010A9BFEF7D8FD224640210C
:10207C005C48FEF7D3FD4FF40053119311A95A4B52
:10208C005A48129301261394FEF7DCFC44F28103A8
:10209C0011A953481296119313941494FEF7D2FC81
:1020AC00402311A94F481296119380251394149430
:1020BC00FEF7C8FC11A94B48119512941394FEF726
:1020CC00C1FC4B484B4B048280E8480043691C70B0
:1020DC0043695D704369484DE1229A704369DC7035
:1020EC0043691C7143695C714FF4000303628461A2
:1020FC00C461FEF7ABFB414A414BAC6085E80C0078
:10210C0028464FF480432B61EC606C61AC61EC6150
:10211C002C62FEF769FF21462846FFF7ADF92146F0
:10212C002846FFF7C8F93748374984604FF4E13344
:10213C0080E80A000C234361C46004618461C461BB
:10214C00FFF764FD31484FF0A043042780E8880076
:10215C000227C7608761C661C6620461046244627B
:10216C000463FFF7C7F911A91D481196129614972D
:10217C00FEF768FC324631461948FEF74FFD0BAFAF
:10218C0063230EAE0B948DF82C3064230E947C607C
:10219C003C81746034818DF8383004934FF47A7438
:1021AC004FF0010802230022A02102948DE8800147
:1021BC002846FEF7C5FF04902046FEF7E9F9029485
:1021CC008DE8400102230022A0212846FFF748F8A1
:1021DC0004902046FEF7DCF9E0E700BF003802402F
:1021EC0000040240001802400000111000080240D8
:1021FC00C8040020008002406C0000200054004005
:10220C00A08601002C00002000480040C0000020E7
:10221C0082B00C4B002100915A6C42F480425A64FB
:10222C005A6C02F480420092009A01911A6C42F0AE
:10223C0080521A641B6C03F080530193019B02B013
:10224C00704700BF00380240F0B504468DB0142230
:10225C00002107A800F09EF922683D4B9A4274D1E8
:10226C00A3F59043002400941A6B3A4842F0007294
:10227C001A631A6B02F000720092009A01941A6BA6
:10228C0042F080621A631A6B02F080620192019A2A
:10229C0002941A6B42F000621A631A6B02F000622D
:1022AC000292029A03941A6B42F004021A631A6B9C
:1022BC0002F004020392039A04941A6B42F0010296
:1022CC001A631A6B02F001020492049A05941A6BB9
:1022DC0042F002021A631A6B02F002020592059A8E
:1022EC0006941A6B42F040021A631B6B03F0400316
:1022FC000693022703260B25069B0897322307A972
:10230C0007930A960B95FEF79DFB862307A91248A7
:10231C000793089709940A960B95FEF793FB4FF4D5
:10232C00005307A90D480793089709940A960B9533
:10233C00FEF788FB4FF4205307A909480793089729
:10234C0009940A960B95FEF77DFB0DB0F0BD00BF0E
:10235C0000800240000802400000024000040240DD
:10236C000018024030B5044689B01422002103A89D
:10237C0000F010F92268154B9A4224D1144C1548E0
:10238C0000250195236B43F002032363236B03F0B9
:10239C0002030193019B4FF44073039312230493A4
:1023AC00012305930323069303A904230793FEF744
:1023BC0049FB0295236C43F400132364236C03F450
:1023CC0000130293029B09B030BD00BF00540040C3
:1023DC00003802400004024010B5044688B01422B4
:1023EC00002103A800F0D6F82268144B9A4223D19E
:1023FC0003F5F833002101911A6C114842F4802244
:10240C001A641A6C02F480220192019A02911A6BDE
:10241C0042F008021A631B6B03F008030293029B41
:10242C004FF440730393022304930323069303A9ED
:10243C0007230793FEF706FB08B010BD00480040C9
:10244C00000C024030B5044689B01422002103A8C8
:10245C0000F0A0F82368B3F1A04F2FD1184C194805
:10246C0000250195236B43F001032363236B03F0D9
:10247C0001030193019B4FF4E8530393022304934C
:10248C000323069303A90A230793FEF7DBFA4FF401
:10249C00007303A90B48039304950595FEF7D2FA34
:1024AC00636B43F0800363630295636C43F4804376
:1024BC006364636C03F480430293029B09B030BDE8
:1024CC0000380240000002407047FEE7FEE7FEE7DE
:1024DC00FEE7704770477047FEF748B8054BD3F8D6
:1024EC00882042F47002C3F888204FF000629A6092
:1024FC00704700BF00ED00E0DFF834D0002103E0AE
:10250C000C4B5B58435004310B480C4B42189A420D
:10251C00F6D30B4A02E0002342F8043B094B9A42E3
:10252C00F9D3FFF7DBFF00F011F8FFF74FFD704711
:10253C0000000320F0250008000000200C00002003
:10254C000C00002010050020FEE7000070B50D4EB9
:10255C000D4CA41BA4100025A54209D10B4E0C4C0C
:10256C0000F020F8A41BA4100025A54205D170BDD5
:10257C0056F8253098470135EEE756F82530984740
:10258C000135F2E7E8250008E8250008E8250008F1
:10259C00EC25000802440346934200D1704703F82F
:1025AC00011BF9E7F8B500BFF8BC08BC9E467047A4
:0C25BC00F8B500BFF8BC08BC9E46704794
:1025C80000000000000000000102030406070809DB
:0825D8000000000001020304F1
:0825E0003CDCFF7F010000005C
:0425E800D101000815
:0425EC00AD01000835
:0C25F00001000000100000000024F400B6
:0400000508002505C5
:00000001FF
