
eeprom2.elf:     file format elf32-littlearm

Sections:
Idx Name          Size      VMA       LMA       File off  Algn
  0 .isr_vector   000001ac  08000000  08000000  00010000  2**0
                  CONTENTS, ALLOC, LOAD, READONLY, DATA
  1 .text         0000241c  080001ac  080001ac  000101ac  2**2
                  CONTENTS, ALLOC, LOAD, READONLY, CODE
  2 .rodata       00000018  080025c8  080025c8  000125c8  2**0
                  CONTENTS, ALLOC, LOAD, READONLY, DATA
  3 .ARM          00000008  080025e0  080025e0  000125e0  2**2
                  CONTENTS, ALLOC, LOAD, READONLY, DATA
  4 .init_array   00000004  080025e8  080025e8  000125e8  2**2
                  CONTENTS, ALLOC, LOAD, DATA
  5 .fini_array   00000004  080025ec  080025ec  000125ec  2**2
                  CONTENTS, ALLOC, LOAD, DATA
  6 .data         0000000c  20000000  080025f0  00020000  2**2
                  CONTENTS, ALLOC, LOAD, DATA
  7 .ccmram       00000000  10000000  10000000  0002000c  2**0
                  CONTENTS
  8 .bss          00000504  2000000c  2000000c  0002000c  2**2
                  ALLOC
  9 ._user_heap_stack 00000600  20000510  20000510  0002000c  2**0
                  ALLOC
 10 .ARM.attributes 00000030  00000000  00000000  0002000c  2**0
                  CONTENTS, READONLY
 11 .debug_info   00010b41  00000000  00000000  0002003c  2**0
                  CONTENTS, READONLY, DEBUGGING
 12 .debug_abbrev 0000239c  00000000  00000000  00030b7d  2**0
                  CONTENTS, READONLY, DEBUGGING
 13 .debug_loc    0000878b  00000000  00000000  00032f19  2**0
                  CONTENTS, READONLY, DEBUGGING
 14 .debug_aranges 00000a00  00000000  00000000  0003b6a8  2**3
                  CONTENTS, READONLY, DEBUGGING
 15 .debug_ranges 00000db0  00000000  00000000  0003c0a8  2**3
                  CONTENTS, READONLY, DEBUGGING
 16 .debug_line   000061ad  00000000  00000000  0003ce58  2**0
                  CONTENTS, READONLY, DEBUGGING
 17 .debug_str    000045d6  00000000  00000000  00043005  2**0
                  CONTENTS, READONLY, DEBUGGING
 18 .comment      0000007c  00000000  00000000  000475db  2**0
                  CONTENTS, READONLY
 19 .debug_frame  00001de0  00000000  00000000  00047658  2**2
                  CONTENTS, READONLY, DEBUGGING

Disassembly of section .text:

080001ac <__do_global_dtors_aux>:
 80001ac:	b510      	push	{r4, lr}
 80001ae:	4c05      	ldr	r4, [pc, #20]	; (80001c4 <__do_global_dtors_aux+0x18>)
 80001b0:	7823      	ldrb	r3, [r4, #0]
 80001b2:	b933      	cbnz	r3, 80001c2 <__do_global_dtors_aux+0x16>
 80001b4:	4b04      	ldr	r3, [pc, #16]	; (80001c8 <__do_global_dtors_aux+0x1c>)
 80001b6:	b113      	cbz	r3, 80001be <__do_global_dtors_aux+0x12>
 80001b8:	4804      	ldr	r0, [pc, #16]	; (80001cc <__do_global_dtors_aux+0x20>)
 80001ba:	f3af 8000 	nop.w
 80001be:	2301      	movs	r3, #1
 80001c0:	7023      	strb	r3, [r4, #0]
 80001c2:	bd10      	pop	{r4, pc}
 80001c4:	2000000c 	.word	0x2000000c
 80001c8:	00000000 	.word	0x00000000
 80001cc:	080025b0 	.word	0x080025b0

080001d0 <frame_dummy>:
 80001d0:	b508      	push	{r3, lr}
 80001d2:	4b03      	ldr	r3, [pc, #12]	; (80001e0 <frame_dummy+0x10>)
 80001d4:	b11b      	cbz	r3, 80001de <frame_dummy+0xe>
 80001d6:	4903      	ldr	r1, [pc, #12]	; (80001e4 <frame_dummy+0x14>)
 80001d8:	4803      	ldr	r0, [pc, #12]	; (80001e8 <frame_dummy+0x18>)
 80001da:	f3af 8000 	nop.w
 80001de:	bd08      	pop	{r3, pc}
 80001e0:	00000000 	.word	0x00000000
 80001e4:	20000010 	.word	0x20000010
 80001e8:	080025b0 	.word	0x080025b0

080001ec <__aeabi_uldivmod>:
 80001ec:	b953      	cbnz	r3, 8000204 <__aeabi_uldivmod+0x18>
 80001ee:	b94a      	cbnz	r2, 8000204 <__aeabi_uldivmod+0x18>
 80001f0:	2900      	cmp	r1, #0
 80001f2:	bf08      	it	eq
 80001f4:	2800      	cmpeq	r0, #0
 80001f6:	bf1c      	itt	ne
 80001f8:	f04f 31ff 	movne.w	r1, #4294967295
 80001fc:	f04f 30ff 	movne.w	r0, #4294967295
 8000200:	f000 b97a 	b.w	80004f8 <__aeabi_idiv0>
 8000204:	f1ad 0c08 	sub.w	ip, sp, #8
 8000208:	e96d ce04 	strd	ip, lr, [sp, #-16]!
 800020c:	f000 f806 	bl	800021c <__udivmoddi4>
 8000210:	f8dd e004 	ldr.w	lr, [sp, #4]
 8000214:	e9dd 2302 	ldrd	r2, r3, [sp, #8]
 8000218:	b004      	add	sp, #16
 800021a:	4770      	bx	lr

0800021c <__udivmoddi4>:
 800021c:	e92d 47f0 	stmdb	sp!, {r4, r5, r6, r7, r8, r9, sl, lr}
 8000220:	468c      	mov	ip, r1
 8000222:	460d      	mov	r5, r1
 8000224:	4604      	mov	r4, r0
 8000226:	9e08      	ldr	r6, [sp, #32]
 8000228:	2b00      	cmp	r3, #0
 800022a:	d151      	bne.n	80002d0 <__udivmoddi4+0xb4>
 800022c:	428a      	cmp	r2, r1
 800022e:	4617      	mov	r7, r2
 8000230:	d96d      	bls.n	800030e <__udivmoddi4+0xf2>
 8000232:	fab2 fe82 	clz	lr, r2
 8000236:	f1be 0f00 	cmp.w	lr, #0
 800023a:	d00b      	beq.n	8000254 <__udivmoddi4+0x38>
 800023c:	f1ce 0c20 	rsb	ip, lr, #32
 8000240:	fa01 f50e 	lsl.w	r5, r1, lr
 8000244:	fa20 fc0c 	lsr.w	ip, r0, ip
 8000248:	fa02 f70e 	lsl.w	r7, r2, lr
 800024c:	ea4c 0c05 	orr.w	ip, ip, r5
 8000250:	fa00 f40e 	lsl.w	r4, r0, lr
 8000254:	ea4f 4a17 	mov.w	sl, r7, lsr #16
 8000258:	0c25      	lsrs	r5, r4, #16
 800025a:	fbbc f8fa 	udiv	r8, ip, sl
 800025e:	fa1f f987 	uxth.w	r9, r7
 8000262:	fb0a cc18 	mls	ip, sl, r8, ip
 8000266:	ea45 450c 	orr.w	r5, r5, ip, lsl #16
 800026a:	fb08 f309 	mul.w	r3, r8, r9
 800026e:	42ab      	cmp	r3, r5
 8000270:	d90a      	bls.n	8000288 <__udivmoddi4+0x6c>
 8000272:	19ed      	adds	r5, r5, r7
 8000274:	f108 32ff 	add.w	r2, r8, #4294967295
 8000278:	f080 8123 	bcs.w	80004c2 <__udivmoddi4+0x2a6>
 800027c:	42ab      	cmp	r3, r5
 800027e:	f240 8120 	bls.w	80004c2 <__udivmoddi4+0x2a6>
 8000282:	f1a8 0802 	sub.w	r8, r8, #2
 8000286:	443d      	add	r5, r7
 8000288:	1aed      	subs	r5, r5, r3
 800028a:	b2a4      	uxth	r4, r4
 800028c:	fbb5 f0fa 	udiv	r0, r5, sl
 8000290:	fb0a 5510 	mls	r5, sl, r0, r5
 8000294:	ea44 4405 	orr.w	r4, r4, r5, lsl #16
 8000298:	fb00 f909 	mul.w	r9, r0, r9
 800029c:	45a1      	cmp	r9, r4
 800029e:	d909      	bls.n	80002b4 <__udivmoddi4+0x98>
 80002a0:	19e4      	adds	r4, r4, r7
 80002a2:	f100 33ff 	add.w	r3, r0, #4294967295
 80002a6:	f080 810a 	bcs.w	80004be <__udivmoddi4+0x2a2>
 80002aa:	45a1      	cmp	r9, r4
 80002ac:	f240 8107 	bls.w	80004be <__udivmoddi4+0x2a2>
 80002b0:	3802      	subs	r0, #2
 80002b2:	443c      	add	r4, r7
 80002b4:	eba4 0409 	sub.w	r4, r4, r9
 80002b8:	ea40 4008 	orr.w	r0, r0, r8, lsl #16
 80002bc:	2100      	movs	r1, #0
 80002be:	2e00      	cmp	r6, #0
 80002c0:	d061      	beq.n	8000386 <__udivmoddi4+0x16a>
 80002c2:	fa24 f40e 	lsr.w	r4, r4, lr
 80002c6:	2300      	movs	r3, #0
 80002c8:	6034      	str	r4, [r6, #0]
 80002ca:	6073      	str	r3, [r6, #4]
 80002cc:	e8bd 87f0 	ldmia.w	sp!, {r4, r5, r6, r7, r8, r9, sl, pc}
 80002d0:	428b      	cmp	r3, r1
 80002d2:	d907      	bls.n	80002e4 <__udivmoddi4+0xc8>
 80002d4:	2e00      	cmp	r6, #0
 80002d6:	d054      	beq.n	8000382 <__udivmoddi4+0x166>
 80002d8:	2100      	movs	r1, #0
 80002da:	e886 0021 	stmia.w	r6, {r0, r5}
 80002de:	4608      	mov	r0, r1
 80002e0:	e8bd 87f0 	ldmia.w	sp!, {r4, r5, r6, r7, r8, r9, sl, pc}
 80002e4:	fab3 f183 	clz	r1, r3
 80002e8:	2900      	cmp	r1, #0
 80002ea:	f040 808e 	bne.w	800040a <__udivmoddi4+0x1ee>
 80002ee:	42ab      	cmp	r3, r5
 80002f0:	d302      	bcc.n	80002f8 <__udivmoddi4+0xdc>
 80002f2:	4282      	cmp	r2, r0
 80002f4:	f200 80fa 	bhi.w	80004ec <__udivmoddi4+0x2d0>
 80002f8:	1a84      	subs	r4, r0, r2
 80002fa:	eb65 0503 	sbc.w	r5, r5, r3
 80002fe:	2001      	movs	r0, #1
 8000300:	46ac      	mov	ip, r5
 8000302:	2e00      	cmp	r6, #0
 8000304:	d03f      	beq.n	8000386 <__udivmoddi4+0x16a>
 8000306:	e886 1010 	stmia.w	r6, {r4, ip}
 800030a:	e8bd 87f0 	ldmia.w	sp!, {r4, r5, r6, r7, r8, r9, sl, pc}
 800030e:	b912      	cbnz	r2, 8000316 <__udivmoddi4+0xfa>
 8000310:	2701      	movs	r7, #1
 8000312:	fbb7 f7f2 	udiv	r7, r7, r2
 8000316:	fab7 fe87 	clz	lr, r7
 800031a:	f1be 0f00 	cmp.w	lr, #0
 800031e:	d134      	bne.n	800038a <__udivmoddi4+0x16e>
 8000320:	1beb      	subs	r3, r5, r7
 8000322:	0c3a      	lsrs	r2, r7, #16
 8000324:	fa1f fc87 	uxth.w	ip, r7
 8000328:	2101      	movs	r1, #1
 800032a:	fbb3 f8f2 	udiv	r8, r3, r2
 800032e:	0c25      	lsrs	r5, r4, #16
 8000330:	fb02 3318 	mls	r3, r2, r8, r3
 8000334:	ea45 4503 	orr.w	r5, r5, r3, lsl #16
 8000338:	fb0c f308 	mul.w	r3, ip, r8
 800033c:	42ab      	cmp	r3, r5
 800033e:	d907      	bls.n	8000350 <__udivmoddi4+0x134>
 8000340:	19ed      	adds	r5, r5, r7
 8000342:	f108 30ff 	add.w	r0, r8, #4294967295
 8000346:	d202      	bcs.n	800034e <__udivmoddi4+0x132>
 8000348:	42ab      	cmp	r3, r5
 800034a:	f200 80d1 	bhi.w	80004f0 <__udivmoddi4+0x2d4>
 800034e:	4680      	mov	r8, r0
 8000350:	1aed      	subs	r5, r5, r3
 8000352:	b2a3      	uxth	r3, r4
 8000354:	fbb5 f0f2 	udiv	r0, r5, r2
 8000358:	fb02 5510 	mls	r5, r2, r0, r5
 800035c:	ea43 4405 	orr.w	r4, r3, r5, lsl #16
 8000360:	fb0c fc00 	mul.w	ip, ip, r0
 8000364:	45a4      	cmp	ip, r4
 8000366:	d907      	bls.n	8000378 <__udivmoddi4+0x15c>
 8000368:	19e4      	adds	r4, r4, r7
 800036a:	f100 33ff 	add.w	r3, r0, #4294967295
 800036e:	d202      	bcs.n	8000376 <__udivmoddi4+0x15a>
 8000370:	45a4      	cmp	ip, r4
 8000372:	f200 80b8 	bhi.w	80004e6 <__udivmoddi4+0x2ca>
 8000376:	4618      	mov	r0, r3
 8000378:	eba4 040c 	sub.w	r4, r4, ip
 800037c:	ea40 4008 	orr.w	r0, r0, r8, lsl #16
 8000380:	e79d      	b.n	80002be <__udivmoddi4+0xa2>
 8000382:	4631      	mov	r1, r6
 8000384:	4630      	mov	r0, r6
 8000386:	e8bd 87f0 	ldmia.w	sp!, {r4, r5, r6, r7, r8, r9, sl, pc}
 800038a:	f1ce 0420 	rsb	r4, lr, #32
 800038e:	fa05 f30e 	lsl.w	r3, r5, lr
 8000392:	fa07 f70e 	lsl.w	r7, r7, lr
 8000396:	fa20 f804 	lsr.w	r8, r0, r4
 800039a:	0c3a      	lsrs	r2, r7, #16
 800039c:	fa25 f404 	lsr.w	r4, r5, r4
 80003a0:	ea48 0803 	orr.w	r8, r8, r3
 80003a4:	fbb4 f1f2 	udiv	r1, r4, r2
 80003a8:	ea4f 4518 	mov.w	r5, r8, lsr #16
 80003ac:	fb02 4411 	mls	r4, r2, r1, r4
 80003b0:	fa1f fc87 	uxth.w	ip, r7
 80003b4:	ea45 4504 	orr.w	r5, r5, r4, lsl #16
 80003b8:	fb01 f30c 	mul.w	r3, r1, ip
 80003bc:	42ab      	cmp	r3, r5
 80003be:	fa00 f40e 	lsl.w	r4, r0, lr
 80003c2:	d909      	bls.n	80003d8 <__udivmoddi4+0x1bc>
 80003c4:	19ed      	adds	r5, r5, r7
 80003c6:	f101 30ff 	add.w	r0, r1, #4294967295
 80003ca:	f080 808a 	bcs.w	80004e2 <__udivmoddi4+0x2c6>
 80003ce:	42ab      	cmp	r3, r5
 80003d0:	f240 8087 	bls.w	80004e2 <__udivmoddi4+0x2c6>
 80003d4:	3902      	subs	r1, #2
 80003d6:	443d      	add	r5, r7
 80003d8:	1aeb      	subs	r3, r5, r3
 80003da:	fa1f f588 	uxth.w	r5, r8
 80003de:	fbb3 f0f2 	udiv	r0, r3, r2
 80003e2:	fb02 3310 	mls	r3, r2, r0, r3
 80003e6:	ea45 4503 	orr.w	r5, r5, r3, lsl #16
 80003ea:	fb00 f30c 	mul.w	r3, r0, ip
 80003ee:	42ab      	cmp	r3, r5
 80003f0:	d907      	bls.n	8000402 <__udivmoddi4+0x1e6>
 80003f2:	19ed      	adds	r5, r5, r7
 80003f4:	f100 38ff 	add.w	r8, r0, #4294967295
 80003f8:	d26f      	bcs.n	80004da <__udivmoddi4+0x2be>
 80003fa:	42ab      	cmp	r3, r5
 80003fc:	d96d      	bls.n	80004da <__udivmoddi4+0x2be>
 80003fe:	3802      	subs	r0, #2
 8000400:	443d      	add	r5, r7
 8000402:	1aeb      	subs	r3, r5, r3
 8000404:	ea40 4101 	orr.w	r1, r0, r1, lsl #16
 8000408:	e78f      	b.n	800032a <__udivmoddi4+0x10e>
 800040a:	f1c1 0720 	rsb	r7, r1, #32
 800040e:	fa22 f807 	lsr.w	r8, r2, r7
 8000412:	408b      	lsls	r3, r1
 8000414:	fa05 f401 	lsl.w	r4, r5, r1
 8000418:	ea48 0303 	orr.w	r3, r8, r3
 800041c:	fa20 fe07 	lsr.w	lr, r0, r7
 8000420:	ea4f 4c13 	mov.w	ip, r3, lsr #16
 8000424:	40fd      	lsrs	r5, r7
 8000426:	ea4e 0e04 	orr.w	lr, lr, r4
 800042a:	fbb5 f9fc 	udiv	r9, r5, ip
 800042e:	ea4f 441e 	mov.w	r4, lr, lsr #16
 8000432:	fb0c 5519 	mls	r5, ip, r9, r5
 8000436:	fa1f f883 	uxth.w	r8, r3
 800043a:	ea44 4505 	orr.w	r5, r4, r5, lsl #16
 800043e:	fb09 f408 	mul.w	r4, r9, r8
 8000442:	42ac      	cmp	r4, r5
 8000444:	fa02 f201 	lsl.w	r2, r2, r1
 8000448:	fa00 fa01 	lsl.w	sl, r0, r1
 800044c:	d908      	bls.n	8000460 <__udivmoddi4+0x244>
 800044e:	18ed      	adds	r5, r5, r3
 8000450:	f109 30ff 	add.w	r0, r9, #4294967295
 8000454:	d243      	bcs.n	80004de <__udivmoddi4+0x2c2>
 8000456:	42ac      	cmp	r4, r5
 8000458:	d941      	bls.n	80004de <__udivmoddi4+0x2c2>
 800045a:	f1a9 0902 	sub.w	r9, r9, #2
 800045e:	441d      	add	r5, r3
 8000460:	1b2d      	subs	r5, r5, r4
 8000462:	fa1f fe8e 	uxth.w	lr, lr
 8000466:	fbb5 f0fc 	udiv	r0, r5, ip
 800046a:	fb0c 5510 	mls	r5, ip, r0, r5
 800046e:	ea4e 4405 	orr.w	r4, lr, r5, lsl #16
 8000472:	fb00 f808 	mul.w	r8, r0, r8
 8000476:	45a0      	cmp	r8, r4
 8000478:	d907      	bls.n	800048a <__udivmoddi4+0x26e>
 800047a:	18e4      	adds	r4, r4, r3
 800047c:	f100 35ff 	add.w	r5, r0, #4294967295
 8000480:	d229      	bcs.n	80004d6 <__udivmoddi4+0x2ba>
 8000482:	45a0      	cmp	r8, r4
 8000484:	d927      	bls.n	80004d6 <__udivmoddi4+0x2ba>
 8000486:	3802      	subs	r0, #2
 8000488:	441c      	add	r4, r3
 800048a:	ea40 4009 	orr.w	r0, r0, r9, lsl #16
 800048e:	eba4 0408 	sub.w	r4, r4, r8
 8000492:	fba0 8902 	umull	r8, r9, r0, r2
 8000496:	454c      	cmp	r4, r9
 8000498:	46c6      	mov	lr, r8
 800049a:	464d      	mov	r5, r9
 800049c:	d315      	bcc.n	80004ca <__udivmoddi4+0x2ae>
 800049e:	d012      	beq.n	80004c6 <__udivmoddi4+0x2aa>
 80004a0:	b156      	cbz	r6, 80004b8 <__udivmoddi4+0x29c>
 80004a2:	ebba 030e 	subs.w	r3, sl, lr
 80004a6:	eb64 0405 	sbc.w	r4, r4, r5
 80004aa:	fa04 f707 	lsl.w	r7, r4, r7
 80004ae:	40cb      	lsrs	r3, r1
 80004b0:	431f      	orrs	r7, r3
 80004b2:	40cc      	lsrs	r4, r1
 80004b4:	6037      	str	r7, [r6, #0]
 80004b6:	6074      	str	r4, [r6, #4]
 80004b8:	2100      	movs	r1, #0
 80004ba:	e8bd 87f0 	ldmia.w	sp!, {r4, r5, r6, r7, r8, r9, sl, pc}
 80004be:	4618      	mov	r0, r3
 80004c0:	e6f8      	b.n	80002b4 <__udivmoddi4+0x98>
 80004c2:	4690      	mov	r8, r2
 80004c4:	e6e0      	b.n	8000288 <__udivmoddi4+0x6c>
 80004c6:	45c2      	cmp	sl, r8
 80004c8:	d2ea      	bcs.n	80004a0 <__udivmoddi4+0x284>
 80004ca:	ebb8 0e02 	subs.w	lr, r8, r2
 80004ce:	eb69 0503 	sbc.w	r5, r9, r3
 80004d2:	3801      	subs	r0, #1
 80004d4:	e7e4      	b.n	80004a0 <__udivmoddi4+0x284>
 80004d6:	4628      	mov	r0, r5
 80004d8:	e7d7      	b.n	800048a <__udivmoddi4+0x26e>
 80004da:	4640      	mov	r0, r8
 80004dc:	e791      	b.n	8000402 <__udivmoddi4+0x1e6>
 80004de:	4681      	mov	r9, r0
 80004e0:	e7be      	b.n	8000460 <__udivmoddi4+0x244>
 80004e2:	4601      	mov	r1, r0
 80004e4:	e778      	b.n	80003d8 <__udivmoddi4+0x1bc>
 80004e6:	3802      	subs	r0, #2
 80004e8:	443c      	add	r4, r7
 80004ea:	e745      	b.n	8000378 <__udivmoddi4+0x15c>
 80004ec:	4608      	mov	r0, r1
 80004ee:	e708      	b.n	8000302 <__udivmoddi4+0xe6>
 80004f0:	f1a8 0802 	sub.w	r8, r8, #2
 80004f4:	443d      	add	r5, r7
 80004f6:	e72b      	b.n	8000350 <__udivmoddi4+0x134>

080004f8 <__aeabi_idiv0>:
 80004f8:	4770      	bx	lr
 80004fa:	bf00      	nop

080004fc <HAL_InitTick>:
  *       implementation  in user file.
  * @param TickPriority Tick interrupt priority.
  * @retval HAL status
  */
__weak HAL_StatusTypeDef HAL_InitTick(uint32_t TickPriority)
{
 80004fc:	b538      	push	{r3, r4, r5, lr}
  /* Configure the SysTick to have interrupt in 1ms time basis*/
  if (HAL_SYSTICK_Config(SystemCoreClock / (1000U / uwTickFreq)) > 0U)
 80004fe:	4a0e      	ldr	r2, [pc, #56]	; (8000538 <HAL_InitTick+0x3c>)
 8000500:	4b0e      	ldr	r3, [pc, #56]	; (800053c <HAL_InitTick+0x40>)
{
 8000502:	4605      	mov	r5, r0
  if (HAL_SYSTICK_Config(SystemCoreClock / (1000U / uwTickFreq)) > 0U)
 8000504:	7818      	ldrb	r0, [r3, #0]
 8000506:	f44f 737a 	mov.w	r3, #1000	; 0x3e8
 800050a:	fbb3 f3f0 	udiv	r3, r3, r0
 800050e:	6810      	ldr	r0, [r2, #0]
 8000510:	fbb0 f0f3 	udiv	r0, r0, r3
 8000514:	f000 f89c 	bl	8000650 <HAL_SYSTICK_Config>
 8000518:	4604      	mov	r4, r0
 800051a:	b958      	cbnz	r0, 8000534 <HAL_InitTick+0x38>
  {
    return HAL_ERROR;
  }

  /* Configure the SysTick IRQ priority */
  if (TickPriority < (1UL << __NVIC_PRIO_BITS))
 800051c:	2d0f      	cmp	r5, #15
 800051e:	d809      	bhi.n	8000534 <HAL_InitTick+0x38>
  {
    HAL_NVIC_SetPriority(SysTick_IRQn, TickPriority, 0U);
 8000520:	4602      	mov	r2, r0
 8000522:	4629      	mov	r1, r5
 8000524:	f04f 30ff 	mov.w	r0, #4294967295
 8000528:	f000 f85e 	bl	80005e8 <HAL_NVIC_SetPriority>
    uwTickPrio = TickPriority;
 800052c:	4b04      	ldr	r3, [pc, #16]	; (8000540 <HAL_InitTick+0x44>)
 800052e:	4620      	mov	r0, r4
 8000530:	601d      	str	r5, [r3, #0]
 8000532:	bd38      	pop	{r3, r4, r5, pc}
    return HAL_ERROR;
 8000534:	2001      	movs	r0, #1
    return HAL_ERROR;
  }

  /* Return function status */
  return HAL_OK;
}
 8000536:	bd38      	pop	{r3, r4, r5, pc}
 8000538:	20000008 	.word	0x20000008
 800053c:	20000000 	.word	0x20000000
 8000540:	20000004 	.word	0x20000004

08000544 <HAL_Init>:
{
 8000544:	b508      	push	{r3, lr}
  __HAL_FLASH_INSTRUCTION_CACHE_ENABLE();
 8000546:	4b0b      	ldr	r3, [pc, #44]	; (8000574 <HAL_Init+0x30>)
 8000548:	681a      	ldr	r2, [r3, #0]
 800054a:	f442 7200 	orr.w	r2, r2, #512	; 0x200
 800054e:	601a      	str	r2, [r3, #0]
  __HAL_FLASH_DATA_CACHE_ENABLE();
 8000550:	681a      	ldr	r2, [r3, #0]
 8000552:	f442 6280 	orr.w	r2, r2, #1024	; 0x400
 8000556:	601a      	str	r2, [r3, #0]
  __HAL_FLASH_PREFETCH_BUFFER_ENABLE();
 8000558:	681a      	ldr	r2, [r3, #0]
 800055a:	f442 7280 	orr.w	r2, r2, #256	; 0x100
 800055e:	601a      	str	r2, [r3, #0]
  HAL_NVIC_SetPriorityGrouping(NVIC_PRIORITYGROUP_4);
 8000560:	2003      	movs	r0, #3
 8000562:	f000 f82f 	bl	80005c4 <HAL_NVIC_SetPriorityGrouping>
  HAL_InitTick(TICK_INT_PRIORITY);
 8000566:	2000      	movs	r0, #0
 8000568:	f7ff ffc8 	bl	80004fc <HAL_InitTick>
  HAL_MspInit();
 800056c:	f001 fe56 	bl	800221c <HAL_MspInit>
}
 8000570:	2000      	movs	r0, #0
 8000572:	bd08      	pop	{r3, pc}
 8000574:	40023c00 	.word	0x40023c00

08000578 <HAL_IncTick>:
  *      implementations in user file.
  * @retval None
  */
__weak void HAL_IncTick(void)
{
  uwTick += uwTickFreq;
 8000578:	4a03      	ldr	r2, [pc, #12]	; (8000588 <HAL_IncTick+0x10>)
 800057a:	4b04      	ldr	r3, [pc, #16]	; (800058c <HAL_IncTick+0x14>)
 800057c:	6811      	ldr	r1, [r2, #0]
 800057e:	781b      	ldrb	r3, [r3, #0]
 8000580:	440b      	add	r3, r1
 8000582:	6013      	str	r3, [r2, #0]
 8000584:	4770      	bx	lr
 8000586:	bf00      	nop
 8000588:	20000028 	.word	0x20000028
 800058c:	20000000 	.word	0x20000000

08000590 <HAL_GetTick>:
  *       implementations in user file.
  * @retval tick value
  */
__weak uint32_t HAL_GetTick(void)
{
  return uwTick;
 8000590:	4b01      	ldr	r3, [pc, #4]	; (8000598 <HAL_GetTick+0x8>)
 8000592:	6818      	ldr	r0, [r3, #0]
}
 8000594:	4770      	bx	lr
 8000596:	bf00      	nop
 8000598:	20000028 	.word	0x20000028

0800059c <HAL_Delay>:
  *       implementations in user file.
  * @param Delay specifies the delay time length, in milliseconds.
  * @retval None
  */
__weak void HAL_Delay(uint32_t Delay)
{
 800059c:	b538      	push	{r3, r4, r5, lr}
 800059e:	4604      	mov	r4, r0
  uint32_t tickstart = HAL_GetTick();
 80005a0:	f7ff fff6 	bl	8000590 <HAL_GetTick>
  uint32_t wait = Delay;

  /* Add a freq to guarantee minimum wait */
  if (wait < HAL_MAX_DELAY)
 80005a4:	1c63      	adds	r3, r4, #1
  {
    wait += (uint32_t)(uwTickFreq);
 80005a6:	bf1c      	itt	ne
 80005a8:	4b05      	ldrne	r3, [pc, #20]	; (80005c0 <HAL_Delay+0x24>)
 80005aa:	781b      	ldrbne	r3, [r3, #0]
  uint32_t tickstart = HAL_GetTick();
 80005ac:	4605      	mov	r5, r0
    wait += (uint32_t)(uwTickFreq);
 80005ae:	bf18      	it	ne
 80005b0:	18e4      	addne	r4, r4, r3
  }

  while((HAL_GetTick() - tickstart) < wait)
 80005b2:	f7ff ffed 	bl	8000590 <HAL_GetTick>
 80005b6:	1b40      	subs	r0, r0, r5
 80005b8:	4284      	cmp	r4, r0
 80005ba:	d8fa      	bhi.n	80005b2 <HAL_Delay+0x16>
  {
  }
}
 80005bc:	bd38      	pop	{r3, r4, r5, pc}
 80005be:	bf00      	nop
 80005c0:	20000000 	.word	0x20000000

080005c4 <HAL_NVIC_SetPriorityGrouping>:
__STATIC_INLINE void __NVIC_SetPriorityGrouping(uint32_t PriorityGroup)
{
  uint32_t reg_value;
  uint32_t PriorityGroupTmp = (PriorityGroup & (uint32_t)0x07UL);             /* only values 0..7 are used          */

  reg_value  =  SCB->AIRCR;                                                   /* read old register configuration    */
 80005c4:	4a07      	ldr	r2, [pc, #28]	; (80005e4 <HAL_NVIC_SetPriorityGrouping+0x20>)
 80005c6:	68d3      	ldr	r3, [r2, #12]
  reg_value &= ~((uint32_t)(SCB_AIRCR_VECTKEY_Msk | SCB_AIRCR_PRIGROUP_Msk)); /* clear bits to change               */
 80005c8:	f423 63e0 	bic.w	r3, r3, #1792	; 0x700
 80005cc:	041b      	lsls	r3, r3, #16
 80005ce:	0c1b      	lsrs	r3, r3, #16
 80005d0:	f043 63bf 	orr.w	r3, r3, #100139008	; 0x5f80000
  reg_value  =  (reg_value                                   |
                ((uint32_t)0x5FAUL << SCB_AIRCR_VECTKEY_Pos) |
                (PriorityGroupTmp << SCB_AIRCR_PRIGROUP_Pos)  );              /* Insert write key and priority group */
 80005d4:	0200      	lsls	r0, r0, #8
 80005d6:	f443 3300 	orr.w	r3, r3, #131072	; 0x20000
 80005da:	f400 60e0 	and.w	r0, r0, #1792	; 0x700
  reg_value  =  (reg_value                                   |
 80005de:	4303      	orrs	r3, r0
  SCB->AIRCR =  reg_value;
 80005e0:	60d3      	str	r3, [r2, #12]
 80005e2:	4770      	bx	lr
 80005e4:	e000ed00 	.word	0xe000ed00

080005e8 <HAL_NVIC_SetPriority>:
  \details Reads the priority grouping field from the NVIC Interrupt Controller.
  \return                Priority grouping field (SCB->AIRCR [10:8] PRIGROUP field).
 */
__STATIC_INLINE uint32_t __NVIC_GetPriorityGrouping(void)
{
  return ((uint32_t)((SCB->AIRCR & SCB_AIRCR_PRIGROUP_Msk) >> SCB_AIRCR_PRIGROUP_Pos));
 80005e8:	4b17      	ldr	r3, [pc, #92]	; (8000648 <HAL_NVIC_SetPriority+0x60>)
  *         This parameter can be a value between 0 and 15
  *         A lower priority value indicates a higher priority.          
  * @retval None
  */
void HAL_NVIC_SetPriority(IRQn_Type IRQn, uint32_t PreemptPriority, uint32_t SubPriority)
{ 
 80005ea:	b530      	push	{r4, r5, lr}
 80005ec:	68dc      	ldr	r4, [r3, #12]
 80005ee:	f3c4 2402 	ubfx	r4, r4, #8, #3
{
  uint32_t PriorityGroupTmp = (PriorityGroup & (uint32_t)0x07UL);   /* only values 0..7 are used          */
  uint32_t PreemptPriorityBits;
  uint32_t SubPriorityBits;

  PreemptPriorityBits = ((7UL - PriorityGroupTmp) > (uint32_t)(__NVIC_PRIO_BITS)) ? (uint32_t)(__NVIC_PRIO_BITS) : (uint32_t)(7UL - PriorityGroupTmp);
 80005f2:	f1c4 0307 	rsb	r3, r4, #7
  SubPriorityBits     = ((PriorityGroupTmp + (uint32_t)(__NVIC_PRIO_BITS)) < (uint32_t)7UL) ? (uint32_t)0UL : (uint32_t)((PriorityGroupTmp - 7UL) + (uint32_t)(__NVIC_PRIO_BITS));
 80005f6:	1d25      	adds	r5, r4, #4
  PreemptPriorityBits = ((7UL - PriorityGroupTmp) > (uint32_t)(__NVIC_PRIO_BITS)) ? (uint32_t)(__NVIC_PRIO_BITS) : (uint32_t)(7UL - PriorityGroupTmp);
 80005f8:	2b04      	cmp	r3, #4
 80005fa:	bf28      	it	cs
 80005fc:	2304      	movcs	r3, #4
  SubPriorityBits     = ((PriorityGroupTmp + (uint32_t)(__NVIC_PRIO_BITS)) < (uint32_t)7UL) ? (uint32_t)0UL : (uint32_t)((PriorityGroupTmp - 7UL) + (uint32_t)(__NVIC_PRIO_BITS));
 80005fe:	2d06      	cmp	r5, #6

  return (
           ((PreemptPriority & (uint32_t)((1UL << (PreemptPriorityBits)) - 1UL)) << SubPriorityBits) |
 8000600:	f04f 0501 	mov.w	r5, #1
 8000604:	fa05 f303 	lsl.w	r3, r5, r3
 8000608:	f103 33ff 	add.w	r3, r3, #4294967295
  SubPriorityBits     = ((PriorityGroupTmp + (uint32_t)(__NVIC_PRIO_BITS)) < (uint32_t)7UL) ? (uint32_t)0UL : (uint32_t)((PriorityGroupTmp - 7UL) + (uint32_t)(__NVIC_PRIO_BITS));
 800060c:	bf8c      	ite	hi
 800060e:	3c03      	subhi	r4, #3
 8000610:	2400      	movls	r4, #0
           ((PreemptPriority & (uint32_t)((1UL << (PreemptPriorityBits)) - 1UL)) << SubPriorityBits) |
 8000612:	4019      	ands	r1, r3
 8000614:	40a1      	lsls	r1, r4
           ((SubPriority     & (uint32_t)((1UL << (SubPriorityBits    )) - 1UL)))
 8000616:	fa05 f404 	lsl.w	r4, r5, r4
 800061a:	3c01      	subs	r4, #1
 800061c:	4022      	ands	r2, r4
  if ((int32_t)(IRQn) >= 0)
 800061e:	2800      	cmp	r0, #0
           ((PreemptPriority & (uint32_t)((1UL << (PreemptPriorityBits)) - 1UL)) << SubPriorityBits) |
 8000620:	ea42 0201 	orr.w	r2, r2, r1
 8000624:	ea4f 1202 	mov.w	r2, r2, lsl #4
    NVIC->IP[((uint32_t)IRQn)]               = (uint8_t)((priority << (8U - __NVIC_PRIO_BITS)) & (uint32_t)0xFFUL);
 8000628:	bfad      	iteet	ge
 800062a:	f100 4060 	addge.w	r0, r0, #3758096384	; 0xe0000000
    SCB->SHP[(((uint32_t)IRQn) & 0xFUL)-4UL] = (uint8_t)((priority << (8U - __NVIC_PRIO_BITS)) & (uint32_t)0xFFUL);
 800062e:	f000 000f 	andlt.w	r0, r0, #15
 8000632:	4b06      	ldrlt	r3, [pc, #24]	; (800064c <HAL_NVIC_SetPriority+0x64>)
    NVIC->IP[((uint32_t)IRQn)]               = (uint8_t)((priority << (8U - __NVIC_PRIO_BITS)) & (uint32_t)0xFFUL);
 8000634:	f500 4061 	addge.w	r0, r0, #57600	; 0xe100
    SCB->SHP[(((uint32_t)IRQn) & 0xFUL)-4UL] = (uint8_t)((priority << (8U - __NVIC_PRIO_BITS)) & (uint32_t)0xFFUL);
 8000638:	bfb5      	itete	lt
 800063a:	b2d2      	uxtblt	r2, r2
    NVIC->IP[((uint32_t)IRQn)]               = (uint8_t)((priority << (8U - __NVIC_PRIO_BITS)) & (uint32_t)0xFFUL);
 800063c:	b2d2      	uxtbge	r2, r2
    SCB->SHP[(((uint32_t)IRQn) & 0xFUL)-4UL] = (uint8_t)((priority << (8U - __NVIC_PRIO_BITS)) & (uint32_t)0xFFUL);
 800063e:	541a      	strblt	r2, [r3, r0]
    NVIC->IP[((uint32_t)IRQn)]               = (uint8_t)((priority << (8U - __NVIC_PRIO_BITS)) & (uint32_t)0xFFUL);
 8000640:	f880 2300 	strbge.w	r2, [r0, #768]	; 0x300
 8000644:	bd30      	pop	{r4, r5, pc}
 8000646:	bf00      	nop
 8000648:	e000ed00 	.word	0xe000ed00
 800064c:	e000ed14 	.word	0xe000ed14

08000650 <HAL_SYSTICK_Config>:
           function <b>SysTick_Config</b> is not included. In this case, the file <b><i>device</i>.h</b>
           must contain a vendor-specific implementation of this function.
 */
__STATIC_INLINE uint32_t SysTick_Config(uint32_t ticks)
{
  if ((ticks - 1UL) > SysTick_LOAD_RELOAD_Msk)
 8000650:	3801      	subs	r0, #1
 8000652:	f1b0 7f80 	cmp.w	r0, #16777216	; 0x1000000
 8000656:	d20a      	bcs.n	800066e <HAL_SYSTICK_Config+0x1e>
  {
    return (1UL);                                                   /* Reload value impossible */
  }

  SysTick->LOAD  = (uint32_t)(ticks - 1UL);                         /* set reload register */
 8000658:	4b06      	ldr	r3, [pc, #24]	; (8000674 <HAL_SYSTICK_Config+0x24>)
    SCB->SHP[(((uint32_t)IRQn) & 0xFUL)-4UL] = (uint8_t)((priority << (8U - __NVIC_PRIO_BITS)) & (uint32_t)0xFFUL);
 800065a:	4a07      	ldr	r2, [pc, #28]	; (8000678 <HAL_SYSTICK_Config+0x28>)
  SysTick->LOAD  = (uint32_t)(ticks - 1UL);                         /* set reload register */
 800065c:	6058      	str	r0, [r3, #4]
    SCB->SHP[(((uint32_t)IRQn) & 0xFUL)-4UL] = (uint8_t)((priority << (8U - __NVIC_PRIO_BITS)) & (uint32_t)0xFFUL);
 800065e:	21f0      	movs	r1, #240	; 0xf0
 8000660:	f882 1023 	strb.w	r1, [r2, #35]	; 0x23
  NVIC_SetPriority (SysTick_IRQn, (1UL << __NVIC_PRIO_BITS) - 1UL); /* set Priority for Systick Interrupt */
  SysTick->VAL   = 0UL;                                             /* Load the SysTick Counter Value */
 8000664:	2000      	movs	r0, #0
  SysTick->CTRL  = SysTick_CTRL_CLKSOURCE_Msk |
 8000666:	2207      	movs	r2, #7
  SysTick->VAL   = 0UL;                                             /* Load the SysTick Counter Value */
 8000668:	6098      	str	r0, [r3, #8]
  SysTick->CTRL  = SysTick_CTRL_CLKSOURCE_Msk |
 800066a:	601a      	str	r2, [r3, #0]
 800066c:	4770      	bx	lr
    return (1UL);                                                   /* Reload value impossible */
 800066e:	2001      	movs	r0, #1
  *                  - 1  Function failed.
  */
uint32_t HAL_SYSTICK_Config(uint32_t TicksNumb)
{
   return SysTick_Config(TicksNumb);
}
 8000670:	4770      	bx	lr
 8000672:	bf00      	nop
 8000674:	e000e010 	.word	0xe000e010
 8000678:	e000ed00 	.word	0xe000ed00

0800067c <ETH_MACDMAConfig>:
  *         the configuration information for ETHERNET module
  * @param  err Ethernet Init error
  * @retval HAL status
  */
static void ETH_MACDMAConfig(ETH_HandleTypeDef *heth, uint32_t err)
{
 800067c:	b570      	push	{r4, r5, r6, lr}
 800067e:	4604      	mov	r4, r0
  ETH_MACInitTypeDef macinit;
  ETH_DMAInitTypeDef dmainit;
  uint32_t tmpreg1 = 0U;
  
  if (err != ETH_SUCCESS) /* Auto-negotiation failed */
 8000680:	b129      	cbz	r1, 800068e <ETH_MACDMAConfig+0x12>
  {
    /* Set Ethernet duplex mode to Full-duplex */
    (heth->Init).DuplexMode = ETH_MODE_FULLDUPLEX;
 8000682:	f44f 6300 	mov.w	r3, #2048	; 0x800
 8000686:	60c3      	str	r3, [r0, #12]
    
    /* Set Ethernet speed to 100M */
    (heth->Init).Speed = ETH_SPEED_100M;
 8000688:	f44f 4380 	mov.w	r3, #16384	; 0x4000
 800068c:	6083      	str	r3, [r0, #8]
  macinit.Jabber = ETH_JABBER_ENABLE;
  macinit.InterFrameGap = ETH_INTERFRAMEGAP_96BIT;
  macinit.CarrierSense = ETH_CARRIERSENCE_ENABLE;
  macinit.ReceiveOwn = ETH_RECEIVEOWN_ENABLE;
  macinit.LoopbackMode = ETH_LOOPBACKMODE_DISABLE;
  if(heth->Init.ChecksumMode == ETH_CHECKSUM_BY_HARDWARE)
 800068e:	69e3      	ldr	r3, [r4, #28]
  macinit.VLANTagComparison = ETH_VLANTAGCOMPARISON_16BIT;
  macinit.VLANTagIdentifier = 0x0U;
  
  /*------------------------ ETHERNET MACCR Configuration --------------------*/
  /* Get the ETHERNET MACCR value */
  tmpreg1 = (heth->Instance)->MACCR;
 8000690:	6822      	ldr	r2, [r4, #0]
                       macinit.Jabber | 
                       macinit.InterFrameGap |
                       macinit.CarrierSense |
                       (heth->Init).Speed | 
                       macinit.ReceiveOwn |
                       macinit.LoopbackMode |
 8000692:	68e0      	ldr	r0, [r4, #12]
  tmpreg1 = (heth->Instance)->MACCR;
 8000694:	6815      	ldr	r5, [r2, #0]
    macinit.ChecksumOffload = ETH_CHECKSUMOFFLAOD_DISABLE;
 8000696:	2b00      	cmp	r3, #0
                       macinit.LoopbackMode |
 8000698:	68a3      	ldr	r3, [r4, #8]
 800069a:	ea43 0300 	orr.w	r3, r3, r0
  tmpreg1 &= ETH_MACCR_CLEAR_MASK;
 800069e:	4830      	ldr	r0, [pc, #192]	; (8000760 <ETH_MACDMAConfig+0xe4>)
 80006a0:	f443 7300 	orr.w	r3, r3, #512	; 0x200
 80006a4:	ea00 0005 	and.w	r0, r0, r5
    macinit.ChecksumOffload = ETH_CHECKSUMOFFLAOD_DISABLE;
 80006a8:	bf0c      	ite	eq
 80006aa:	f44f 6180 	moveq.w	r1, #1024	; 0x400
 80006ae:	2100      	movne	r1, #0
 80006b0:	4303      	orrs	r3, r0
  tmpreg1 |= (uint32_t)(macinit.Watchdog | 
 80006b2:	430b      	orrs	r3, r1
                       macinit.AutomaticPadCRCStrip | 
                       macinit.BackOffLimit | 
                       macinit.DeferralCheck);
  
  /* Write to ETHERNET MACCR */
  (heth->Instance)->MACCR = (uint32_t)tmpreg1;
 80006b4:	6013      	str	r3, [r2, #0]
  
  /* Wait until the write operation will be taken into account:
     at least four TX_CLK/RX_CLK clock cycles */
  tmpreg1 = (heth->Instance)->MACCR;
  HAL_Delay(ETH_REG_WRITE_DELAY);
 80006b6:	2001      	movs	r0, #1
  tmpreg1 = (heth->Instance)->MACCR;
 80006b8:	6815      	ldr	r5, [r2, #0]
  HAL_Delay(ETH_REG_WRITE_DELAY);
 80006ba:	f7ff ff6f 	bl	800059c <HAL_Delay>
  (heth->Instance)->MACCR = tmpreg1; 
 80006be:	6823      	ldr	r3, [r4, #0]
  /* Set the DAIF bit according to ETH DestinationAddrFilter value */
  /* Set the PR bit according to ETH PromiscuousMode value */
  /* Set the PM, HMC and HPF bits according to ETH MulticastFramesFilter value */
  /* Set the HUC and HPF bits according to ETH UnicastFramesFilter value */
  /* Write to ETHERNET MACFFR */  
  (heth->Instance)->MACFFR = (uint32_t)(macinit.ReceiveAll | 
 80006c0:	2240      	movs	r2, #64	; 0x40
  (heth->Instance)->MACCR = tmpreg1; 
 80006c2:	601d      	str	r5, [r3, #0]
                                        macinit.UnicastFramesFilter);
   
   /* Wait until the write operation will be taken into account:
      at least four TX_CLK/RX_CLK clock cycles */
   tmpreg1 = (heth->Instance)->MACFFR;
   HAL_Delay(ETH_REG_WRITE_DELAY);
 80006c4:	2001      	movs	r0, #1
  (heth->Instance)->MACFFR = (uint32_t)(macinit.ReceiveAll | 
 80006c6:	605a      	str	r2, [r3, #4]
   tmpreg1 = (heth->Instance)->MACFFR;
 80006c8:	685d      	ldr	r5, [r3, #4]
   HAL_Delay(ETH_REG_WRITE_DELAY);
 80006ca:	f7ff ff67 	bl	800059c <HAL_Delay>
   (heth->Instance)->MACFFR = tmpreg1;
 80006ce:	6823      	ldr	r3, [r4, #0]
 80006d0:	605d      	str	r5, [r3, #4]
   
   /*--------------- ETHERNET MACHTHR and MACHTLR Configuration --------------*/
   /* Write to ETHERNET MACHTHR */
   (heth->Instance)->MACHTHR = (uint32_t)macinit.HashTableHigh;
 80006d2:	2500      	movs	r5, #0
 80006d4:	609d      	str	r5, [r3, #8]
   
   /* Write to ETHERNET MACHTLR */
   (heth->Instance)->MACHTLR = (uint32_t)macinit.HashTableLow;
 80006d6:	60dd      	str	r5, [r3, #12]
   /*----------------------- ETHERNET MACFCR Configuration -------------------*/
   
   /* Get the ETHERNET MACFCR value */  
   tmpreg1 = (heth->Instance)->MACFCR;
 80006d8:	699a      	ldr	r2, [r3, #24]
   /* Clear xx bits */
   tmpreg1 &= ETH_MACFCR_CLEAR_MASK;
 80006da:	f022 02be 	bic.w	r2, r2, #190	; 0xbe
 80006de:	0412      	lsls	r2, r2, #16
 80006e0:	0c12      	lsrs	r2, r2, #16
   /* Set the DZPQ bit according to ETH ZeroQuantaPause value */
   /* Set the PLT bit according to ETH PauseLowThreshold value */
   /* Set the UP bit according to ETH UnicastPauseFrameDetect value */
   /* Set the RFE bit according to ETH ReceiveFlowControl value */
   /* Set the TFE bit according to ETH TransmitFlowControl value */ 
   tmpreg1 |= (uint32_t)((macinit.PauseTime << 16U) | 
 80006e2:	f042 0280 	orr.w	r2, r2, #128	; 0x80
                        macinit.UnicastPauseFrameDetect | 
                        macinit.ReceiveFlowControl |
                        macinit.TransmitFlowControl); 
   
   /* Write to ETHERNET MACFCR */
   (heth->Instance)->MACFCR = (uint32_t)tmpreg1;
 80006e6:	619a      	str	r2, [r3, #24]
   
   /* Wait until the write operation will be taken into account:
   at least four TX_CLK/RX_CLK clock cycles */
   tmpreg1 = (heth->Instance)->MACFCR;
   HAL_Delay(ETH_REG_WRITE_DELAY);
 80006e8:	2001      	movs	r0, #1
   tmpreg1 = (heth->Instance)->MACFCR;
 80006ea:	699e      	ldr	r6, [r3, #24]
   HAL_Delay(ETH_REG_WRITE_DELAY);
 80006ec:	f7ff ff56 	bl	800059c <HAL_Delay>
   (heth->Instance)->MACFCR = tmpreg1;
 80006f0:	6823      	ldr	r3, [r4, #0]
                                            macinit.VLANTagIdentifier);
    
    /* Wait until the write operation will be taken into account:
       at least four TX_CLK/RX_CLK clock cycles */
    tmpreg1 = (heth->Instance)->MACVLANTR;
    HAL_Delay(ETH_REG_WRITE_DELAY);
 80006f2:	2001      	movs	r0, #1
   (heth->Instance)->MACFCR = tmpreg1;
 80006f4:	619e      	str	r6, [r3, #24]
   (heth->Instance)->MACVLANTR = (uint32_t)(macinit.VLANTagComparison | 
 80006f6:	61dd      	str	r5, [r3, #28]
    tmpreg1 = (heth->Instance)->MACVLANTR;
 80006f8:	69dd      	ldr	r5, [r3, #28]
    HAL_Delay(ETH_REG_WRITE_DELAY);
 80006fa:	f7ff ff4f 	bl	800059c <HAL_Delay>
    (heth->Instance)->MACVLANTR = tmpreg1;
 80006fe:	6822      	ldr	r2, [r4, #0]
    dmainit.DMAArbitration = ETH_DMAARBITRATION_ROUNDROBIN_RXTX_1_1;
    
    /* Get the ETHERNET DMAOMR value */
    tmpreg1 = (heth->Instance)->DMAOMR;
    /* Clear xx bits */
    tmpreg1 &= ETH_DMAOMR_CLEAR_MASK;
 8000700:	4b18      	ldr	r3, [pc, #96]	; (8000764 <ETH_MACDMAConfig+0xe8>)
    (heth->Instance)->MACVLANTR = tmpreg1;
 8000702:	61d5      	str	r5, [r2, #28]
    tmpreg1 = (heth->Instance)->DMAOMR;
 8000704:	f241 0518 	movw	r5, #4120	; 0x1018
    (heth->Instance)->DMAOMR = (uint32_t)tmpreg1;
    
    /* Wait until the write operation will be taken into account:
       at least four TX_CLK/RX_CLK clock cycles */
    tmpreg1 = (heth->Instance)->DMAOMR;
    HAL_Delay(ETH_REG_WRITE_DELAY);
 8000708:	2001      	movs	r0, #1
    tmpreg1 = (heth->Instance)->DMAOMR;
 800070a:	5951      	ldr	r1, [r2, r5]
    tmpreg1 &= ETH_DMAOMR_CLEAR_MASK;
 800070c:	400b      	ands	r3, r1
    tmpreg1 |= (uint32_t)(dmainit.DropTCPIPChecksumErrorFrame | 
 800070e:	f043 7308 	orr.w	r3, r3, #35651584	; 0x2200000
 8000712:	f043 0304 	orr.w	r3, r3, #4
    (heth->Instance)->DMAOMR = (uint32_t)tmpreg1;
 8000716:	5153      	str	r3, [r2, r5]
    tmpreg1 = (heth->Instance)->DMAOMR;
 8000718:	5956      	ldr	r6, [r2, r5]
    HAL_Delay(ETH_REG_WRITE_DELAY);
 800071a:	f7ff ff3f 	bl	800059c <HAL_Delay>
    (heth->Instance)->DMAOMR = tmpreg1;
 800071e:	6823      	ldr	r3, [r4, #0]
    /* Set the RPBL and 4*PBL bits according to ETH RxDMABurstLength value */
    /* Set the PBL and 4*PBL bits according to ETH TxDMABurstLength value */
    /* Set the Enhanced DMA descriptors bit according to ETH EnhancedDescriptorFormat value*/
    /* Set the DSL bit according to ETH DesciptorSkipLength value */
    /* Set the PR and DA bits according to ETH DMAArbitration value */
    (heth->Instance)->DMABMR = (uint32_t)(dmainit.AddressAlignedBeats | 
 8000720:	4a11      	ldr	r2, [pc, #68]	; (8000768 <ETH_MACDMAConfig+0xec>)
    (heth->Instance)->DMAOMR = tmpreg1;
 8000722:	515e      	str	r6, [r3, r5]
    (heth->Instance)->DMABMR = (uint32_t)(dmainit.AddressAlignedBeats | 
 8000724:	f503 5380 	add.w	r3, r3, #4096	; 0x1000
                                          ETH_DMABMR_USP); /* Enable use of separate PBL for Rx and Tx */
     
     /* Wait until the write operation will be taken into account:
        at least four TX_CLK/RX_CLK clock cycles */
     tmpreg1 = (heth->Instance)->DMABMR;
     HAL_Delay(ETH_REG_WRITE_DELAY);
 8000728:	2001      	movs	r0, #1
    (heth->Instance)->DMABMR = (uint32_t)(dmainit.AddressAlignedBeats | 
 800072a:	601a      	str	r2, [r3, #0]
     tmpreg1 = (heth->Instance)->DMABMR;
 800072c:	681d      	ldr	r5, [r3, #0]
     HAL_Delay(ETH_REG_WRITE_DELAY);
 800072e:	f7ff ff35 	bl	800059c <HAL_Delay>
     (heth->Instance)->DMABMR = tmpreg1;
 8000732:	6822      	ldr	r2, [r4, #0]
 8000734:	f502 5380 	add.w	r3, r2, #4096	; 0x1000
 8000738:	601d      	str	r5, [r3, #0]

     if((heth->Init).RxMode == ETH_RXINTERRUPT_MODE)
 800073a:	69a3      	ldr	r3, [r4, #24]
 800073c:	2b01      	cmp	r3, #1
 800073e:	d107      	bne.n	8000750 <ETH_MACDMAConfig+0xd4>
     {
       /* Enable the Ethernet Rx Interrupt */
       __HAL_ETH_DMA_ENABLE_IT((heth), ETH_DMA_IT_NIS | ETH_DMA_IT_R);
 8000740:	f241 011c 	movw	r1, #4124	; 0x101c
 8000744:	5853      	ldr	r3, [r2, r1]
 8000746:	f443 3380 	orr.w	r3, r3, #65536	; 0x10000
 800074a:	f043 0340 	orr.w	r3, r3, #64	; 0x40
 800074e:	5053      	str	r3, [r2, r1]
     }

     /* Initialize MAC address in ethernet MAC */ 
     ETH_MACAddressConfig(heth, ETH_MAC_ADDRESS0, heth->Init.MACAddr);
 8000750:	6963      	ldr	r3, [r4, #20]
  assert_param(IS_ETH_MAC_ADDRESS0123(MacAddr));
  
  /* Calculate the selected MAC address high register */
  tmpreg1 = ((uint32_t)Addr[5U] << 8U) | (uint32_t)Addr[4U];
  /* Load the selected MAC address high register */
  (*(__IO uint32_t *)((uint32_t)(ETH_MAC_ADDR_HBASE + MacAddr))) = tmpreg1;
 8000752:	4a06      	ldr	r2, [pc, #24]	; (800076c <ETH_MACDMAConfig+0xf0>)
  tmpreg1 = ((uint32_t)Addr[5U] << 8U) | (uint32_t)Addr[4U];
 8000754:	8899      	ldrh	r1, [r3, #4]
  (*(__IO uint32_t *)((uint32_t)(ETH_MAC_ADDR_HBASE + MacAddr))) = tmpreg1;
 8000756:	6011      	str	r1, [r2, #0]
  /* Calculate the selected MAC address low register */
  tmpreg1 = ((uint32_t)Addr[3U] << 24U) | ((uint32_t)Addr[2U] << 16U) | ((uint32_t)Addr[1U] << 8U) | Addr[0U];
 8000758:	681a      	ldr	r2, [r3, #0]
  
  /* Load the selected MAC address low register */
  (*(__IO uint32_t *)((uint32_t)(ETH_MAC_ADDR_LBASE + MacAddr))) = tmpreg1;
 800075a:	4b05      	ldr	r3, [pc, #20]	; (8000770 <ETH_MACDMAConfig+0xf4>)
 800075c:	601a      	str	r2, [r3, #0]
 800075e:	bd70      	pop	{r4, r5, r6, pc}
 8000760:	ff20810f 	.word	0xff20810f
 8000764:	f8de3f23 	.word	0xf8de3f23
 8000768:	02c12080 	.word	0x02c12080
 800076c:	40028040 	.word	0x40028040
 8000770:	40028044 	.word	0x40028044

08000774 <HAL_ETH_ReadPHYRegister>:
{
 8000774:	b5f8      	push	{r3, r4, r5, r6, r7, lr}
  if(heth->State == HAL_ETH_STATE_BUSY_RD)
 8000776:	f890 3044 	ldrb.w	r3, [r0, #68]	; 0x44
 800077a:	2b82      	cmp	r3, #130	; 0x82
{
 800077c:	4605      	mov	r5, r0
 800077e:	4616      	mov	r6, r2
  if(heth->State == HAL_ETH_STATE_BUSY_RD)
 8000780:	d030      	beq.n	80007e4 <HAL_ETH_ReadPHYRegister+0x70>
  tmpreg1 = heth->Instance->MACMIIAR;
 8000782:	6802      	ldr	r2, [r0, #0]
  heth->State = HAL_ETH_STATE_BUSY_RD;
 8000784:	2382      	movs	r3, #130	; 0x82
 8000786:	f880 3044 	strb.w	r3, [r0, #68]	; 0x44
  tmpreg1 = heth->Instance->MACMIIAR;
 800078a:	6913      	ldr	r3, [r2, #16]
  tmpreg1 |=(((uint32_t)PHYReg<<6U) & ETH_MACMIIAR_MR);                   /* Set the PHY register address */
 800078c:	0189      	lsls	r1, r1, #6
 800078e:	f401 64f8 	and.w	r4, r1, #1984	; 0x7c0
  tmpreg1 &= ~ETH_MACMIIAR_CR_MASK;
 8000792:	f003 011c 	and.w	r1, r3, #28
 8000796:	4321      	orrs	r1, r4
  tmpreg1 |=(((uint32_t)heth->Init.PhyAddress << 11U) & ETH_MACMIIAR_PA); /* Set the PHY device address   */
 8000798:	8a04      	ldrh	r4, [r0, #16]
 800079a:	02e4      	lsls	r4, r4, #11
 800079c:	b2a4      	uxth	r4, r4
  tmpreg1 &= ~ETH_MACMIIAR_MW;                                            /* Set the read mode            */
 800079e:	430c      	orrs	r4, r1
  tmpreg1 |= ETH_MACMIIAR_MB;                                             /* Set the MII Busy bit         */
 80007a0:	f044 0401 	orr.w	r4, r4, #1
  heth->Instance->MACMIIAR = tmpreg1;
 80007a4:	6114      	str	r4, [r2, #16]
  tickstart = HAL_GetTick();
 80007a6:	f7ff fef3 	bl	8000590 <HAL_GetTick>
 80007aa:	4607      	mov	r7, r0
  while((tmpreg1 & ETH_MACMIIAR_MB) == ETH_MACMIIAR_MB)
 80007ac:	f014 0001 	ands.w	r0, r4, #1
 80007b0:	d107      	bne.n	80007c2 <HAL_ETH_ReadPHYRegister+0x4e>
  *RegValue = (uint16_t)(heth->Instance->MACMIIDR);
 80007b2:	682b      	ldr	r3, [r5, #0]
 80007b4:	695b      	ldr	r3, [r3, #20]
 80007b6:	b29b      	uxth	r3, r3
 80007b8:	6033      	str	r3, [r6, #0]
  heth->State = HAL_ETH_STATE_READY;
 80007ba:	2301      	movs	r3, #1
 80007bc:	f885 3044 	strb.w	r3, [r5, #68]	; 0x44
 80007c0:	bdf8      	pop	{r3, r4, r5, r6, r7, pc}
    if((HAL_GetTick() - tickstart ) > PHY_READ_TO)
 80007c2:	f7ff fee5 	bl	8000590 <HAL_GetTick>
 80007c6:	1bc0      	subs	r0, r0, r7
 80007c8:	f5b0 3f80 	cmp.w	r0, #65536	; 0x10000
 80007cc:	d307      	bcc.n	80007de <HAL_ETH_ReadPHYRegister+0x6a>
      heth->State= HAL_ETH_STATE_READY;
 80007ce:	2301      	movs	r3, #1
 80007d0:	f885 3044 	strb.w	r3, [r5, #68]	; 0x44
      __HAL_UNLOCK(heth);
 80007d4:	2300      	movs	r3, #0
 80007d6:	f885 3045 	strb.w	r3, [r5, #69]	; 0x45
      return HAL_TIMEOUT;
 80007da:	2003      	movs	r0, #3
 80007dc:	bdf8      	pop	{r3, r4, r5, r6, r7, pc}
    tmpreg1 = heth->Instance->MACMIIAR;
 80007de:	682b      	ldr	r3, [r5, #0]
 80007e0:	691c      	ldr	r4, [r3, #16]
 80007e2:	e7e3      	b.n	80007ac <HAL_ETH_ReadPHYRegister+0x38>
    return HAL_BUSY;
 80007e4:	2002      	movs	r0, #2
}
 80007e6:	bdf8      	pop	{r3, r4, r5, r6, r7, pc}

080007e8 <HAL_ETH_WritePHYRegister>:
  if(heth->State == HAL_ETH_STATE_BUSY_WR)
 80007e8:	f890 3044 	ldrb.w	r3, [r0, #68]	; 0x44
 80007ec:	2b42      	cmp	r3, #66	; 0x42
{
 80007ee:	b570      	push	{r4, r5, r6, lr}
 80007f0:	4605      	mov	r5, r0
  if(heth->State == HAL_ETH_STATE_BUSY_WR)
 80007f2:	d02e      	beq.n	8000852 <HAL_ETH_WritePHYRegister+0x6a>
  heth->State = HAL_ETH_STATE_BUSY_WR;
 80007f4:	2342      	movs	r3, #66	; 0x42
 80007f6:	f880 3044 	strb.w	r3, [r0, #68]	; 0x44
  tmpreg1 = heth->Instance->MACMIIAR;
 80007fa:	6803      	ldr	r3, [r0, #0]
  tmpreg1 |=(((uint32_t)PHYReg<<6U) & ETH_MACMIIAR_MR);                 /* Set the PHY register address */
 80007fc:	018c      	lsls	r4, r1, #6
  tmpreg1 = heth->Instance->MACMIIAR;
 80007fe:	6918      	ldr	r0, [r3, #16]
  tmpreg1 |=(((uint32_t)PHYReg<<6U) & ETH_MACMIIAR_MR);                 /* Set the PHY register address */
 8000800:	f404 64f8 	and.w	r4, r4, #1984	; 0x7c0
 8000804:	f044 0403 	orr.w	r4, r4, #3
  tmpreg1 &= ~ETH_MACMIIAR_CR_MASK;
 8000808:	f000 001c 	and.w	r0, r0, #28
 800080c:	4320      	orrs	r0, r4
  tmpreg1 |=(((uint32_t)heth->Init.PhyAddress<<11U) & ETH_MACMIIAR_PA); /* Set the PHY device address */
 800080e:	8a2c      	ldrh	r4, [r5, #16]
 8000810:	02e4      	lsls	r4, r4, #11
 8000812:	b2a4      	uxth	r4, r4
  tmpreg1 |= ETH_MACMIIAR_MB;                                           /* Set the MII Busy bit */
 8000814:	4304      	orrs	r4, r0
 8000816:	b292      	uxth	r2, r2
  heth->Instance->MACMIIDR = (uint16_t)RegValue;
 8000818:	615a      	str	r2, [r3, #20]
  heth->Instance->MACMIIAR = tmpreg1;
 800081a:	611c      	str	r4, [r3, #16]
  tickstart = HAL_GetTick();
 800081c:	f7ff feb8 	bl	8000590 <HAL_GetTick>
 8000820:	4606      	mov	r6, r0
  while((tmpreg1 & ETH_MACMIIAR_MB) == ETH_MACMIIAR_MB)
 8000822:	f014 0001 	ands.w	r0, r4, #1
 8000826:	d103      	bne.n	8000830 <HAL_ETH_WritePHYRegister+0x48>
  heth->State = HAL_ETH_STATE_READY;
 8000828:	2301      	movs	r3, #1
 800082a:	f885 3044 	strb.w	r3, [r5, #68]	; 0x44
 800082e:	bd70      	pop	{r4, r5, r6, pc}
    if((HAL_GetTick() - tickstart ) > PHY_WRITE_TO)
 8000830:	f7ff feae 	bl	8000590 <HAL_GetTick>
 8000834:	1b80      	subs	r0, r0, r6
 8000836:	f5b0 3f80 	cmp.w	r0, #65536	; 0x10000
 800083a:	d307      	bcc.n	800084c <HAL_ETH_WritePHYRegister+0x64>
      heth->State= HAL_ETH_STATE_READY;
 800083c:	2301      	movs	r3, #1
 800083e:	f885 3044 	strb.w	r3, [r5, #68]	; 0x44
      __HAL_UNLOCK(heth);
 8000842:	2300      	movs	r3, #0
 8000844:	f885 3045 	strb.w	r3, [r5, #69]	; 0x45
      return HAL_TIMEOUT;
 8000848:	2003      	movs	r0, #3
 800084a:	bd70      	pop	{r4, r5, r6, pc}
    tmpreg1 = heth->Instance->MACMIIAR;
 800084c:	682b      	ldr	r3, [r5, #0]
 800084e:	691c      	ldr	r4, [r3, #16]
 8000850:	e7e7      	b.n	8000822 <HAL_ETH_WritePHYRegister+0x3a>
    return HAL_BUSY;
 8000852:	2002      	movs	r0, #2
}
 8000854:	bd70      	pop	{r4, r5, r6, pc}
	...

08000858 <HAL_ETH_Init>:
{
 8000858:	b5f7      	push	{r0, r1, r2, r4, r5, r6, r7, lr}
  uint32_t tmpreg1 = 0U, phyreg = 0U;
 800085a:	2300      	movs	r3, #0
 800085c:	9300      	str	r3, [sp, #0]
  if(heth == NULL)
 800085e:	4604      	mov	r4, r0
 8000860:	2800      	cmp	r0, #0
 8000862:	f000 80de 	beq.w	8000a22 <HAL_ETH_Init+0x1ca>
  if(heth->State == HAL_ETH_STATE_RESET)
 8000866:	f890 3044 	ldrb.w	r3, [r0, #68]	; 0x44
 800086a:	f003 02ff 	and.w	r2, r3, #255	; 0xff
 800086e:	b91b      	cbnz	r3, 8000878 <HAL_ETH_Init+0x20>
    heth->Lock = HAL_UNLOCKED;
 8000870:	f880 2045 	strb.w	r2, [r0, #69]	; 0x45
    HAL_ETH_MspInit(heth);
 8000874:	f001 fcee 	bl	8002254 <HAL_ETH_MspInit>
  __HAL_RCC_SYSCFG_CLK_ENABLE();
 8000878:	2300      	movs	r3, #0
 800087a:	9301      	str	r3, [sp, #4]
 800087c:	4b6a      	ldr	r3, [pc, #424]	; (8000a28 <HAL_ETH_Init+0x1d0>)
 800087e:	6c5a      	ldr	r2, [r3, #68]	; 0x44
 8000880:	f442 4280 	orr.w	r2, r2, #16384	; 0x4000
 8000884:	645a      	str	r2, [r3, #68]	; 0x44
 8000886:	6c5b      	ldr	r3, [r3, #68]	; 0x44
 8000888:	f403 4380 	and.w	r3, r3, #16384	; 0x4000
 800088c:	9301      	str	r3, [sp, #4]
 800088e:	9b01      	ldr	r3, [sp, #4]
  SYSCFG->PMC &= ~(SYSCFG_PMC_MII_RMII_SEL);
 8000890:	4b66      	ldr	r3, [pc, #408]	; (8000a2c <HAL_ETH_Init+0x1d4>)
 8000892:	685a      	ldr	r2, [r3, #4]
 8000894:	f422 0200 	bic.w	r2, r2, #8388608	; 0x800000
 8000898:	605a      	str	r2, [r3, #4]
  SYSCFG->PMC |= (uint32_t)heth->Init.MediaInterface;
 800089a:	685a      	ldr	r2, [r3, #4]
 800089c:	6a21      	ldr	r1, [r4, #32]
 800089e:	430a      	orrs	r2, r1
 80008a0:	605a      	str	r2, [r3, #4]
  (heth->Instance)->DMABMR |= ETH_DMABMR_SR;
 80008a2:	6823      	ldr	r3, [r4, #0]
 80008a4:	f503 5380 	add.w	r3, r3, #4096	; 0x1000
 80008a8:	681a      	ldr	r2, [r3, #0]
 80008aa:	f042 0201 	orr.w	r2, r2, #1
 80008ae:	601a      	str	r2, [r3, #0]
  tickstart = HAL_GetTick();
 80008b0:	f7ff fe6e 	bl	8000590 <HAL_GetTick>
 80008b4:	4605      	mov	r5, r0
  while (((heth->Instance)->DMABMR & ETH_DMABMR_SR) != (uint32_t)RESET)
 80008b6:	6823      	ldr	r3, [r4, #0]
 80008b8:	f503 5280 	add.w	r2, r3, #4096	; 0x1000
 80008bc:	6812      	ldr	r2, [r2, #0]
 80008be:	07d0      	lsls	r0, r2, #31
 80008c0:	d41d      	bmi.n	80008fe <HAL_ETH_Init+0xa6>
  tmpreg1 = (heth->Instance)->MACMIIAR;
 80008c2:	691d      	ldr	r5, [r3, #16]
  hclk = HAL_RCC_GetHCLKFreq();
 80008c4:	f001 f914 	bl	8001af0 <HAL_RCC_GetHCLKFreq>
  if((hclk >= 20000000U)&&(hclk < 35000000U))
 80008c8:	4b59      	ldr	r3, [pc, #356]	; (8000a30 <HAL_ETH_Init+0x1d8>)
 80008ca:	4a5a      	ldr	r2, [pc, #360]	; (8000a34 <HAL_ETH_Init+0x1dc>)
 80008cc:	4403      	add	r3, r0
 80008ce:	4293      	cmp	r3, r2
  tmpreg1 &= ETH_MACMIIAR_CR_MASK;
 80008d0:	f025 051c 	bic.w	r5, r5, #28
  if((hclk >= 20000000U)&&(hclk < 35000000U))
 80008d4:	d822      	bhi.n	800091c <HAL_ETH_Init+0xc4>
    tmpreg1 |= (uint32_t)ETH_MACMIIAR_CR_Div16;
 80008d6:	f045 0508 	orr.w	r5, r5, #8
  (heth->Instance)->MACMIIAR = (uint32_t)tmpreg1;
 80008da:	6823      	ldr	r3, [r4, #0]
  if((HAL_ETH_WritePHYRegister(heth, PHY_BCR, PHY_RESET)) != HAL_OK)
 80008dc:	f44f 4200 	mov.w	r2, #32768	; 0x8000
  (heth->Instance)->MACMIIAR = (uint32_t)tmpreg1;
 80008e0:	611d      	str	r5, [r3, #16]
  if((HAL_ETH_WritePHYRegister(heth, PHY_BCR, PHY_RESET)) != HAL_OK)
 80008e2:	2100      	movs	r1, #0
 80008e4:	4620      	mov	r0, r4
 80008e6:	f7ff ff7f 	bl	80007e8 <HAL_ETH_WritePHYRegister>
 80008ea:	4605      	mov	r5, r0
 80008ec:	b368      	cbz	r0, 800094a <HAL_ETH_Init+0xf2>
      ETH_MACDMAConfig(heth, err);
 80008ee:	2101      	movs	r1, #1
 80008f0:	4620      	mov	r0, r4
      heth->State = HAL_ETH_STATE_READY;
 80008f2:	2501      	movs	r5, #1
      ETH_MACDMAConfig(heth, err);
 80008f4:	f7ff fec2 	bl	800067c <ETH_MACDMAConfig>
      heth->State = HAL_ETH_STATE_READY;
 80008f8:	f884 5044 	strb.w	r5, [r4, #68]	; 0x44
      return HAL_ERROR;
 80008fc:	e00b      	b.n	8000916 <HAL_ETH_Init+0xbe>
    if((HAL_GetTick() - tickstart ) > ETH_TIMEOUT_SWRESET)
 80008fe:	f7ff fe47 	bl	8000590 <HAL_GetTick>
 8000902:	1b40      	subs	r0, r0, r5
 8000904:	f5b0 7ffa 	cmp.w	r0, #500	; 0x1f4
 8000908:	d9d5      	bls.n	80008b6 <HAL_ETH_Init+0x5e>
      heth->State= HAL_ETH_STATE_TIMEOUT;
 800090a:	2503      	movs	r5, #3
      __HAL_UNLOCK(heth);
 800090c:	2300      	movs	r3, #0
      heth->State= HAL_ETH_STATE_TIMEOUT;
 800090e:	f884 5044 	strb.w	r5, [r4, #68]	; 0x44
      __HAL_UNLOCK(heth);
 8000912:	f884 3045 	strb.w	r3, [r4, #69]	; 0x45
}
 8000916:	4628      	mov	r0, r5
 8000918:	b003      	add	sp, #12
 800091a:	bdf0      	pop	{r4, r5, r6, r7, pc}
  else if((hclk >= 35000000U)&&(hclk < 60000000U))
 800091c:	4b46      	ldr	r3, [pc, #280]	; (8000a38 <HAL_ETH_Init+0x1e0>)
 800091e:	4a47      	ldr	r2, [pc, #284]	; (8000a3c <HAL_ETH_Init+0x1e4>)
 8000920:	4403      	add	r3, r0
 8000922:	4293      	cmp	r3, r2
 8000924:	d802      	bhi.n	800092c <HAL_ETH_Init+0xd4>
    tmpreg1 |= (uint32_t)ETH_MACMIIAR_CR_Div26;
 8000926:	f045 050c 	orr.w	r5, r5, #12
 800092a:	e7d6      	b.n	80008da <HAL_ETH_Init+0x82>
  else if((hclk >= 60000000U)&&(hclk < 100000000U))
 800092c:	4b44      	ldr	r3, [pc, #272]	; (8000a40 <HAL_ETH_Init+0x1e8>)
 800092e:	4a45      	ldr	r2, [pc, #276]	; (8000a44 <HAL_ETH_Init+0x1ec>)
 8000930:	4403      	add	r3, r0
 8000932:	4293      	cmp	r3, r2
 8000934:	d9d1      	bls.n	80008da <HAL_ETH_Init+0x82>
  else if((hclk >= 100000000U)&&(hclk < 150000000U))
 8000936:	4b44      	ldr	r3, [pc, #272]	; (8000a48 <HAL_ETH_Init+0x1f0>)
 8000938:	4a44      	ldr	r2, [pc, #272]	; (8000a4c <HAL_ETH_Init+0x1f4>)
 800093a:	4403      	add	r3, r0
 800093c:	4293      	cmp	r3, r2
    tmpreg1 |= (uint32_t)ETH_MACMIIAR_CR_Div62;
 800093e:	bf94      	ite	ls
 8000940:	f045 0504 	orrls.w	r5, r5, #4
    tmpreg1 |= (uint32_t)ETH_MACMIIAR_CR_Div102;    
 8000944:	f045 0510 	orrhi.w	r5, r5, #16
 8000948:	e7c7      	b.n	80008da <HAL_ETH_Init+0x82>
  HAL_Delay(PHY_RESET_DELAY);
 800094a:	20ff      	movs	r0, #255	; 0xff
 800094c:	f7ff fe26 	bl	800059c <HAL_Delay>
  if((heth->Init).AutoNegotiation != ETH_AUTONEGOTIATION_DISABLE)
 8000950:	6863      	ldr	r3, [r4, #4]
 8000952:	2b00      	cmp	r3, #0
 8000954:	d053      	beq.n	80009fe <HAL_ETH_Init+0x1a6>
    tickstart = HAL_GetTick();
 8000956:	f7ff fe1b 	bl	8000590 <HAL_GetTick>
      if((HAL_GetTick() - tickstart ) > ETH_TIMEOUT_LINKED_STATE)
 800095a:	f241 3788 	movw	r7, #5000	; 0x1388
    tickstart = HAL_GetTick();
 800095e:	4606      	mov	r6, r0
      HAL_ETH_ReadPHYRegister(heth, PHY_BSR, &phyreg);
 8000960:	466a      	mov	r2, sp
 8000962:	2101      	movs	r1, #1
 8000964:	4620      	mov	r0, r4
 8000966:	f7ff ff05 	bl	8000774 <HAL_ETH_ReadPHYRegister>
      if((HAL_GetTick() - tickstart ) > ETH_TIMEOUT_LINKED_STATE)
 800096a:	f7ff fe11 	bl	8000590 <HAL_GetTick>
 800096e:	1b80      	subs	r0, r0, r6
 8000970:	42b8      	cmp	r0, r7
 8000972:	d90b      	bls.n	800098c <HAL_ETH_Init+0x134>
        ETH_MACDMAConfig(heth, err);
 8000974:	2101      	movs	r1, #1
 8000976:	4620      	mov	r0, r4
 8000978:	f7ff fe80 	bl	800067c <ETH_MACDMAConfig>
        heth->State= HAL_ETH_STATE_READY;
 800097c:	2301      	movs	r3, #1
 800097e:	f884 3044 	strb.w	r3, [r4, #68]	; 0x44
        __HAL_UNLOCK(heth);
 8000982:	2300      	movs	r3, #0
 8000984:	f884 3045 	strb.w	r3, [r4, #69]	; 0x45
        return HAL_TIMEOUT;
 8000988:	2503      	movs	r5, #3
 800098a:	e7c4      	b.n	8000916 <HAL_ETH_Init+0xbe>
    } while (((phyreg & PHY_LINKED_STATUS) != PHY_LINKED_STATUS));
 800098c:	9b00      	ldr	r3, [sp, #0]
 800098e:	0759      	lsls	r1, r3, #29
 8000990:	d5e6      	bpl.n	8000960 <HAL_ETH_Init+0x108>
    if((HAL_ETH_WritePHYRegister(heth, PHY_BCR, PHY_AUTONEGOTIATION)) != HAL_OK)
 8000992:	f44f 5280 	mov.w	r2, #4096	; 0x1000
 8000996:	2100      	movs	r1, #0
 8000998:	4620      	mov	r0, r4
 800099a:	f7ff ff25 	bl	80007e8 <HAL_ETH_WritePHYRegister>
 800099e:	2800      	cmp	r0, #0
 80009a0:	d1a5      	bne.n	80008ee <HAL_ETH_Init+0x96>
    tickstart = HAL_GetTick();
 80009a2:	f7ff fdf5 	bl	8000590 <HAL_GetTick>
      if((HAL_GetTick() - tickstart ) > ETH_TIMEOUT_AUTONEGO_COMPLETED)
 80009a6:	f241 3788 	movw	r7, #5000	; 0x1388
    tickstart = HAL_GetTick();
 80009aa:	4606      	mov	r6, r0
      HAL_ETH_ReadPHYRegister(heth, PHY_BSR, &phyreg);
 80009ac:	466a      	mov	r2, sp
 80009ae:	2101      	movs	r1, #1
 80009b0:	4620      	mov	r0, r4
 80009b2:	f7ff fedf 	bl	8000774 <HAL_ETH_ReadPHYRegister>
      if((HAL_GetTick() - tickstart ) > ETH_TIMEOUT_AUTONEGO_COMPLETED)
 80009b6:	f7ff fdeb 	bl	8000590 <HAL_GetTick>
 80009ba:	1b80      	subs	r0, r0, r6
 80009bc:	42b8      	cmp	r0, r7
 80009be:	d8d9      	bhi.n	8000974 <HAL_ETH_Init+0x11c>
    } while (((phyreg & PHY_AUTONEGO_COMPLETE) != PHY_AUTONEGO_COMPLETE));
 80009c0:	9b00      	ldr	r3, [sp, #0]
 80009c2:	069a      	lsls	r2, r3, #26
 80009c4:	d5f2      	bpl.n	80009ac <HAL_ETH_Init+0x154>
    if((HAL_ETH_ReadPHYRegister(heth, PHY_SR, &phyreg)) != HAL_OK)
 80009c6:	466a      	mov	r2, sp
 80009c8:	211f      	movs	r1, #31
 80009ca:	4620      	mov	r0, r4
 80009cc:	f7ff fed2 	bl	8000774 <HAL_ETH_ReadPHYRegister>
 80009d0:	2800      	cmp	r0, #0
 80009d2:	d18c      	bne.n	80008ee <HAL_ETH_Init+0x96>
    if((phyreg & PHY_DUPLEX_STATUS) != (uint32_t)RESET)
 80009d4:	9b00      	ldr	r3, [sp, #0]
 80009d6:	f013 0210 	ands.w	r2, r3, #16
      (heth->Init).DuplexMode = ETH_MODE_FULLDUPLEX;  
 80009da:	bf18      	it	ne
 80009dc:	f44f 6200 	movne.w	r2, #2048	; 0x800
    if((phyreg & PHY_SPEED_STATUS) == PHY_SPEED_STATUS)
 80009e0:	075b      	lsls	r3, r3, #29
      (heth->Init).Speed = ETH_SPEED_10M; 
 80009e2:	bf4c      	ite	mi
 80009e4:	2300      	movmi	r3, #0
      (heth->Init).Speed = ETH_SPEED_100M;
 80009e6:	f44f 4380 	movpl.w	r3, #16384	; 0x4000
      (heth->Init).DuplexMode = ETH_MODE_HALFDUPLEX;           
 80009ea:	60e2      	str	r2, [r4, #12]
      (heth->Init).Speed = ETH_SPEED_100M;
 80009ec:	60a3      	str	r3, [r4, #8]
  ETH_MACDMAConfig(heth, err);
 80009ee:	2100      	movs	r1, #0
 80009f0:	4620      	mov	r0, r4
 80009f2:	f7ff fe43 	bl	800067c <ETH_MACDMAConfig>
  heth->State= HAL_ETH_STATE_READY;
 80009f6:	2301      	movs	r3, #1
 80009f8:	f884 3044 	strb.w	r3, [r4, #68]	; 0x44
  return HAL_OK;
 80009fc:	e78b      	b.n	8000916 <HAL_ETH_Init+0xbe>
                                                (uint16_t)((heth->Init).Speed >> 1U))) != HAL_OK)
 80009fe:	68a3      	ldr	r3, [r4, #8]
    if(HAL_ETH_WritePHYRegister(heth, PHY_BCR, ((uint16_t)((heth->Init).DuplexMode >> 3U) |
 8000a00:	68e2      	ldr	r2, [r4, #12]
                                                (uint16_t)((heth->Init).Speed >> 1U))) != HAL_OK)
 8000a02:	085b      	lsrs	r3, r3, #1
    if(HAL_ETH_WritePHYRegister(heth, PHY_BCR, ((uint16_t)((heth->Init).DuplexMode >> 3U) |
 8000a04:	ea43 02d2 	orr.w	r2, r3, r2, lsr #3
 8000a08:	b292      	uxth	r2, r2
 8000a0a:	4629      	mov	r1, r5
 8000a0c:	4620      	mov	r0, r4
 8000a0e:	f7ff feeb 	bl	80007e8 <HAL_ETH_WritePHYRegister>
 8000a12:	2800      	cmp	r0, #0
 8000a14:	f47f af6b 	bne.w	80008ee <HAL_ETH_Init+0x96>
    HAL_Delay(PHY_CONFIG_DELAY);
 8000a18:	f640 70ff 	movw	r0, #4095	; 0xfff
 8000a1c:	f7ff fdbe 	bl	800059c <HAL_Delay>
 8000a20:	e7e5      	b.n	80009ee <HAL_ETH_Init+0x196>
    return HAL_ERROR;
 8000a22:	2501      	movs	r5, #1
 8000a24:	e777      	b.n	8000916 <HAL_ETH_Init+0xbe>
 8000a26:	bf00      	nop
 8000a28:	40023800 	.word	0x40023800
 8000a2c:	40013800 	.word	0x40013800
 8000a30:	feced300 	.word	0xfeced300
 8000a34:	00e4e1bf 	.word	0x00e4e1bf
 8000a38:	fde9f140 	.word	0xfde9f140
 8000a3c:	017d783f 	.word	0x017d783f
 8000a40:	fc6c7900 	.word	0xfc6c7900
 8000a44:	026259ff 	.word	0x026259ff
 8000a48:	fa0a1f00 	.word	0xfa0a1f00
 8000a4c:	02faf07f 	.word	0x02faf07f

08000a50 <HAL_GPIO_Init>:
  * @param  GPIO_Init pointer to a GPIO_InitTypeDef structure that contains
  *         the configuration information for the specified GPIO peripheral.
  * @retval None
  */
void HAL_GPIO_Init(GPIO_TypeDef  *GPIOx, GPIO_InitTypeDef *GPIO_Init)
{
 8000a50:	e92d 4ff0 	stmdb	sp!, {r4, r5, r6, r7, r8, r9, sl, fp, lr}
 8000a54:	b085      	sub	sp, #20
  for(position = 0U; position < GPIO_NUMBER; position++)
  {
    /* Get the IO position */
    ioposition = 0x01U << position;
    /* Get the current IO position */
    iocurrent = (uint32_t)(GPIO_Init->Pin) & ioposition;
 8000a56:	680b      	ldr	r3, [r1, #0]
      /*--------------------- EXTI Mode Configuration ------------------------*/
      /* Configure the External Interrupt or event for the current IO */
      if((GPIO_Init->Mode & EXTI_MODE) == EXTI_MODE)
      {
        /* Enable SYSCFG Clock */
        __HAL_RCC_SYSCFG_CLK_ENABLE();
 8000a58:	f8df 81c4 	ldr.w	r8, [pc, #452]	; 8000c20 <HAL_GPIO_Init+0x1d0>
        temp &= ~(0x0FU << (4U * (position & 0x03U)));
        temp |= ((uint32_t)(GPIO_GET_INDEX(GPIOx)) << (4U * (position & 0x03U)));
        SYSCFG->EXTICR[position >> 2U] = temp;

        /* Clear EXTI line configuration */
        temp = EXTI->IMR;
 8000a5c:	4a6e      	ldr	r2, [pc, #440]	; (8000c18 <HAL_GPIO_Init+0x1c8>)
        temp |= ((uint32_t)(GPIO_GET_INDEX(GPIOx)) << (4U * (position & 0x03U)));
 8000a5e:	f8df 91c4 	ldr.w	r9, [pc, #452]	; 8000c24 <HAL_GPIO_Init+0x1d4>
    iocurrent = (uint32_t)(GPIO_Init->Pin) & ioposition;
 8000a62:	9301      	str	r3, [sp, #4]
  for(position = 0U; position < GPIO_NUMBER; position++)
 8000a64:	2300      	movs	r3, #0
    ioposition = 0x01U << position;
 8000a66:	2401      	movs	r4, #1
    iocurrent = (uint32_t)(GPIO_Init->Pin) & ioposition;
 8000a68:	9d01      	ldr	r5, [sp, #4]
    ioposition = 0x01U << position;
 8000a6a:	409c      	lsls	r4, r3
    iocurrent = (uint32_t)(GPIO_Init->Pin) & ioposition;
 8000a6c:	4025      	ands	r5, r4
    if(iocurrent == ioposition)
 8000a6e:	42ac      	cmp	r4, r5
 8000a70:	f040 80b8 	bne.w	8000be4 <HAL_GPIO_Init+0x194>
      if((GPIO_Init->Mode == GPIO_MODE_OUTPUT_PP) || (GPIO_Init->Mode == GPIO_MODE_AF_PP) ||
 8000a74:	684c      	ldr	r4, [r1, #4]
 8000a76:	f024 0c10 	bic.w	ip, r4, #16
 8000a7a:	f10c 36ff 	add.w	r6, ip, #4294967295
 8000a7e:	2e01      	cmp	r6, #1
 8000a80:	ea4f 0e43 	mov.w	lr, r3, lsl #1
 8000a84:	d812      	bhi.n	8000aac <HAL_GPIO_Init+0x5c>
        temp = GPIOx->OSPEEDR; 
 8000a86:	6887      	ldr	r7, [r0, #8]
        temp &= ~(GPIO_OSPEEDER_OSPEEDR0 << (position * 2U));
 8000a88:	2603      	movs	r6, #3
 8000a8a:	fa06 f60e 	lsl.w	r6, r6, lr
 8000a8e:	ea27 0706 	bic.w	r7, r7, r6
        temp |= (GPIO_Init->Speed << (position * 2U));
 8000a92:	68ce      	ldr	r6, [r1, #12]
 8000a94:	fa06 f60e 	lsl.w	r6, r6, lr
 8000a98:	433e      	orrs	r6, r7
        GPIOx->OSPEEDR = temp;
 8000a9a:	6086      	str	r6, [r0, #8]
        temp = GPIOx->OTYPER;
 8000a9c:	6847      	ldr	r7, [r0, #4]
        temp |= (((GPIO_Init->Mode & GPIO_OUTPUT_TYPE) >> 4U) << position);
 8000a9e:	f3c4 1600 	ubfx	r6, r4, #4, #1
        temp &= ~(GPIO_OTYPER_OT_0 << position) ;
 8000aa2:	ea27 0705 	bic.w	r7, r7, r5
        temp |= (((GPIO_Init->Mode & GPIO_OUTPUT_TYPE) >> 4U) << position);
 8000aa6:	409e      	lsls	r6, r3
 8000aa8:	433e      	orrs	r6, r7
        GPIOx->OTYPER = temp;
 8000aaa:	6046      	str	r6, [r0, #4]
      temp &= ~(GPIO_PUPDR_PUPDR0 << (position * 2U));
 8000aac:	2603      	movs	r6, #3
      temp = GPIOx->PUPDR;
 8000aae:	68c7      	ldr	r7, [r0, #12]
      temp &= ~(GPIO_PUPDR_PUPDR0 << (position * 2U));
 8000ab0:	fa06 f60e 	lsl.w	r6, r6, lr
 8000ab4:	43f6      	mvns	r6, r6
 8000ab6:	ea07 0a06 	and.w	sl, r7, r6
      temp |= ((GPIO_Init->Pull) << (position * 2U));
 8000aba:	688f      	ldr	r7, [r1, #8]
 8000abc:	fa07 f70e 	lsl.w	r7, r7, lr
 8000ac0:	ea47 070a 	orr.w	r7, r7, sl
      if((GPIO_Init->Mode == GPIO_MODE_AF_PP) || (GPIO_Init->Mode == GPIO_MODE_AF_OD))
 8000ac4:	f1bc 0f02 	cmp.w	ip, #2
      GPIOx->PUPDR = temp;
 8000ac8:	60c7      	str	r7, [r0, #12]
      if((GPIO_Init->Mode == GPIO_MODE_AF_PP) || (GPIO_Init->Mode == GPIO_MODE_AF_OD))
 8000aca:	d116      	bne.n	8000afa <HAL_GPIO_Init+0xaa>
        temp = GPIOx->AFR[position >> 3U];
 8000acc:	ea4f 0ad3 	mov.w	sl, r3, lsr #3
 8000ad0:	eb00 0a8a 	add.w	sl, r0, sl, lsl #2
        temp &= ~(0xFU << ((uint32_t)(position & 0x07U) * 4U)) ;
 8000ad4:	f003 0b07 	and.w	fp, r3, #7
        temp = GPIOx->AFR[position >> 3U];
 8000ad8:	f8da 7020 	ldr.w	r7, [sl, #32]
        temp &= ~(0xFU << ((uint32_t)(position & 0x07U) * 4U)) ;
 8000adc:	ea4f 0b8b 	mov.w	fp, fp, lsl #2
 8000ae0:	f04f 0c0f 	mov.w	ip, #15
 8000ae4:	fa0c fc0b 	lsl.w	ip, ip, fp
 8000ae8:	ea27 0c0c 	bic.w	ip, r7, ip
        temp |= ((uint32_t)(GPIO_Init->Alternate) << (((uint32_t)position & 0x07U) * 4U));
 8000aec:	690f      	ldr	r7, [r1, #16]
 8000aee:	fa07 f70b 	lsl.w	r7, r7, fp
 8000af2:	ea47 070c 	orr.w	r7, r7, ip
        GPIOx->AFR[position >> 3U] = temp;
 8000af6:	f8ca 7020 	str.w	r7, [sl, #32]
      temp = GPIOx->MODER;
 8000afa:	6807      	ldr	r7, [r0, #0]
      temp &= ~(GPIO_MODER_MODER0 << (position * 2U));
 8000afc:	403e      	ands	r6, r7
      temp |= ((GPIO_Init->Mode & GPIO_MODE) << (position * 2U));
 8000afe:	f004 0703 	and.w	r7, r4, #3
 8000b02:	fa07 fe0e 	lsl.w	lr, r7, lr
 8000b06:	ea4e 0606 	orr.w	r6, lr, r6
      GPIOx->MODER = temp;
 8000b0a:	6006      	str	r6, [r0, #0]
      if((GPIO_Init->Mode & EXTI_MODE) == EXTI_MODE)
 8000b0c:	00e6      	lsls	r6, r4, #3
 8000b0e:	d569      	bpl.n	8000be4 <HAL_GPIO_Init+0x194>
        __HAL_RCC_SYSCFG_CLK_ENABLE();
 8000b10:	f04f 0b00 	mov.w	fp, #0
 8000b14:	f8cd b00c 	str.w	fp, [sp, #12]
 8000b18:	f8d8 7044 	ldr.w	r7, [r8, #68]	; 0x44
        temp |= ((uint32_t)(GPIO_GET_INDEX(GPIOx)) << (4U * (position & 0x03U)));
 8000b1c:	4e3f      	ldr	r6, [pc, #252]	; (8000c1c <HAL_GPIO_Init+0x1cc>)
        __HAL_RCC_SYSCFG_CLK_ENABLE();
 8000b1e:	f447 4780 	orr.w	r7, r7, #16384	; 0x4000
 8000b22:	f8c8 7044 	str.w	r7, [r8, #68]	; 0x44
 8000b26:	f8d8 7044 	ldr.w	r7, [r8, #68]	; 0x44
 8000b2a:	f407 4780 	and.w	r7, r7, #16384	; 0x4000
 8000b2e:	9703      	str	r7, [sp, #12]
 8000b30:	9f03      	ldr	r7, [sp, #12]
 8000b32:	f023 0703 	bic.w	r7, r3, #3
 8000b36:	f107 4780 	add.w	r7, r7, #1073741824	; 0x40000000
 8000b3a:	f507 379c 	add.w	r7, r7, #79872	; 0x13800
        temp &= ~(0x0FU << (4U * (position & 0x03U)));
 8000b3e:	f003 0c03 	and.w	ip, r3, #3
        temp = SYSCFG->EXTICR[position >> 2U];
 8000b42:	f8d7 a008 	ldr.w	sl, [r7, #8]
        temp &= ~(0x0FU << (4U * (position & 0x03U)));
 8000b46:	ea4f 0c8c 	mov.w	ip, ip, lsl #2
 8000b4a:	f04f 0e0f 	mov.w	lr, #15
 8000b4e:	fa0e fe0c 	lsl.w	lr, lr, ip
        temp |= ((uint32_t)(GPIO_GET_INDEX(GPIOx)) << (4U * (position & 0x03U)));
 8000b52:	42b0      	cmp	r0, r6
        temp &= ~(0x0FU << (4U * (position & 0x03U)));
 8000b54:	ea2a 0e0e 	bic.w	lr, sl, lr
        temp |= ((uint32_t)(GPIO_GET_INDEX(GPIOx)) << (4U * (position & 0x03U)));
 8000b58:	d04b      	beq.n	8000bf2 <HAL_GPIO_Init+0x1a2>
 8000b5a:	f506 6680 	add.w	r6, r6, #1024	; 0x400
 8000b5e:	42b0      	cmp	r0, r6
 8000b60:	d049      	beq.n	8000bf6 <HAL_GPIO_Init+0x1a6>
 8000b62:	f506 6680 	add.w	r6, r6, #1024	; 0x400
 8000b66:	42b0      	cmp	r0, r6
 8000b68:	d047      	beq.n	8000bfa <HAL_GPIO_Init+0x1aa>
 8000b6a:	f506 6680 	add.w	r6, r6, #1024	; 0x400
 8000b6e:	42b0      	cmp	r0, r6
 8000b70:	d045      	beq.n	8000bfe <HAL_GPIO_Init+0x1ae>
 8000b72:	f506 6680 	add.w	r6, r6, #1024	; 0x400
 8000b76:	42b0      	cmp	r0, r6
 8000b78:	d043      	beq.n	8000c02 <HAL_GPIO_Init+0x1b2>
 8000b7a:	4548      	cmp	r0, r9
 8000b7c:	d043      	beq.n	8000c06 <HAL_GPIO_Init+0x1b6>
 8000b7e:	f506 6600 	add.w	r6, r6, #2048	; 0x800
 8000b82:	42b0      	cmp	r0, r6
 8000b84:	d041      	beq.n	8000c0a <HAL_GPIO_Init+0x1ba>
 8000b86:	f506 6680 	add.w	r6, r6, #1024	; 0x400
 8000b8a:	42b0      	cmp	r0, r6
 8000b8c:	d03f      	beq.n	8000c0e <HAL_GPIO_Init+0x1be>
 8000b8e:	f506 6680 	add.w	r6, r6, #1024	; 0x400
 8000b92:	42b0      	cmp	r0, r6
 8000b94:	d03d      	beq.n	8000c12 <HAL_GPIO_Init+0x1c2>
 8000b96:	f506 6680 	add.w	r6, r6, #1024	; 0x400
 8000b9a:	42b0      	cmp	r0, r6
 8000b9c:	bf14      	ite	ne
 8000b9e:	260a      	movne	r6, #10
 8000ba0:	2609      	moveq	r6, #9
 8000ba2:	fa06 f60c 	lsl.w	r6, r6, ip
 8000ba6:	ea46 060e 	orr.w	r6, r6, lr
        SYSCFG->EXTICR[position >> 2U] = temp;
 8000baa:	60be      	str	r6, [r7, #8]
        temp = EXTI->IMR;
 8000bac:	6816      	ldr	r6, [r2, #0]
        temp &= ~((uint32_t)iocurrent);
 8000bae:	43ef      	mvns	r7, r5
        if((GPIO_Init->Mode & GPIO_MODE_IT) == GPIO_MODE_IT)
 8000bb0:	f414 3f80 	tst.w	r4, #65536	; 0x10000
        temp &= ~((uint32_t)iocurrent);
 8000bb4:	bf0c      	ite	eq
 8000bb6:	403e      	andeq	r6, r7
        {
          temp |= iocurrent;
 8000bb8:	432e      	orrne	r6, r5
        }
        EXTI->IMR = temp;
 8000bba:	6016      	str	r6, [r2, #0]

        temp = EXTI->EMR;
 8000bbc:	6856      	ldr	r6, [r2, #4]
        temp &= ~((uint32_t)iocurrent);
        if((GPIO_Init->Mode & GPIO_MODE_EVT) == GPIO_MODE_EVT)
 8000bbe:	f414 3f00 	tst.w	r4, #131072	; 0x20000
        temp &= ~((uint32_t)iocurrent);
 8000bc2:	bf0c      	ite	eq
 8000bc4:	403e      	andeq	r6, r7
        {
          temp |= iocurrent;
 8000bc6:	432e      	orrne	r6, r5
        }
        EXTI->EMR = temp;
 8000bc8:	6056      	str	r6, [r2, #4]

        /* Clear Rising Falling edge configuration */
        temp = EXTI->RTSR;
 8000bca:	6896      	ldr	r6, [r2, #8]
        temp &= ~((uint32_t)iocurrent);
        if((GPIO_Init->Mode & RISING_EDGE) == RISING_EDGE)
 8000bcc:	f414 1f80 	tst.w	r4, #1048576	; 0x100000
        temp &= ~((uint32_t)iocurrent);
 8000bd0:	bf0c      	ite	eq
 8000bd2:	403e      	andeq	r6, r7
        {
          temp |= iocurrent;
 8000bd4:	432e      	orrne	r6, r5
        }
        EXTI->RTSR = temp;
 8000bd6:	6096      	str	r6, [r2, #8]

        temp = EXTI->FTSR;
 8000bd8:	68d6      	ldr	r6, [r2, #12]
        temp &= ~((uint32_t)iocurrent);
        if((GPIO_Init->Mode & FALLING_EDGE) == FALLING_EDGE)
 8000bda:	02a4      	lsls	r4, r4, #10
        temp &= ~((uint32_t)iocurrent);
 8000bdc:	bf54      	ite	pl
 8000bde:	403e      	andpl	r6, r7
        {
          temp |= iocurrent;
 8000be0:	432e      	orrmi	r6, r5
        }
        EXTI->FTSR = temp;
 8000be2:	60d6      	str	r6, [r2, #12]
  for(position = 0U; position < GPIO_NUMBER; position++)
 8000be4:	3301      	adds	r3, #1
 8000be6:	2b10      	cmp	r3, #16
 8000be8:	f47f af3d 	bne.w	8000a66 <HAL_GPIO_Init+0x16>
      }
    }
  }
}
 8000bec:	b005      	add	sp, #20
 8000bee:	e8bd 8ff0 	ldmia.w	sp!, {r4, r5, r6, r7, r8, r9, sl, fp, pc}
        temp |= ((uint32_t)(GPIO_GET_INDEX(GPIOx)) << (4U * (position & 0x03U)));
 8000bf2:	465e      	mov	r6, fp
 8000bf4:	e7d5      	b.n	8000ba2 <HAL_GPIO_Init+0x152>
 8000bf6:	2601      	movs	r6, #1
 8000bf8:	e7d3      	b.n	8000ba2 <HAL_GPIO_Init+0x152>
 8000bfa:	2602      	movs	r6, #2
 8000bfc:	e7d1      	b.n	8000ba2 <HAL_GPIO_Init+0x152>
 8000bfe:	2603      	movs	r6, #3
 8000c00:	e7cf      	b.n	8000ba2 <HAL_GPIO_Init+0x152>
 8000c02:	2604      	movs	r6, #4
 8000c04:	e7cd      	b.n	8000ba2 <HAL_GPIO_Init+0x152>
 8000c06:	2605      	movs	r6, #5
 8000c08:	e7cb      	b.n	8000ba2 <HAL_GPIO_Init+0x152>
 8000c0a:	2606      	movs	r6, #6
 8000c0c:	e7c9      	b.n	8000ba2 <HAL_GPIO_Init+0x152>
 8000c0e:	2607      	movs	r6, #7
 8000c10:	e7c7      	b.n	8000ba2 <HAL_GPIO_Init+0x152>
 8000c12:	2608      	movs	r6, #8
 8000c14:	e7c5      	b.n	8000ba2 <HAL_GPIO_Init+0x152>
 8000c16:	bf00      	nop
 8000c18:	40013c00 	.word	0x40013c00
 8000c1c:	40020000 	.word	0x40020000
 8000c20:	40023800 	.word	0x40023800
 8000c24:	40021400 	.word	0x40021400

08000c28 <HAL_GPIO_WritePin>:
{
  /* Check the parameters */
  assert_param(IS_GPIO_PIN(GPIO_Pin));
  assert_param(IS_GPIO_PIN_ACTION(PinState));

  if(PinState != GPIO_PIN_RESET)
 8000c28:	b10a      	cbz	r2, 8000c2e <HAL_GPIO_WritePin+0x6>
  {
    GPIOx->BSRR = GPIO_Pin;
  }
  else
  {
    GPIOx->BSRR = (uint32_t)GPIO_Pin << 16U;
 8000c2a:	6181      	str	r1, [r0, #24]
 8000c2c:	4770      	bx	lr
 8000c2e:	0409      	lsls	r1, r1, #16
 8000c30:	e7fb      	b.n	8000c2a <HAL_GPIO_WritePin+0x2>

08000c32 <I2C_IsAcknowledgeFailed>:
  *                the configuration information for the specified I2C.
  * @retval HAL status
  */
static HAL_StatusTypeDef I2C_IsAcknowledgeFailed(I2C_HandleTypeDef *hi2c)
{
  if (__HAL_I2C_GET_FLAG(hi2c, I2C_FLAG_AF) == SET)
 8000c32:	6801      	ldr	r1, [r0, #0]
 8000c34:	694b      	ldr	r3, [r1, #20]
 8000c36:	f413 6380 	ands.w	r3, r3, #1024	; 0x400
 8000c3a:	f04f 0200 	mov.w	r2, #0
 8000c3e:	d010      	beq.n	8000c62 <I2C_IsAcknowledgeFailed+0x30>
  {
    /* Clear NACKF Flag */
    __HAL_I2C_CLEAR_FLAG(hi2c, I2C_FLAG_AF);
 8000c40:	f46f 6380 	mvn.w	r3, #1024	; 0x400
 8000c44:	614b      	str	r3, [r1, #20]

    hi2c->PreviousState       = I2C_STATE_NONE;
    hi2c->State               = HAL_I2C_STATE_READY;
 8000c46:	2320      	movs	r3, #32
    hi2c->PreviousState       = I2C_STATE_NONE;
 8000c48:	6302      	str	r2, [r0, #48]	; 0x30
    hi2c->State               = HAL_I2C_STATE_READY;
 8000c4a:	f880 303d 	strb.w	r3, [r0, #61]	; 0x3d
    hi2c->Mode                = HAL_I2C_MODE_NONE;
 8000c4e:	f880 203e 	strb.w	r2, [r0, #62]	; 0x3e
    hi2c->ErrorCode           |= HAL_I2C_ERROR_AF;
 8000c52:	6c03      	ldr	r3, [r0, #64]	; 0x40

    /* Process Unlocked */
    __HAL_UNLOCK(hi2c);
 8000c54:	f880 203c 	strb.w	r2, [r0, #60]	; 0x3c
    hi2c->ErrorCode           |= HAL_I2C_ERROR_AF;
 8000c58:	f043 0304 	orr.w	r3, r3, #4
 8000c5c:	6403      	str	r3, [r0, #64]	; 0x40

    return HAL_ERROR;
 8000c5e:	2001      	movs	r0, #1
 8000c60:	4770      	bx	lr
  }
  return HAL_OK;
 8000c62:	4618      	mov	r0, r3
}
 8000c64:	4770      	bx	lr

08000c66 <I2C_WaitOnMasterAddressFlagUntilTimeout>:
{
 8000c66:	e92d 43f8 	stmdb	sp!, {r3, r4, r5, r6, r7, r8, r9, lr}
 8000c6a:	4604      	mov	r4, r0
 8000c6c:	4617      	mov	r7, r2
 8000c6e:	4699      	mov	r9, r3
  while (__HAL_I2C_GET_FLAG(hi2c, Flag) == RESET)
 8000c70:	f3c1 4807 	ubfx	r8, r1, #16, #8
 8000c74:	b28e      	uxth	r6, r1
 8000c76:	6825      	ldr	r5, [r4, #0]
 8000c78:	f1b8 0f01 	cmp.w	r8, #1
 8000c7c:	bf0c      	ite	eq
 8000c7e:	696b      	ldreq	r3, [r5, #20]
 8000c80:	69ab      	ldrne	r3, [r5, #24]
 8000c82:	ea36 0303 	bics.w	r3, r6, r3
 8000c86:	bf14      	ite	ne
 8000c88:	2001      	movne	r0, #1
 8000c8a:	2000      	moveq	r0, #0
 8000c8c:	b908      	cbnz	r0, 8000c92 <I2C_WaitOnMasterAddressFlagUntilTimeout+0x2c>
}
 8000c8e:	e8bd 83f8 	ldmia.w	sp!, {r3, r4, r5, r6, r7, r8, r9, pc}
    if (__HAL_I2C_GET_FLAG(hi2c, I2C_FLAG_AF) == SET)
 8000c92:	696b      	ldr	r3, [r5, #20]
 8000c94:	055a      	lsls	r2, r3, #21
 8000c96:	d516      	bpl.n	8000cc6 <I2C_WaitOnMasterAddressFlagUntilTimeout+0x60>
      SET_BIT(hi2c->Instance->CR1, I2C_CR1_STOP);
 8000c98:	682b      	ldr	r3, [r5, #0]
 8000c9a:	f443 7300 	orr.w	r3, r3, #512	; 0x200
 8000c9e:	602b      	str	r3, [r5, #0]
      __HAL_I2C_CLEAR_FLAG(hi2c, I2C_FLAG_AF);
 8000ca0:	f46f 6380 	mvn.w	r3, #1024	; 0x400
 8000ca4:	616b      	str	r3, [r5, #20]
      hi2c->State               = HAL_I2C_STATE_READY;
 8000ca6:	2220      	movs	r2, #32
      hi2c->PreviousState       = I2C_STATE_NONE;
 8000ca8:	2300      	movs	r3, #0
 8000caa:	6323      	str	r3, [r4, #48]	; 0x30
      hi2c->State               = HAL_I2C_STATE_READY;
 8000cac:	f884 203d 	strb.w	r2, [r4, #61]	; 0x3d
      hi2c->Mode                = HAL_I2C_MODE_NONE;
 8000cb0:	f884 303e 	strb.w	r3, [r4, #62]	; 0x3e
      hi2c->ErrorCode           |= HAL_I2C_ERROR_AF;
 8000cb4:	6c22      	ldr	r2, [r4, #64]	; 0x40
 8000cb6:	f042 0204 	orr.w	r2, r2, #4
        hi2c->ErrorCode           |= HAL_I2C_ERROR_TIMEOUT;
 8000cba:	6422      	str	r2, [r4, #64]	; 0x40
        __HAL_UNLOCK(hi2c);
 8000cbc:	f884 303c 	strb.w	r3, [r4, #60]	; 0x3c
        return HAL_ERROR;
 8000cc0:	2001      	movs	r0, #1
 8000cc2:	e8bd 83f8 	ldmia.w	sp!, {r3, r4, r5, r6, r7, r8, r9, pc}
    if (Timeout != HAL_MAX_DELAY)
 8000cc6:	1c7b      	adds	r3, r7, #1
 8000cc8:	d0d5      	beq.n	8000c76 <I2C_WaitOnMasterAddressFlagUntilTimeout+0x10>
      if (((HAL_GetTick() - Tickstart) > Timeout) || (Timeout == 0U))
 8000cca:	f7ff fc61 	bl	8000590 <HAL_GetTick>
 8000cce:	eba0 0009 	sub.w	r0, r0, r9
 8000cd2:	4287      	cmp	r7, r0
 8000cd4:	d301      	bcc.n	8000cda <I2C_WaitOnMasterAddressFlagUntilTimeout+0x74>
 8000cd6:	2f00      	cmp	r7, #0
 8000cd8:	d1cd      	bne.n	8000c76 <I2C_WaitOnMasterAddressFlagUntilTimeout+0x10>
        hi2c->PreviousState       = I2C_STATE_NONE;
 8000cda:	2300      	movs	r3, #0
        hi2c->State               = HAL_I2C_STATE_READY;
 8000cdc:	2220      	movs	r2, #32
        hi2c->PreviousState       = I2C_STATE_NONE;
 8000cde:	6323      	str	r3, [r4, #48]	; 0x30
        hi2c->State               = HAL_I2C_STATE_READY;
 8000ce0:	f884 203d 	strb.w	r2, [r4, #61]	; 0x3d
        hi2c->Mode                = HAL_I2C_MODE_NONE;
 8000ce4:	f884 303e 	strb.w	r3, [r4, #62]	; 0x3e
        hi2c->ErrorCode           |= HAL_I2C_ERROR_TIMEOUT;
 8000ce8:	6c22      	ldr	r2, [r4, #64]	; 0x40
 8000cea:	f042 0220 	orr.w	r2, r2, #32
 8000cee:	e7e4      	b.n	8000cba <I2C_WaitOnMasterAddressFlagUntilTimeout+0x54>

08000cf0 <I2C_WaitOnBTFFlagUntilTimeout>:
{
 8000cf0:	b570      	push	{r4, r5, r6, lr}
 8000cf2:	4604      	mov	r4, r0
 8000cf4:	460d      	mov	r5, r1
 8000cf6:	4616      	mov	r6, r2
  while (__HAL_I2C_GET_FLAG(hi2c, I2C_FLAG_BTF) == RESET)
 8000cf8:	6823      	ldr	r3, [r4, #0]
 8000cfa:	695b      	ldr	r3, [r3, #20]
 8000cfc:	075b      	lsls	r3, r3, #29
 8000cfe:	d501      	bpl.n	8000d04 <I2C_WaitOnBTFFlagUntilTimeout+0x14>
  return HAL_OK;
 8000d00:	2000      	movs	r0, #0
 8000d02:	bd70      	pop	{r4, r5, r6, pc}
    if (I2C_IsAcknowledgeFailed(hi2c) != HAL_OK)
 8000d04:	4620      	mov	r0, r4
 8000d06:	f7ff ff94 	bl	8000c32 <I2C_IsAcknowledgeFailed>
 8000d0a:	b9a8      	cbnz	r0, 8000d38 <I2C_WaitOnBTFFlagUntilTimeout+0x48>
    if (Timeout != HAL_MAX_DELAY)
 8000d0c:	1c6a      	adds	r2, r5, #1
 8000d0e:	d0f3      	beq.n	8000cf8 <I2C_WaitOnBTFFlagUntilTimeout+0x8>
      if (((HAL_GetTick() - Tickstart) > Timeout) || (Timeout == 0U))
 8000d10:	f7ff fc3e 	bl	8000590 <HAL_GetTick>
 8000d14:	1b80      	subs	r0, r0, r6
 8000d16:	4285      	cmp	r5, r0
 8000d18:	d301      	bcc.n	8000d1e <I2C_WaitOnBTFFlagUntilTimeout+0x2e>
 8000d1a:	2d00      	cmp	r5, #0
 8000d1c:	d1ec      	bne.n	8000cf8 <I2C_WaitOnBTFFlagUntilTimeout+0x8>
      hi2c->PreviousState       = I2C_STATE_NONE;
 8000d1e:	2300      	movs	r3, #0
      hi2c->State               = HAL_I2C_STATE_READY;
 8000d20:	2220      	movs	r2, #32
      hi2c->PreviousState       = I2C_STATE_NONE;
 8000d22:	6323      	str	r3, [r4, #48]	; 0x30
      hi2c->State               = HAL_I2C_STATE_READY;
 8000d24:	f884 203d 	strb.w	r2, [r4, #61]	; 0x3d
      hi2c->Mode                = HAL_I2C_MODE_NONE;
 8000d28:	f884 303e 	strb.w	r3, [r4, #62]	; 0x3e
      hi2c->ErrorCode           |= HAL_I2C_ERROR_TIMEOUT;
 8000d2c:	6c22      	ldr	r2, [r4, #64]	; 0x40
      __HAL_UNLOCK(hi2c);
 8000d2e:	f884 303c 	strb.w	r3, [r4, #60]	; 0x3c
      hi2c->ErrorCode           |= HAL_I2C_ERROR_TIMEOUT;
 8000d32:	f042 0220 	orr.w	r2, r2, #32
 8000d36:	6422      	str	r2, [r4, #64]	; 0x40
      return HAL_ERROR;
 8000d38:	2001      	movs	r0, #1
}
 8000d3a:	bd70      	pop	{r4, r5, r6, pc}

08000d3c <I2C_WaitOnRXNEFlagUntilTimeout>:
{
 8000d3c:	b570      	push	{r4, r5, r6, lr}
 8000d3e:	4604      	mov	r4, r0
 8000d40:	460d      	mov	r5, r1
 8000d42:	4616      	mov	r6, r2
  while (__HAL_I2C_GET_FLAG(hi2c, I2C_FLAG_RXNE) == RESET)
 8000d44:	6820      	ldr	r0, [r4, #0]
 8000d46:	6943      	ldr	r3, [r0, #20]
 8000d48:	f013 0340 	ands.w	r3, r3, #64	; 0x40
 8000d4c:	d001      	beq.n	8000d52 <I2C_WaitOnRXNEFlagUntilTimeout+0x16>
  return HAL_OK;
 8000d4e:	2000      	movs	r0, #0
}
 8000d50:	bd70      	pop	{r4, r5, r6, pc}
    if (__HAL_I2C_GET_FLAG(hi2c, I2C_FLAG_STOPF) == SET)
 8000d52:	6942      	ldr	r2, [r0, #20]
 8000d54:	06d2      	lsls	r2, r2, #27
 8000d56:	d50e      	bpl.n	8000d76 <I2C_WaitOnRXNEFlagUntilTimeout+0x3a>
      __HAL_I2C_CLEAR_FLAG(hi2c, I2C_FLAG_STOPF);
 8000d58:	f06f 0210 	mvn.w	r2, #16
 8000d5c:	6142      	str	r2, [r0, #20]
      hi2c->State               = HAL_I2C_STATE_READY;
 8000d5e:	2220      	movs	r2, #32
      hi2c->PreviousState       = I2C_STATE_NONE;
 8000d60:	6323      	str	r3, [r4, #48]	; 0x30
      hi2c->State               = HAL_I2C_STATE_READY;
 8000d62:	f884 203d 	strb.w	r2, [r4, #61]	; 0x3d
      hi2c->Mode                = HAL_I2C_MODE_NONE;
 8000d66:	f884 303e 	strb.w	r3, [r4, #62]	; 0x3e
      hi2c->ErrorCode           |= HAL_I2C_ERROR_NONE;
 8000d6a:	6c22      	ldr	r2, [r4, #64]	; 0x40
      hi2c->ErrorCode           |= HAL_I2C_ERROR_TIMEOUT;
 8000d6c:	6422      	str	r2, [r4, #64]	; 0x40
      __HAL_UNLOCK(hi2c);
 8000d6e:	f884 303c 	strb.w	r3, [r4, #60]	; 0x3c
 8000d72:	2001      	movs	r0, #1
 8000d74:	bd70      	pop	{r4, r5, r6, pc}
    if (((HAL_GetTick() - Tickstart) > Timeout) || (Timeout == 0U))
 8000d76:	f7ff fc0b 	bl	8000590 <HAL_GetTick>
 8000d7a:	1b80      	subs	r0, r0, r6
 8000d7c:	42a8      	cmp	r0, r5
 8000d7e:	d801      	bhi.n	8000d84 <I2C_WaitOnRXNEFlagUntilTimeout+0x48>
 8000d80:	2d00      	cmp	r5, #0
 8000d82:	d1df      	bne.n	8000d44 <I2C_WaitOnRXNEFlagUntilTimeout+0x8>
      hi2c->PreviousState       = I2C_STATE_NONE;
 8000d84:	2300      	movs	r3, #0
      hi2c->State               = HAL_I2C_STATE_READY;
 8000d86:	2220      	movs	r2, #32
      hi2c->PreviousState       = I2C_STATE_NONE;
 8000d88:	6323      	str	r3, [r4, #48]	; 0x30
      hi2c->State               = HAL_I2C_STATE_READY;
 8000d8a:	f884 203d 	strb.w	r2, [r4, #61]	; 0x3d
      hi2c->Mode                = HAL_I2C_MODE_NONE;
 8000d8e:	f884 303e 	strb.w	r3, [r4, #62]	; 0x3e
      hi2c->ErrorCode           |= HAL_I2C_ERROR_TIMEOUT;
 8000d92:	6c22      	ldr	r2, [r4, #64]	; 0x40
 8000d94:	f042 0220 	orr.w	r2, r2, #32
 8000d98:	e7e8      	b.n	8000d6c <I2C_WaitOnRXNEFlagUntilTimeout+0x30>

08000d9a <I2C_WaitOnFlagUntilTimeout>:
{
 8000d9a:	e92d 43f8 	stmdb	sp!, {r3, r4, r5, r6, r7, r8, r9, lr}
 8000d9e:	9e08      	ldr	r6, [sp, #32]
 8000da0:	4604      	mov	r4, r0
 8000da2:	4690      	mov	r8, r2
 8000da4:	461f      	mov	r7, r3
  while (__HAL_I2C_GET_FLAG(hi2c, Flag) == Status)
 8000da6:	f3c1 4907 	ubfx	r9, r1, #16, #8
 8000daa:	b28d      	uxth	r5, r1
 8000dac:	6823      	ldr	r3, [r4, #0]
 8000dae:	f1b9 0f01 	cmp.w	r9, #1
 8000db2:	bf0c      	ite	eq
 8000db4:	695b      	ldreq	r3, [r3, #20]
 8000db6:	699b      	ldrne	r3, [r3, #24]
 8000db8:	ea35 0303 	bics.w	r3, r5, r3
 8000dbc:	bf0c      	ite	eq
 8000dbe:	2301      	moveq	r3, #1
 8000dc0:	2300      	movne	r3, #0
 8000dc2:	4543      	cmp	r3, r8
 8000dc4:	d002      	beq.n	8000dcc <I2C_WaitOnFlagUntilTimeout+0x32>
  return HAL_OK;
 8000dc6:	2000      	movs	r0, #0
}
 8000dc8:	e8bd 83f8 	ldmia.w	sp!, {r3, r4, r5, r6, r7, r8, r9, pc}
    if (Timeout != HAL_MAX_DELAY)
 8000dcc:	1c7b      	adds	r3, r7, #1
 8000dce:	d0ed      	beq.n	8000dac <I2C_WaitOnFlagUntilTimeout+0x12>
      if (((HAL_GetTick() - Tickstart) > Timeout) || (Timeout == 0U))
 8000dd0:	f7ff fbde 	bl	8000590 <HAL_GetTick>
 8000dd4:	1b80      	subs	r0, r0, r6
 8000dd6:	4287      	cmp	r7, r0
 8000dd8:	d301      	bcc.n	8000dde <I2C_WaitOnFlagUntilTimeout+0x44>
 8000dda:	2f00      	cmp	r7, #0
 8000ddc:	d1e6      	bne.n	8000dac <I2C_WaitOnFlagUntilTimeout+0x12>
      hi2c->PreviousState       = I2C_STATE_NONE;
 8000dde:	2300      	movs	r3, #0
      hi2c->State               = HAL_I2C_STATE_READY;
 8000de0:	2220      	movs	r2, #32
      hi2c->PreviousState       = I2C_STATE_NONE;
 8000de2:	6323      	str	r3, [r4, #48]	; 0x30
      hi2c->State               = HAL_I2C_STATE_READY;
 8000de4:	f884 203d 	strb.w	r2, [r4, #61]	; 0x3d
      hi2c->Mode                = HAL_I2C_MODE_NONE;
 8000de8:	f884 303e 	strb.w	r3, [r4, #62]	; 0x3e
      hi2c->ErrorCode           |= HAL_I2C_ERROR_TIMEOUT;
 8000dec:	6c22      	ldr	r2, [r4, #64]	; 0x40
      __HAL_UNLOCK(hi2c);
 8000dee:	f884 303c 	strb.w	r3, [r4, #60]	; 0x3c
      hi2c->ErrorCode           |= HAL_I2C_ERROR_TIMEOUT;
 8000df2:	f042 0220 	orr.w	r2, r2, #32
 8000df6:	6422      	str	r2, [r4, #64]	; 0x40
      __HAL_UNLOCK(hi2c);
 8000df8:	2001      	movs	r0, #1
 8000dfa:	e8bd 83f8 	ldmia.w	sp!, {r3, r4, r5, r6, r7, r8, r9, pc}

08000dfe <I2C_WaitOnTXEFlagUntilTimeout>:
{
 8000dfe:	b570      	push	{r4, r5, r6, lr}
 8000e00:	4604      	mov	r4, r0
 8000e02:	460d      	mov	r5, r1
 8000e04:	4616      	mov	r6, r2
  while (__HAL_I2C_GET_FLAG(hi2c, I2C_FLAG_TXE) == RESET)
 8000e06:	6823      	ldr	r3, [r4, #0]
 8000e08:	695b      	ldr	r3, [r3, #20]
 8000e0a:	061b      	lsls	r3, r3, #24
 8000e0c:	d501      	bpl.n	8000e12 <I2C_WaitOnTXEFlagUntilTimeout+0x14>
  return HAL_OK;
 8000e0e:	2000      	movs	r0, #0
 8000e10:	bd70      	pop	{r4, r5, r6, pc}
    if (I2C_IsAcknowledgeFailed(hi2c) != HAL_OK)
 8000e12:	4620      	mov	r0, r4
 8000e14:	f7ff ff0d 	bl	8000c32 <I2C_IsAcknowledgeFailed>
 8000e18:	b9a8      	cbnz	r0, 8000e46 <I2C_WaitOnTXEFlagUntilTimeout+0x48>
    if (Timeout != HAL_MAX_DELAY)
 8000e1a:	1c6a      	adds	r2, r5, #1
 8000e1c:	d0f3      	beq.n	8000e06 <I2C_WaitOnTXEFlagUntilTimeout+0x8>
      if (((HAL_GetTick() - Tickstart) > Timeout) || (Timeout == 0U))
 8000e1e:	f7ff fbb7 	bl	8000590 <HAL_GetTick>
 8000e22:	1b80      	subs	r0, r0, r6
 8000e24:	4285      	cmp	r5, r0
 8000e26:	d301      	bcc.n	8000e2c <I2C_WaitOnTXEFlagUntilTimeout+0x2e>
 8000e28:	2d00      	cmp	r5, #0
 8000e2a:	d1ec      	bne.n	8000e06 <I2C_WaitOnTXEFlagUntilTimeout+0x8>
      hi2c->PreviousState       = I2C_STATE_NONE;
 8000e2c:	2300      	movs	r3, #0
      hi2c->State               = HAL_I2C_STATE_READY;
 8000e2e:	2220      	movs	r2, #32
      hi2c->PreviousState       = I2C_STATE_NONE;
 8000e30:	6323      	str	r3, [r4, #48]	; 0x30
      hi2c->State               = HAL_I2C_STATE_READY;
 8000e32:	f884 203d 	strb.w	r2, [r4, #61]	; 0x3d
      hi2c->Mode                = HAL_I2C_MODE_NONE;
 8000e36:	f884 303e 	strb.w	r3, [r4, #62]	; 0x3e
      hi2c->ErrorCode           |= HAL_I2C_ERROR_TIMEOUT;
 8000e3a:	6c22      	ldr	r2, [r4, #64]	; 0x40
      __HAL_UNLOCK(hi2c);
 8000e3c:	f884 303c 	strb.w	r3, [r4, #60]	; 0x3c
      hi2c->ErrorCode           |= HAL_I2C_ERROR_TIMEOUT;
 8000e40:	f042 0220 	orr.w	r2, r2, #32
 8000e44:	6422      	str	r2, [r4, #64]	; 0x40
      return HAL_ERROR;
 8000e46:	2001      	movs	r0, #1
}
 8000e48:	bd70      	pop	{r4, r5, r6, pc}
	...

08000e4c <I2C_RequestMemoryWrite>:
{
 8000e4c:	e92d 41ff 	stmdb	sp!, {r0, r1, r2, r3, r4, r5, r6, r7, r8, lr}
 8000e50:	4615      	mov	r5, r2
  SET_BIT(hi2c->Instance->CR1, I2C_CR1_START);
 8000e52:	6802      	ldr	r2, [r0, #0]
{
 8000e54:	9e0b      	ldr	r6, [sp, #44]	; 0x2c
 8000e56:	4698      	mov	r8, r3
  SET_BIT(hi2c->Instance->CR1, I2C_CR1_START);
 8000e58:	6813      	ldr	r3, [r2, #0]
 8000e5a:	f443 7380 	orr.w	r3, r3, #256	; 0x100
 8000e5e:	6013      	str	r3, [r2, #0]
{
 8000e60:	460f      	mov	r7, r1
  if (I2C_WaitOnFlagUntilTimeout(hi2c, I2C_FLAG_SB, RESET, Timeout, Tickstart) != HAL_OK)
 8000e62:	9b0a      	ldr	r3, [sp, #40]	; 0x28
 8000e64:	9600      	str	r6, [sp, #0]
 8000e66:	2200      	movs	r2, #0
 8000e68:	f04f 1101 	mov.w	r1, #65537	; 0x10001
{
 8000e6c:	4604      	mov	r4, r0
  if (I2C_WaitOnFlagUntilTimeout(hi2c, I2C_FLAG_SB, RESET, Timeout, Tickstart) != HAL_OK)
 8000e6e:	f7ff ff94 	bl	8000d9a <I2C_WaitOnFlagUntilTimeout>
 8000e72:	6823      	ldr	r3, [r4, #0]
 8000e74:	b138      	cbz	r0, 8000e86 <I2C_RequestMemoryWrite+0x3a>
    if (hi2c->Instance->CR1 & I2C_CR1_START)
 8000e76:	681b      	ldr	r3, [r3, #0]
 8000e78:	05db      	lsls	r3, r3, #23
 8000e7a:	d502      	bpl.n	8000e82 <I2C_RequestMemoryWrite+0x36>
      hi2c->ErrorCode = HAL_I2C_WRONG_START;
 8000e7c:	f44f 7300 	mov.w	r3, #512	; 0x200
 8000e80:	6423      	str	r3, [r4, #64]	; 0x40
    return HAL_TIMEOUT;
 8000e82:	2003      	movs	r0, #3
 8000e84:	e00a      	b.n	8000e9c <I2C_RequestMemoryWrite+0x50>
  hi2c->Instance->DR = I2C_7BIT_ADD_WRITE(DevAddress);
 8000e86:	f007 07fe 	and.w	r7, r7, #254	; 0xfe
 8000e8a:	611f      	str	r7, [r3, #16]
  if (I2C_WaitOnMasterAddressFlagUntilTimeout(hi2c, I2C_FLAG_ADDR, Timeout, Tickstart) != HAL_OK)
 8000e8c:	9a0a      	ldr	r2, [sp, #40]	; 0x28
 8000e8e:	4919      	ldr	r1, [pc, #100]	; (8000ef4 <I2C_RequestMemoryWrite+0xa8>)
 8000e90:	4633      	mov	r3, r6
 8000e92:	4620      	mov	r0, r4
 8000e94:	f7ff fee7 	bl	8000c66 <I2C_WaitOnMasterAddressFlagUntilTimeout>
 8000e98:	b118      	cbz	r0, 8000ea2 <I2C_RequestMemoryWrite+0x56>
      return HAL_ERROR;
 8000e9a:	2001      	movs	r0, #1
}
 8000e9c:	b004      	add	sp, #16
 8000e9e:	e8bd 81f0 	ldmia.w	sp!, {r4, r5, r6, r7, r8, pc}
  __HAL_I2C_CLEAR_ADDRFLAG(hi2c);
 8000ea2:	6823      	ldr	r3, [r4, #0]
 8000ea4:	9003      	str	r0, [sp, #12]
 8000ea6:	695a      	ldr	r2, [r3, #20]
 8000ea8:	9203      	str	r2, [sp, #12]
 8000eaa:	699b      	ldr	r3, [r3, #24]
 8000eac:	9303      	str	r3, [sp, #12]
  if (I2C_WaitOnTXEFlagUntilTimeout(hi2c, Timeout, Tickstart) != HAL_OK)
 8000eae:	4632      	mov	r2, r6
 8000eb0:	990a      	ldr	r1, [sp, #40]	; 0x28
  __HAL_I2C_CLEAR_ADDRFLAG(hi2c);
 8000eb2:	9b03      	ldr	r3, [sp, #12]
  if (I2C_WaitOnTXEFlagUntilTimeout(hi2c, Timeout, Tickstart) != HAL_OK)
 8000eb4:	4620      	mov	r0, r4
 8000eb6:	f7ff ffa2 	bl	8000dfe <I2C_WaitOnTXEFlagUntilTimeout>
 8000eba:	b140      	cbz	r0, 8000ece <I2C_RequestMemoryWrite+0x82>
      if (hi2c->ErrorCode == HAL_I2C_ERROR_AF)
 8000ebc:	6c23      	ldr	r3, [r4, #64]	; 0x40
 8000ebe:	2b04      	cmp	r3, #4
        SET_BIT(hi2c->Instance->CR1, I2C_CR1_STOP);
 8000ec0:	bf01      	itttt	eq
 8000ec2:	6822      	ldreq	r2, [r4, #0]
 8000ec4:	6813      	ldreq	r3, [r2, #0]
 8000ec6:	f443 7300 	orreq.w	r3, r3, #512	; 0x200
 8000eca:	6013      	streq	r3, [r2, #0]
 8000ecc:	e7e5      	b.n	8000e9a <I2C_RequestMemoryWrite+0x4e>
  if (MemAddSize == I2C_MEMADD_SIZE_8BIT)
 8000ece:	f1b8 0f01 	cmp.w	r8, #1
 8000ed2:	6823      	ldr	r3, [r4, #0]
 8000ed4:	d102      	bne.n	8000edc <I2C_RequestMemoryWrite+0x90>
    hi2c->Instance->DR = I2C_MEM_ADD_LSB(MemAddress);
 8000ed6:	b2ed      	uxtb	r5, r5
 8000ed8:	611d      	str	r5, [r3, #16]
 8000eda:	e7df      	b.n	8000e9c <I2C_RequestMemoryWrite+0x50>
    hi2c->Instance->DR = I2C_MEM_ADD_MSB(MemAddress);
 8000edc:	0a2a      	lsrs	r2, r5, #8
 8000ede:	611a      	str	r2, [r3, #16]
    if (I2C_WaitOnTXEFlagUntilTimeout(hi2c, Timeout, Tickstart) != HAL_OK)
 8000ee0:	990a      	ldr	r1, [sp, #40]	; 0x28
 8000ee2:	4632      	mov	r2, r6
 8000ee4:	4620      	mov	r0, r4
 8000ee6:	f7ff ff8a 	bl	8000dfe <I2C_WaitOnTXEFlagUntilTimeout>
 8000eea:	2800      	cmp	r0, #0
 8000eec:	d1e6      	bne.n	8000ebc <I2C_RequestMemoryWrite+0x70>
    hi2c->Instance->DR = I2C_MEM_ADD_LSB(MemAddress);
 8000eee:	6823      	ldr	r3, [r4, #0]
 8000ef0:	e7f1      	b.n	8000ed6 <I2C_RequestMemoryWrite+0x8a>
 8000ef2:	bf00      	nop
 8000ef4:	00010002 	.word	0x00010002

08000ef8 <I2C_RequestMemoryRead>:
{
 8000ef8:	e92d 41ff 	stmdb	sp!, {r0, r1, r2, r3, r4, r5, r6, r7, r8, lr}
 8000efc:	4698      	mov	r8, r3
  SET_BIT(hi2c->Instance->CR1, I2C_CR1_ACK);
 8000efe:	6803      	ldr	r3, [r0, #0]
{
 8000f00:	9d0b      	ldr	r5, [sp, #44]	; 0x2c
 8000f02:	4616      	mov	r6, r2
  SET_BIT(hi2c->Instance->CR1, I2C_CR1_ACK);
 8000f04:	681a      	ldr	r2, [r3, #0]
 8000f06:	f442 6280 	orr.w	r2, r2, #1024	; 0x400
 8000f0a:	601a      	str	r2, [r3, #0]
  SET_BIT(hi2c->Instance->CR1, I2C_CR1_START);
 8000f0c:	681a      	ldr	r2, [r3, #0]
 8000f0e:	f442 7280 	orr.w	r2, r2, #256	; 0x100
 8000f12:	601a      	str	r2, [r3, #0]
{
 8000f14:	460f      	mov	r7, r1
  if (I2C_WaitOnFlagUntilTimeout(hi2c, I2C_FLAG_SB, RESET, Timeout, Tickstart) != HAL_OK)
 8000f16:	9b0a      	ldr	r3, [sp, #40]	; 0x28
 8000f18:	9500      	str	r5, [sp, #0]
 8000f1a:	2200      	movs	r2, #0
 8000f1c:	f04f 1101 	mov.w	r1, #65537	; 0x10001
{
 8000f20:	4604      	mov	r4, r0
  if (I2C_WaitOnFlagUntilTimeout(hi2c, I2C_FLAG_SB, RESET, Timeout, Tickstart) != HAL_OK)
 8000f22:	f7ff ff3a 	bl	8000d9a <I2C_WaitOnFlagUntilTimeout>
 8000f26:	6823      	ldr	r3, [r4, #0]
 8000f28:	b148      	cbz	r0, 8000f3e <I2C_RequestMemoryRead+0x46>
    if (hi2c->Instance->CR1 & I2C_CR1_START)
 8000f2a:	681b      	ldr	r3, [r3, #0]
 8000f2c:	05db      	lsls	r3, r3, #23
 8000f2e:	d502      	bpl.n	8000f36 <I2C_RequestMemoryRead+0x3e>
      hi2c->ErrorCode = HAL_I2C_WRONG_START;
 8000f30:	f44f 7300 	mov.w	r3, #512	; 0x200
 8000f34:	6423      	str	r3, [r4, #64]	; 0x40
    return HAL_TIMEOUT;
 8000f36:	2003      	movs	r0, #3
}
 8000f38:	b004      	add	sp, #16
 8000f3a:	e8bd 81f0 	ldmia.w	sp!, {r4, r5, r6, r7, r8, pc}
  hi2c->Instance->DR = I2C_7BIT_ADD_WRITE(DevAddress);
 8000f3e:	b2ff      	uxtb	r7, r7
 8000f40:	f007 02fe 	and.w	r2, r7, #254	; 0xfe
 8000f44:	611a      	str	r2, [r3, #16]
  if (I2C_WaitOnMasterAddressFlagUntilTimeout(hi2c, I2C_FLAG_ADDR, Timeout, Tickstart) != HAL_OK)
 8000f46:	492a      	ldr	r1, [pc, #168]	; (8000ff0 <I2C_RequestMemoryRead+0xf8>)
 8000f48:	9a0a      	ldr	r2, [sp, #40]	; 0x28
 8000f4a:	462b      	mov	r3, r5
 8000f4c:	4620      	mov	r0, r4
 8000f4e:	f7ff fe8a 	bl	8000c66 <I2C_WaitOnMasterAddressFlagUntilTimeout>
 8000f52:	b108      	cbz	r0, 8000f58 <I2C_RequestMemoryRead+0x60>
    return HAL_ERROR;
 8000f54:	2001      	movs	r0, #1
 8000f56:	e7ef      	b.n	8000f38 <I2C_RequestMemoryRead+0x40>
  __HAL_I2C_CLEAR_ADDRFLAG(hi2c);
 8000f58:	6823      	ldr	r3, [r4, #0]
 8000f5a:	9003      	str	r0, [sp, #12]
 8000f5c:	695a      	ldr	r2, [r3, #20]
 8000f5e:	9203      	str	r2, [sp, #12]
 8000f60:	699b      	ldr	r3, [r3, #24]
 8000f62:	9303      	str	r3, [sp, #12]
  if (I2C_WaitOnTXEFlagUntilTimeout(hi2c, Timeout, Tickstart) != HAL_OK)
 8000f64:	462a      	mov	r2, r5
 8000f66:	990a      	ldr	r1, [sp, #40]	; 0x28
  __HAL_I2C_CLEAR_ADDRFLAG(hi2c);
 8000f68:	9b03      	ldr	r3, [sp, #12]
  if (I2C_WaitOnTXEFlagUntilTimeout(hi2c, Timeout, Tickstart) != HAL_OK)
 8000f6a:	4620      	mov	r0, r4
 8000f6c:	f7ff ff47 	bl	8000dfe <I2C_WaitOnTXEFlagUntilTimeout>
 8000f70:	b140      	cbz	r0, 8000f84 <I2C_RequestMemoryRead+0x8c>
    if (hi2c->ErrorCode == HAL_I2C_ERROR_AF)
 8000f72:	6c23      	ldr	r3, [r4, #64]	; 0x40
 8000f74:	2b04      	cmp	r3, #4
      SET_BIT(hi2c->Instance->CR1, I2C_CR1_STOP);
 8000f76:	bf01      	itttt	eq
 8000f78:	6822      	ldreq	r2, [r4, #0]
 8000f7a:	6813      	ldreq	r3, [r2, #0]
 8000f7c:	f443 7300 	orreq.w	r3, r3, #512	; 0x200
 8000f80:	6013      	streq	r3, [r2, #0]
 8000f82:	e7e7      	b.n	8000f54 <I2C_RequestMemoryRead+0x5c>
  if (MemAddSize == I2C_MEMADD_SIZE_8BIT)
 8000f84:	f1b8 0f01 	cmp.w	r8, #1
 8000f88:	6823      	ldr	r3, [r4, #0]
 8000f8a:	d125      	bne.n	8000fd8 <I2C_RequestMemoryRead+0xe0>
    hi2c->Instance->DR = I2C_MEM_ADD_LSB(MemAddress);
 8000f8c:	b2f6      	uxtb	r6, r6
 8000f8e:	611e      	str	r6, [r3, #16]
  if (I2C_WaitOnTXEFlagUntilTimeout(hi2c, Timeout, Tickstart) != HAL_OK)
 8000f90:	462a      	mov	r2, r5
 8000f92:	990a      	ldr	r1, [sp, #40]	; 0x28
 8000f94:	4620      	mov	r0, r4
 8000f96:	f7ff ff32 	bl	8000dfe <I2C_WaitOnTXEFlagUntilTimeout>
 8000f9a:	4602      	mov	r2, r0
 8000f9c:	2800      	cmp	r0, #0
 8000f9e:	d1e8      	bne.n	8000f72 <I2C_RequestMemoryRead+0x7a>
  SET_BIT(hi2c->Instance->CR1, I2C_CR1_START);
 8000fa0:	6821      	ldr	r1, [r4, #0]
 8000fa2:	680b      	ldr	r3, [r1, #0]
 8000fa4:	f443 7380 	orr.w	r3, r3, #256	; 0x100
 8000fa8:	600b      	str	r3, [r1, #0]
  if (I2C_WaitOnFlagUntilTimeout(hi2c, I2C_FLAG_SB, RESET, Timeout, Tickstart) != HAL_OK)
 8000faa:	4620      	mov	r0, r4
 8000fac:	9b0a      	ldr	r3, [sp, #40]	; 0x28
 8000fae:	9500      	str	r5, [sp, #0]
 8000fb0:	f04f 1101 	mov.w	r1, #65537	; 0x10001
 8000fb4:	f7ff fef1 	bl	8000d9a <I2C_WaitOnFlagUntilTimeout>
 8000fb8:	6823      	ldr	r3, [r4, #0]
 8000fba:	2800      	cmp	r0, #0
 8000fbc:	d1b5      	bne.n	8000f2a <I2C_RequestMemoryRead+0x32>
  hi2c->Instance->DR = I2C_7BIT_ADD_READ(DevAddress);
 8000fbe:	f047 0701 	orr.w	r7, r7, #1
 8000fc2:	611f      	str	r7, [r3, #16]
  if (I2C_WaitOnMasterAddressFlagUntilTimeout(hi2c, I2C_FLAG_ADDR, Timeout, Tickstart) != HAL_OK)
 8000fc4:	9a0a      	ldr	r2, [sp, #40]	; 0x28
 8000fc6:	490a      	ldr	r1, [pc, #40]	; (8000ff0 <I2C_RequestMemoryRead+0xf8>)
 8000fc8:	462b      	mov	r3, r5
 8000fca:	4620      	mov	r0, r4
 8000fcc:	f7ff fe4b 	bl	8000c66 <I2C_WaitOnMasterAddressFlagUntilTimeout>
    return HAL_TIMEOUT;
 8000fd0:	3000      	adds	r0, #0
 8000fd2:	bf18      	it	ne
 8000fd4:	2001      	movne	r0, #1
 8000fd6:	e7af      	b.n	8000f38 <I2C_RequestMemoryRead+0x40>
    hi2c->Instance->DR = I2C_MEM_ADD_MSB(MemAddress);
 8000fd8:	0a32      	lsrs	r2, r6, #8
 8000fda:	611a      	str	r2, [r3, #16]
    if (I2C_WaitOnTXEFlagUntilTimeout(hi2c, Timeout, Tickstart) != HAL_OK)
 8000fdc:	990a      	ldr	r1, [sp, #40]	; 0x28
 8000fde:	462a      	mov	r2, r5
 8000fe0:	4620      	mov	r0, r4
 8000fe2:	f7ff ff0c 	bl	8000dfe <I2C_WaitOnTXEFlagUntilTimeout>
 8000fe6:	2800      	cmp	r0, #0
 8000fe8:	d1c3      	bne.n	8000f72 <I2C_RequestMemoryRead+0x7a>
    hi2c->Instance->DR = I2C_MEM_ADD_LSB(MemAddress);
 8000fea:	6823      	ldr	r3, [r4, #0]
 8000fec:	e7ce      	b.n	8000f8c <I2C_RequestMemoryRead+0x94>
 8000fee:	bf00      	nop
 8000ff0:	00010002 	.word	0x00010002

08000ff4 <HAL_I2C_Init>:
{
 8000ff4:	b570      	push	{r4, r5, r6, lr}
  if (hi2c == NULL)
 8000ff6:	4604      	mov	r4, r0
 8000ff8:	b908      	cbnz	r0, 8000ffe <HAL_I2C_Init+0xa>
    return HAL_ERROR;
 8000ffa:	2001      	movs	r0, #1
 8000ffc:	bd70      	pop	{r4, r5, r6, pc}
  if (hi2c->State == HAL_I2C_STATE_RESET)
 8000ffe:	f890 303d 	ldrb.w	r3, [r0, #61]	; 0x3d
 8001002:	f003 02ff 	and.w	r2, r3, #255	; 0xff
 8001006:	b91b      	cbnz	r3, 8001010 <HAL_I2C_Init+0x1c>
    hi2c->Lock = HAL_UNLOCKED;
 8001008:	f880 203c 	strb.w	r2, [r0, #60]	; 0x3c
    HAL_I2C_MspInit(hi2c);
 800100c:	f001 f9b0 	bl	8002370 <HAL_I2C_MspInit>
  hi2c->State = HAL_I2C_STATE_BUSY;
 8001010:	2324      	movs	r3, #36	; 0x24
 8001012:	f884 303d 	strb.w	r3, [r4, #61]	; 0x3d
  __HAL_I2C_DISABLE(hi2c);
 8001016:	6823      	ldr	r3, [r4, #0]
 8001018:	681a      	ldr	r2, [r3, #0]
 800101a:	f022 0201 	bic.w	r2, r2, #1
 800101e:	601a      	str	r2, [r3, #0]
  hi2c->Instance->CR1 |= I2C_CR1_SWRST;
 8001020:	681a      	ldr	r2, [r3, #0]
 8001022:	f442 4200 	orr.w	r2, r2, #32768	; 0x8000
 8001026:	601a      	str	r2, [r3, #0]
  hi2c->Instance->CR1 &= ~I2C_CR1_SWRST;
 8001028:	681a      	ldr	r2, [r3, #0]
 800102a:	f422 4200 	bic.w	r2, r2, #32768	; 0x8000
 800102e:	601a      	str	r2, [r3, #0]
  pclk1 = HAL_RCC_GetPCLK1Freq();
 8001030:	f000 fd64 	bl	8001afc <HAL_RCC_GetPCLK1Freq>
  if (I2C_MIN_PCLK_FREQ(pclk1, hi2c->Init.ClockSpeed) == 1U)
 8001034:	6865      	ldr	r5, [r4, #4]
 8001036:	4b41      	ldr	r3, [pc, #260]	; (800113c <HAL_I2C_Init+0x148>)
 8001038:	429d      	cmp	r5, r3
 800103a:	d84d      	bhi.n	80010d8 <HAL_I2C_Init+0xe4>
 800103c:	4b40      	ldr	r3, [pc, #256]	; (8001140 <HAL_I2C_Init+0x14c>)
 800103e:	4298      	cmp	r0, r3
 8001040:	d9db      	bls.n	8000ffa <HAL_I2C_Init+0x6>
  MODIFY_REG(hi2c->Instance->CR2, I2C_CR2_FREQ, freqrange);
 8001042:	6822      	ldr	r2, [r4, #0]
  freqrange = I2C_FREQRANGE(pclk1);
 8001044:	493f      	ldr	r1, [pc, #252]	; (8001144 <HAL_I2C_Init+0x150>)
  MODIFY_REG(hi2c->Instance->CR2, I2C_CR2_FREQ, freqrange);
 8001046:	6853      	ldr	r3, [r2, #4]
  freqrange = I2C_FREQRANGE(pclk1);
 8001048:	fbb0 f1f1 	udiv	r1, r0, r1
  MODIFY_REG(hi2c->Instance->CR2, I2C_CR2_FREQ, freqrange);
 800104c:	f023 033f 	bic.w	r3, r3, #63	; 0x3f
 8001050:	430b      	orrs	r3, r1
 8001052:	6053      	str	r3, [r2, #4]
  MODIFY_REG(hi2c->Instance->TRISE, I2C_TRISE_TRISE, I2C_RISE_TIME(freqrange, hi2c->Init.ClockSpeed));
 8001054:	6a13      	ldr	r3, [r2, #32]
 8001056:	f023 033f 	bic.w	r3, r3, #63	; 0x3f
 800105a:	3101      	adds	r1, #1
 800105c:	4319      	orrs	r1, r3
 800105e:	6211      	str	r1, [r2, #32]
  MODIFY_REG(hi2c->Instance->CCR, (I2C_CCR_FS | I2C_CCR_DUTY | I2C_CCR_CCR), I2C_SPEED(pclk1, hi2c->Init.ClockSpeed, hi2c->Init.DutyCycle));
 8001060:	69d1      	ldr	r1, [r2, #28]
 8001062:	4b36      	ldr	r3, [pc, #216]	; (800113c <HAL_I2C_Init+0x148>)
 8001064:	f421 414f 	bic.w	r1, r1, #52992	; 0xcf00
 8001068:	429d      	cmp	r5, r3
 800106a:	f021 01ff 	bic.w	r1, r1, #255	; 0xff
 800106e:	f100 30ff 	add.w	r0, r0, #4294967295
 8001072:	d848      	bhi.n	8001106 <HAL_I2C_Init+0x112>
 8001074:	006d      	lsls	r5, r5, #1
 8001076:	fbb0 f0f5 	udiv	r0, r0, r5
 800107a:	3001      	adds	r0, #1
 800107c:	f3c0 030b 	ubfx	r3, r0, #0, #12
 8001080:	2b04      	cmp	r3, #4
 8001082:	bf38      	it	cc
 8001084:	2304      	movcc	r3, #4
 8001086:	430b      	orrs	r3, r1
 8001088:	61d3      	str	r3, [r2, #28]
  MODIFY_REG(hi2c->Instance->CR1, (I2C_CR1_ENGC | I2C_CR1_NOSTRETCH), (hi2c->Init.GeneralCallMode | hi2c->Init.NoStretchMode));
 800108a:	6811      	ldr	r1, [r2, #0]
 800108c:	6a20      	ldr	r0, [r4, #32]
 800108e:	69e3      	ldr	r3, [r4, #28]
 8001090:	f021 01c0 	bic.w	r1, r1, #192	; 0xc0
 8001094:	4303      	orrs	r3, r0
 8001096:	430b      	orrs	r3, r1
 8001098:	6013      	str	r3, [r2, #0]
  MODIFY_REG(hi2c->Instance->OAR1, (I2C_OAR1_ADDMODE | I2C_OAR1_ADD8_9 | I2C_OAR1_ADD1_7 | I2C_OAR1_ADD0), (hi2c->Init.AddressingMode | hi2c->Init.OwnAddress1));
 800109a:	6891      	ldr	r1, [r2, #8]
 800109c:	68e0      	ldr	r0, [r4, #12]
 800109e:	6923      	ldr	r3, [r4, #16]
 80010a0:	f421 4103 	bic.w	r1, r1, #33536	; 0x8300
 80010a4:	4303      	orrs	r3, r0
 80010a6:	f021 01ff 	bic.w	r1, r1, #255	; 0xff
 80010aa:	430b      	orrs	r3, r1
 80010ac:	6093      	str	r3, [r2, #8]
  MODIFY_REG(hi2c->Instance->OAR2, (I2C_OAR2_ENDUAL | I2C_OAR2_ADD2), (hi2c->Init.DualAddressMode | hi2c->Init.OwnAddress2));
 80010ae:	68d1      	ldr	r1, [r2, #12]
 80010b0:	69a0      	ldr	r0, [r4, #24]
 80010b2:	6963      	ldr	r3, [r4, #20]
 80010b4:	f021 01ff 	bic.w	r1, r1, #255	; 0xff
 80010b8:	4303      	orrs	r3, r0
 80010ba:	430b      	orrs	r3, r1
 80010bc:	60d3      	str	r3, [r2, #12]
  __HAL_I2C_ENABLE(hi2c);
 80010be:	6813      	ldr	r3, [r2, #0]
 80010c0:	f043 0301 	orr.w	r3, r3, #1
 80010c4:	6013      	str	r3, [r2, #0]
  hi2c->ErrorCode = HAL_I2C_ERROR_NONE;
 80010c6:	2000      	movs	r0, #0
  hi2c->State = HAL_I2C_STATE_READY;
 80010c8:	2320      	movs	r3, #32
  hi2c->ErrorCode = HAL_I2C_ERROR_NONE;
 80010ca:	6420      	str	r0, [r4, #64]	; 0x40
  hi2c->State = HAL_I2C_STATE_READY;
 80010cc:	f884 303d 	strb.w	r3, [r4, #61]	; 0x3d
  hi2c->PreviousState = I2C_STATE_NONE;
 80010d0:	6320      	str	r0, [r4, #48]	; 0x30
  hi2c->Mode = HAL_I2C_MODE_NONE;
 80010d2:	f884 003e 	strb.w	r0, [r4, #62]	; 0x3e
  return HAL_OK;
 80010d6:	bd70      	pop	{r4, r5, r6, pc}
  if (I2C_MIN_PCLK_FREQ(pclk1, hi2c->Init.ClockSpeed) == 1U)
 80010d8:	4b1b      	ldr	r3, [pc, #108]	; (8001148 <HAL_I2C_Init+0x154>)
 80010da:	4298      	cmp	r0, r3
 80010dc:	d98d      	bls.n	8000ffa <HAL_I2C_Init+0x6>
  MODIFY_REG(hi2c->Instance->CR2, I2C_CR2_FREQ, freqrange);
 80010de:	6822      	ldr	r2, [r4, #0]
  freqrange = I2C_FREQRANGE(pclk1);
 80010e0:	4e18      	ldr	r6, [pc, #96]	; (8001144 <HAL_I2C_Init+0x150>)
  MODIFY_REG(hi2c->Instance->CR2, I2C_CR2_FREQ, freqrange);
 80010e2:	6853      	ldr	r3, [r2, #4]
  freqrange = I2C_FREQRANGE(pclk1);
 80010e4:	fbb0 f6f6 	udiv	r6, r0, r6
  MODIFY_REG(hi2c->Instance->CR2, I2C_CR2_FREQ, freqrange);
 80010e8:	f023 033f 	bic.w	r3, r3, #63	; 0x3f
 80010ec:	4333      	orrs	r3, r6
 80010ee:	6053      	str	r3, [r2, #4]
  MODIFY_REG(hi2c->Instance->TRISE, I2C_TRISE_TRISE, I2C_RISE_TIME(freqrange, hi2c->Init.ClockSpeed));
 80010f0:	6a13      	ldr	r3, [r2, #32]
 80010f2:	f44f 7196 	mov.w	r1, #300	; 0x12c
 80010f6:	4371      	muls	r1, r6
 80010f8:	f023 033f 	bic.w	r3, r3, #63	; 0x3f
 80010fc:	f44f 767a 	mov.w	r6, #1000	; 0x3e8
 8001100:	fbb1 f1f6 	udiv	r1, r1, r6
 8001104:	e7a9      	b.n	800105a <HAL_I2C_Init+0x66>
  MODIFY_REG(hi2c->Instance->CCR, (I2C_CCR_FS | I2C_CCR_DUTY | I2C_CCR_CCR), I2C_SPEED(pclk1, hi2c->Init.ClockSpeed, hi2c->Init.DutyCycle));
 8001106:	68a3      	ldr	r3, [r4, #8]
 8001108:	b953      	cbnz	r3, 8001120 <HAL_I2C_Init+0x12c>
 800110a:	eb05 0345 	add.w	r3, r5, r5, lsl #1
 800110e:	fbb0 f0f3 	udiv	r0, r0, r3
 8001112:	1c43      	adds	r3, r0, #1
 8001114:	f3c3 030b 	ubfx	r3, r3, #0, #12
 8001118:	b16b      	cbz	r3, 8001136 <HAL_I2C_Init+0x142>
 800111a:	f443 4300 	orr.w	r3, r3, #32768	; 0x8000
 800111e:	e7b2      	b.n	8001086 <HAL_I2C_Init+0x92>
 8001120:	2319      	movs	r3, #25
 8001122:	436b      	muls	r3, r5
 8001124:	fbb0 f0f3 	udiv	r0, r0, r3
 8001128:	1c43      	adds	r3, r0, #1
 800112a:	f3c3 030b 	ubfx	r3, r3, #0, #12
 800112e:	b113      	cbz	r3, 8001136 <HAL_I2C_Init+0x142>
 8001130:	f443 4340 	orr.w	r3, r3, #49152	; 0xc000
 8001134:	e7a7      	b.n	8001086 <HAL_I2C_Init+0x92>
 8001136:	2301      	movs	r3, #1
 8001138:	e7a5      	b.n	8001086 <HAL_I2C_Init+0x92>
 800113a:	bf00      	nop
 800113c:	000186a0 	.word	0x000186a0
 8001140:	001e847f 	.word	0x001e847f
 8001144:	000f4240 	.word	0x000f4240
 8001148:	003d08ff 	.word	0x003d08ff

0800114c <HAL_I2C_Mem_Write>:
{
 800114c:	e92d 43f7 	stmdb	sp!, {r0, r1, r2, r4, r5, r6, r7, r8, r9, lr}
 8001150:	4604      	mov	r4, r0
 8001152:	4699      	mov	r9, r3
 8001154:	460f      	mov	r7, r1
 8001156:	4690      	mov	r8, r2
 8001158:	9e0c      	ldr	r6, [sp, #48]	; 0x30
  uint32_t tickstart = HAL_GetTick();
 800115a:	f7ff fa19 	bl	8000590 <HAL_GetTick>
  if (hi2c->State == HAL_I2C_STATE_READY)
 800115e:	f894 303d 	ldrb.w	r3, [r4, #61]	; 0x3d
 8001162:	2b20      	cmp	r3, #32
  uint32_t tickstart = HAL_GetTick();
 8001164:	4605      	mov	r5, r0
  if (hi2c->State == HAL_I2C_STATE_READY)
 8001166:	d003      	beq.n	8001170 <HAL_I2C_Mem_Write+0x24>
    return HAL_BUSY;
 8001168:	2002      	movs	r0, #2
}
 800116a:	b003      	add	sp, #12
 800116c:	e8bd 83f0 	ldmia.w	sp!, {r4, r5, r6, r7, r8, r9, pc}
    if (I2C_WaitOnFlagUntilTimeout(hi2c, I2C_FLAG_BUSY, SET, I2C_TIMEOUT_BUSY_FLAG, tickstart) != HAL_OK)
 8001170:	9000      	str	r0, [sp, #0]
 8001172:	2319      	movs	r3, #25
 8001174:	2201      	movs	r2, #1
 8001176:	493b      	ldr	r1, [pc, #236]	; (8001264 <HAL_I2C_Mem_Write+0x118>)
 8001178:	4620      	mov	r0, r4
 800117a:	f7ff fe0e 	bl	8000d9a <I2C_WaitOnFlagUntilTimeout>
 800117e:	2800      	cmp	r0, #0
 8001180:	d1f2      	bne.n	8001168 <HAL_I2C_Mem_Write+0x1c>
    __HAL_LOCK(hi2c);
 8001182:	f894 303c 	ldrb.w	r3, [r4, #60]	; 0x3c
 8001186:	2b01      	cmp	r3, #1
 8001188:	d0ee      	beq.n	8001168 <HAL_I2C_Mem_Write+0x1c>
 800118a:	2301      	movs	r3, #1
 800118c:	f884 303c 	strb.w	r3, [r4, #60]	; 0x3c
    if ((hi2c->Instance->CR1 & I2C_CR1_PE) != I2C_CR1_PE)
 8001190:	6823      	ldr	r3, [r4, #0]
 8001192:	681a      	ldr	r2, [r3, #0]
 8001194:	07d1      	lsls	r1, r2, #31
      __HAL_I2C_ENABLE(hi2c);
 8001196:	bf5e      	ittt	pl
 8001198:	681a      	ldrpl	r2, [r3, #0]
 800119a:	f042 0201 	orrpl.w	r2, r2, #1
 800119e:	601a      	strpl	r2, [r3, #0]
    CLEAR_BIT(hi2c->Instance->CR1, I2C_CR1_POS);
 80011a0:	681a      	ldr	r2, [r3, #0]
 80011a2:	f422 6200 	bic.w	r2, r2, #2048	; 0x800
 80011a6:	601a      	str	r2, [r3, #0]
    hi2c->State     = HAL_I2C_STATE_BUSY_TX;
 80011a8:	2321      	movs	r3, #33	; 0x21
 80011aa:	f884 303d 	strb.w	r3, [r4, #61]	; 0x3d
    hi2c->Mode      = HAL_I2C_MODE_MEM;
 80011ae:	2340      	movs	r3, #64	; 0x40
 80011b0:	f884 303e 	strb.w	r3, [r4, #62]	; 0x3e
    hi2c->ErrorCode = HAL_I2C_ERROR_NONE;
 80011b4:	2300      	movs	r3, #0
 80011b6:	6423      	str	r3, [r4, #64]	; 0x40
    hi2c->pBuffPtr    = pData;
 80011b8:	9b0a      	ldr	r3, [sp, #40]	; 0x28
 80011ba:	6263      	str	r3, [r4, #36]	; 0x24
    hi2c->XferCount   = Size;
 80011bc:	f8bd 302c 	ldrh.w	r3, [sp, #44]	; 0x2c
 80011c0:	8563      	strh	r3, [r4, #42]	; 0x2a
    hi2c->XferSize    = hi2c->XferCount;
 80011c2:	8d63      	ldrh	r3, [r4, #42]	; 0x2a
 80011c4:	8523      	strh	r3, [r4, #40]	; 0x28
    hi2c->XferOptions = I2C_NO_OPTION_FRAME;
 80011c6:	4b28      	ldr	r3, [pc, #160]	; (8001268 <HAL_I2C_Mem_Write+0x11c>)
 80011c8:	62e3      	str	r3, [r4, #44]	; 0x2c
    if (I2C_RequestMemoryWrite(hi2c, DevAddress, MemAddress, MemAddSize, Timeout, tickstart) != HAL_OK)
 80011ca:	9501      	str	r5, [sp, #4]
 80011cc:	9600      	str	r6, [sp, #0]
 80011ce:	464b      	mov	r3, r9
 80011d0:	4642      	mov	r2, r8
 80011d2:	4639      	mov	r1, r7
 80011d4:	4620      	mov	r0, r4
 80011d6:	f7ff fe39 	bl	8000e4c <I2C_RequestMemoryWrite>
 80011da:	2800      	cmp	r0, #0
 80011dc:	d02a      	beq.n	8001234 <HAL_I2C_Mem_Write+0xe8>
      return HAL_ERROR;
 80011de:	2001      	movs	r0, #1
 80011e0:	e7c3      	b.n	800116a <HAL_I2C_Mem_Write+0x1e>
      if (I2C_WaitOnTXEFlagUntilTimeout(hi2c, Timeout, tickstart) != HAL_OK)
 80011e2:	f7ff fe0c 	bl	8000dfe <I2C_WaitOnTXEFlagUntilTimeout>
 80011e6:	b140      	cbz	r0, 80011fa <HAL_I2C_Mem_Write+0xae>
      if (hi2c->ErrorCode == HAL_I2C_ERROR_AF)
 80011e8:	6c23      	ldr	r3, [r4, #64]	; 0x40
 80011ea:	2b04      	cmp	r3, #4
        SET_BIT(hi2c->Instance->CR1, I2C_CR1_STOP);
 80011ec:	bf01      	itttt	eq
 80011ee:	6822      	ldreq	r2, [r4, #0]
 80011f0:	6813      	ldreq	r3, [r2, #0]
 80011f2:	f443 7300 	orreq.w	r3, r3, #512	; 0x200
 80011f6:	6013      	streq	r3, [r2, #0]
 80011f8:	e7f1      	b.n	80011de <HAL_I2C_Mem_Write+0x92>
      hi2c->Instance->DR = *hi2c->pBuffPtr;
 80011fa:	6a63      	ldr	r3, [r4, #36]	; 0x24
 80011fc:	6827      	ldr	r7, [r4, #0]
 80011fe:	461a      	mov	r2, r3
 8001200:	f812 1b01 	ldrb.w	r1, [r2], #1
 8001204:	6139      	str	r1, [r7, #16]
      hi2c->pBuffPtr++;
 8001206:	6262      	str	r2, [r4, #36]	; 0x24
      hi2c->XferCount--;
 8001208:	8d62      	ldrh	r2, [r4, #42]	; 0x2a
      hi2c->XferSize--;
 800120a:	8d21      	ldrh	r1, [r4, #40]	; 0x28
      hi2c->XferCount--;
 800120c:	3a01      	subs	r2, #1
 800120e:	b292      	uxth	r2, r2
 8001210:	8562      	strh	r2, [r4, #42]	; 0x2a
      if ((__HAL_I2C_GET_FLAG(hi2c, I2C_FLAG_BTF) == SET) && (hi2c->XferSize != 0U))
 8001212:	697a      	ldr	r2, [r7, #20]
      hi2c->XferSize--;
 8001214:	1e48      	subs	r0, r1, #1
 8001216:	b280      	uxth	r0, r0
      if ((__HAL_I2C_GET_FLAG(hi2c, I2C_FLAG_BTF) == SET) && (hi2c->XferSize != 0U))
 8001218:	0752      	lsls	r2, r2, #29
      hi2c->XferSize--;
 800121a:	8520      	strh	r0, [r4, #40]	; 0x28
      if ((__HAL_I2C_GET_FLAG(hi2c, I2C_FLAG_BTF) == SET) && (hi2c->XferSize != 0U))
 800121c:	d50a      	bpl.n	8001234 <HAL_I2C_Mem_Write+0xe8>
 800121e:	b148      	cbz	r0, 8001234 <HAL_I2C_Mem_Write+0xe8>
        hi2c->Instance->DR = *hi2c->pBuffPtr;
 8001220:	785a      	ldrb	r2, [r3, #1]
 8001222:	613a      	str	r2, [r7, #16]
        hi2c->pBuffPtr++;
 8001224:	3302      	adds	r3, #2
 8001226:	6263      	str	r3, [r4, #36]	; 0x24
        hi2c->XferCount--;
 8001228:	8d63      	ldrh	r3, [r4, #42]	; 0x2a
 800122a:	3b01      	subs	r3, #1
        hi2c->XferSize--;
 800122c:	3902      	subs	r1, #2
        hi2c->XferCount--;
 800122e:	b29b      	uxth	r3, r3
        hi2c->XferSize--;
 8001230:	8521      	strh	r1, [r4, #40]	; 0x28
        hi2c->XferCount--;
 8001232:	8563      	strh	r3, [r4, #42]	; 0x2a
    while (hi2c->XferSize > 0U)
 8001234:	8d23      	ldrh	r3, [r4, #40]	; 0x28
      if (I2C_WaitOnTXEFlagUntilTimeout(hi2c, Timeout, tickstart) != HAL_OK)
 8001236:	462a      	mov	r2, r5
 8001238:	4631      	mov	r1, r6
 800123a:	4620      	mov	r0, r4
    while (hi2c->XferSize > 0U)
 800123c:	2b00      	cmp	r3, #0
 800123e:	d1d0      	bne.n	80011e2 <HAL_I2C_Mem_Write+0x96>
    if (I2C_WaitOnBTFFlagUntilTimeout(hi2c, Timeout, tickstart) != HAL_OK)
 8001240:	f7ff fd56 	bl	8000cf0 <I2C_WaitOnBTFFlagUntilTimeout>
 8001244:	2800      	cmp	r0, #0
 8001246:	d1cf      	bne.n	80011e8 <HAL_I2C_Mem_Write+0x9c>
    SET_BIT(hi2c->Instance->CR1, I2C_CR1_STOP);
 8001248:	6822      	ldr	r2, [r4, #0]
 800124a:	6813      	ldr	r3, [r2, #0]
 800124c:	f443 7300 	orr.w	r3, r3, #512	; 0x200
 8001250:	6013      	str	r3, [r2, #0]
    hi2c->State = HAL_I2C_STATE_READY;
 8001252:	2320      	movs	r3, #32
 8001254:	f884 303d 	strb.w	r3, [r4, #61]	; 0x3d
    __HAL_UNLOCK(hi2c);
 8001258:	f884 003c 	strb.w	r0, [r4, #60]	; 0x3c
    hi2c->Mode = HAL_I2C_MODE_NONE;
 800125c:	f884 003e 	strb.w	r0, [r4, #62]	; 0x3e
    return HAL_OK;
 8001260:	e783      	b.n	800116a <HAL_I2C_Mem_Write+0x1e>
 8001262:	bf00      	nop
 8001264:	00100002 	.word	0x00100002
 8001268:	ffff0000 	.word	0xffff0000

0800126c <HAL_I2C_Mem_Read>:
{
 800126c:	e92d 43f0 	stmdb	sp!, {r4, r5, r6, r7, r8, r9, lr}
 8001270:	4604      	mov	r4, r0
 8001272:	b087      	sub	sp, #28
 8001274:	4699      	mov	r9, r3
 8001276:	460d      	mov	r5, r1
 8001278:	4690      	mov	r8, r2
 800127a:	9f10      	ldr	r7, [sp, #64]	; 0x40
  uint32_t tickstart = HAL_GetTick();
 800127c:	f7ff f988 	bl	8000590 <HAL_GetTick>
  if (hi2c->State == HAL_I2C_STATE_READY)
 8001280:	f894 303d 	ldrb.w	r3, [r4, #61]	; 0x3d
 8001284:	2b20      	cmp	r3, #32
  uint32_t tickstart = HAL_GetTick();
 8001286:	4606      	mov	r6, r0
  if (hi2c->State == HAL_I2C_STATE_READY)
 8001288:	d004      	beq.n	8001294 <HAL_I2C_Mem_Read+0x28>
    return HAL_BUSY;
 800128a:	2502      	movs	r5, #2
}
 800128c:	4628      	mov	r0, r5
 800128e:	b007      	add	sp, #28
 8001290:	e8bd 83f0 	ldmia.w	sp!, {r4, r5, r6, r7, r8, r9, pc}
    if (I2C_WaitOnFlagUntilTimeout(hi2c, I2C_FLAG_BUSY, SET, I2C_TIMEOUT_BUSY_FLAG, tickstart) != HAL_OK)
 8001294:	9000      	str	r0, [sp, #0]
 8001296:	2319      	movs	r3, #25
 8001298:	2201      	movs	r2, #1
 800129a:	4977      	ldr	r1, [pc, #476]	; (8001478 <HAL_I2C_Mem_Read+0x20c>)
 800129c:	4620      	mov	r0, r4
 800129e:	f7ff fd7c 	bl	8000d9a <I2C_WaitOnFlagUntilTimeout>
 80012a2:	2800      	cmp	r0, #0
 80012a4:	d1f1      	bne.n	800128a <HAL_I2C_Mem_Read+0x1e>
    __HAL_LOCK(hi2c);
 80012a6:	f894 303c 	ldrb.w	r3, [r4, #60]	; 0x3c
 80012aa:	2b01      	cmp	r3, #1
 80012ac:	d0ed      	beq.n	800128a <HAL_I2C_Mem_Read+0x1e>
 80012ae:	2301      	movs	r3, #1
 80012b0:	f884 303c 	strb.w	r3, [r4, #60]	; 0x3c
    if ((hi2c->Instance->CR1 & I2C_CR1_PE) != I2C_CR1_PE)
 80012b4:	6823      	ldr	r3, [r4, #0]
 80012b6:	681a      	ldr	r2, [r3, #0]
 80012b8:	07d0      	lsls	r0, r2, #31
      __HAL_I2C_ENABLE(hi2c);
 80012ba:	bf5e      	ittt	pl
 80012bc:	681a      	ldrpl	r2, [r3, #0]
 80012be:	f042 0201 	orrpl.w	r2, r2, #1
 80012c2:	601a      	strpl	r2, [r3, #0]
    CLEAR_BIT(hi2c->Instance->CR1, I2C_CR1_POS);
 80012c4:	681a      	ldr	r2, [r3, #0]
 80012c6:	f422 6200 	bic.w	r2, r2, #2048	; 0x800
 80012ca:	601a      	str	r2, [r3, #0]
    hi2c->State     = HAL_I2C_STATE_BUSY_RX;
 80012cc:	2322      	movs	r3, #34	; 0x22
 80012ce:	f884 303d 	strb.w	r3, [r4, #61]	; 0x3d
    hi2c->Mode      = HAL_I2C_MODE_MEM;
 80012d2:	2340      	movs	r3, #64	; 0x40
 80012d4:	f884 303e 	strb.w	r3, [r4, #62]	; 0x3e
    hi2c->ErrorCode = HAL_I2C_ERROR_NONE;
 80012d8:	2300      	movs	r3, #0
 80012da:	6423      	str	r3, [r4, #64]	; 0x40
    hi2c->pBuffPtr    = pData;
 80012dc:	9b0e      	ldr	r3, [sp, #56]	; 0x38
 80012de:	6263      	str	r3, [r4, #36]	; 0x24
    hi2c->XferCount   = Size;
 80012e0:	f8bd 303c 	ldrh.w	r3, [sp, #60]	; 0x3c
 80012e4:	8563      	strh	r3, [r4, #42]	; 0x2a
    hi2c->XferSize    = hi2c->XferCount;
 80012e6:	8d63      	ldrh	r3, [r4, #42]	; 0x2a
 80012e8:	8523      	strh	r3, [r4, #40]	; 0x28
    hi2c->XferOptions = I2C_NO_OPTION_FRAME;
 80012ea:	4b64      	ldr	r3, [pc, #400]	; (800147c <HAL_I2C_Mem_Read+0x210>)
 80012ec:	62e3      	str	r3, [r4, #44]	; 0x2c
    if (I2C_RequestMemoryRead(hi2c, DevAddress, MemAddress, MemAddSize, Timeout, tickstart) != HAL_OK)
 80012ee:	4629      	mov	r1, r5
 80012f0:	9601      	str	r6, [sp, #4]
 80012f2:	9700      	str	r7, [sp, #0]
 80012f4:	464b      	mov	r3, r9
 80012f6:	4642      	mov	r2, r8
 80012f8:	4620      	mov	r0, r4
 80012fa:	f7ff fdfd 	bl	8000ef8 <I2C_RequestMemoryRead>
 80012fe:	4605      	mov	r5, r0
 8001300:	b108      	cbz	r0, 8001306 <HAL_I2C_Mem_Read+0x9a>
      return HAL_ERROR;
 8001302:	2501      	movs	r5, #1
 8001304:	e7c2      	b.n	800128c <HAL_I2C_Mem_Read+0x20>
    if (hi2c->XferSize == 0U)
 8001306:	8d22      	ldrh	r2, [r4, #40]	; 0x28
 8001308:	6823      	ldr	r3, [r4, #0]
 800130a:	b992      	cbnz	r2, 8001332 <HAL_I2C_Mem_Read+0xc6>
      __HAL_I2C_CLEAR_ADDRFLAG(hi2c);
 800130c:	9002      	str	r0, [sp, #8]
 800130e:	695a      	ldr	r2, [r3, #20]
 8001310:	9202      	str	r2, [sp, #8]
 8001312:	699a      	ldr	r2, [r3, #24]
 8001314:	9202      	str	r2, [sp, #8]
 8001316:	9a02      	ldr	r2, [sp, #8]
      SET_BIT(hi2c->Instance->CR1, I2C_CR1_STOP);
 8001318:	681a      	ldr	r2, [r3, #0]
 800131a:	f442 7200 	orr.w	r2, r2, #512	; 0x200
 800131e:	601a      	str	r2, [r3, #0]
    hi2c->State = HAL_I2C_STATE_READY;
 8001320:	2320      	movs	r3, #32
 8001322:	f884 303d 	strb.w	r3, [r4, #61]	; 0x3d
    hi2c->Mode = HAL_I2C_MODE_NONE;
 8001326:	2300      	movs	r3, #0
 8001328:	f884 303e 	strb.w	r3, [r4, #62]	; 0x3e
    __HAL_UNLOCK(hi2c);
 800132c:	f884 303c 	strb.w	r3, [r4, #60]	; 0x3c
    return HAL_OK;
 8001330:	e7ac      	b.n	800128c <HAL_I2C_Mem_Read+0x20>
    else if (hi2c->XferSize == 1U)
 8001332:	2a01      	cmp	r2, #1
 8001334:	d12c      	bne.n	8001390 <HAL_I2C_Mem_Read+0x124>
      CLEAR_BIT(hi2c->Instance->CR1, I2C_CR1_ACK);
 8001336:	681a      	ldr	r2, [r3, #0]
 8001338:	f422 6280 	bic.w	r2, r2, #1024	; 0x400
 800133c:	601a      	str	r2, [r3, #0]
      __HAL_I2C_CLEAR_ADDRFLAG(hi2c);
 800133e:	9003      	str	r0, [sp, #12]
 8001340:	695a      	ldr	r2, [r3, #20]
 8001342:	9203      	str	r2, [sp, #12]
 8001344:	699a      	ldr	r2, [r3, #24]
 8001346:	9203      	str	r2, [sp, #12]
 8001348:	9a03      	ldr	r2, [sp, #12]
      SET_BIT(hi2c->Instance->CR1, I2C_CR1_STOP);
 800134a:	681a      	ldr	r2, [r3, #0]
 800134c:	f442 7200 	orr.w	r2, r2, #512	; 0x200
 8001350:	601a      	str	r2, [r3, #0]
          if (I2C_WaitOnFlagUntilTimeout(hi2c, I2C_FLAG_BTF, RESET, Timeout, tickstart) != HAL_OK)
 8001352:	f8df 812c 	ldr.w	r8, [pc, #300]	; 8001480 <HAL_I2C_Mem_Read+0x214>
    while (hi2c->XferSize > 0U)
 8001356:	8d23      	ldrh	r3, [r4, #40]	; 0x28
 8001358:	2b00      	cmp	r3, #0
 800135a:	d0e1      	beq.n	8001320 <HAL_I2C_Mem_Read+0xb4>
      if (hi2c->XferSize <= 3U)
 800135c:	2b03      	cmp	r3, #3
 800135e:	d86e      	bhi.n	800143e <HAL_I2C_Mem_Read+0x1d2>
        if (hi2c->XferSize == 1U)
 8001360:	2b01      	cmp	r3, #1
 8001362:	d12d      	bne.n	80013c0 <HAL_I2C_Mem_Read+0x154>
          if (I2C_WaitOnRXNEFlagUntilTimeout(hi2c, Timeout, tickstart) != HAL_OK)
 8001364:	4632      	mov	r2, r6
 8001366:	4639      	mov	r1, r7
 8001368:	4620      	mov	r0, r4
 800136a:	f7ff fce7 	bl	8000d3c <I2C_WaitOnRXNEFlagUntilTimeout>
 800136e:	2800      	cmp	r0, #0
 8001370:	d1c7      	bne.n	8001302 <HAL_I2C_Mem_Read+0x96>
          *hi2c->pBuffPtr = (uint8_t)hi2c->Instance->DR;
 8001372:	6822      	ldr	r2, [r4, #0]
 8001374:	6a63      	ldr	r3, [r4, #36]	; 0x24
 8001376:	6912      	ldr	r2, [r2, #16]
 8001378:	701a      	strb	r2, [r3, #0]
          hi2c->pBuffPtr++;
 800137a:	6a63      	ldr	r3, [r4, #36]	; 0x24
 800137c:	3301      	adds	r3, #1
 800137e:	6263      	str	r3, [r4, #36]	; 0x24
          hi2c->XferSize--;
 8001380:	8d23      	ldrh	r3, [r4, #40]	; 0x28
 8001382:	3b01      	subs	r3, #1
 8001384:	8523      	strh	r3, [r4, #40]	; 0x28
          hi2c->XferCount--;
 8001386:	8d63      	ldrh	r3, [r4, #42]	; 0x2a
 8001388:	3b01      	subs	r3, #1
 800138a:	b29b      	uxth	r3, r3
 800138c:	8563      	strh	r3, [r4, #42]	; 0x2a
 800138e:	e7e2      	b.n	8001356 <HAL_I2C_Mem_Read+0xea>
    else if (hi2c->XferSize == 2U)
 8001390:	2a02      	cmp	r2, #2
 8001392:	d10e      	bne.n	80013b2 <HAL_I2C_Mem_Read+0x146>
      CLEAR_BIT(hi2c->Instance->CR1, I2C_CR1_ACK);
 8001394:	681a      	ldr	r2, [r3, #0]
 8001396:	f422 6280 	bic.w	r2, r2, #1024	; 0x400
 800139a:	601a      	str	r2, [r3, #0]
      SET_BIT(hi2c->Instance->CR1, I2C_CR1_POS);
 800139c:	681a      	ldr	r2, [r3, #0]
 800139e:	f442 6200 	orr.w	r2, r2, #2048	; 0x800
 80013a2:	601a      	str	r2, [r3, #0]
      __HAL_I2C_CLEAR_ADDRFLAG(hi2c);
 80013a4:	9004      	str	r0, [sp, #16]
 80013a6:	695a      	ldr	r2, [r3, #20]
 80013a8:	9204      	str	r2, [sp, #16]
 80013aa:	699b      	ldr	r3, [r3, #24]
 80013ac:	9304      	str	r3, [sp, #16]
 80013ae:	9b04      	ldr	r3, [sp, #16]
 80013b0:	e7cf      	b.n	8001352 <HAL_I2C_Mem_Read+0xe6>
      __HAL_I2C_CLEAR_ADDRFLAG(hi2c);
 80013b2:	9005      	str	r0, [sp, #20]
 80013b4:	695a      	ldr	r2, [r3, #20]
 80013b6:	9205      	str	r2, [sp, #20]
 80013b8:	699b      	ldr	r3, [r3, #24]
 80013ba:	9305      	str	r3, [sp, #20]
 80013bc:	9b05      	ldr	r3, [sp, #20]
 80013be:	e7c8      	b.n	8001352 <HAL_I2C_Mem_Read+0xe6>
        else if (hi2c->XferSize == 2U)
 80013c0:	2b02      	cmp	r3, #2
          if (I2C_WaitOnFlagUntilTimeout(hi2c, I2C_FLAG_BTF, RESET, Timeout, tickstart) != HAL_OK)
 80013c2:	9600      	str	r6, [sp, #0]
 80013c4:	463b      	mov	r3, r7
 80013c6:	f04f 0200 	mov.w	r2, #0
 80013ca:	4641      	mov	r1, r8
 80013cc:	4620      	mov	r0, r4
        else if (hi2c->XferSize == 2U)
 80013ce:	d119      	bne.n	8001404 <HAL_I2C_Mem_Read+0x198>
          if (I2C_WaitOnFlagUntilTimeout(hi2c, I2C_FLAG_BTF, RESET, Timeout, tickstart) != HAL_OK)
 80013d0:	f7ff fce3 	bl	8000d9a <I2C_WaitOnFlagUntilTimeout>
 80013d4:	2800      	cmp	r0, #0
 80013d6:	d194      	bne.n	8001302 <HAL_I2C_Mem_Read+0x96>
          SET_BIT(hi2c->Instance->CR1, I2C_CR1_STOP);
 80013d8:	6823      	ldr	r3, [r4, #0]
 80013da:	681a      	ldr	r2, [r3, #0]
 80013dc:	f442 7200 	orr.w	r2, r2, #512	; 0x200
 80013e0:	601a      	str	r2, [r3, #0]
          *hi2c->pBuffPtr = (uint8_t)hi2c->Instance->DR;
 80013e2:	6a62      	ldr	r2, [r4, #36]	; 0x24
 80013e4:	691b      	ldr	r3, [r3, #16]
 80013e6:	7013      	strb	r3, [r2, #0]
          hi2c->pBuffPtr++;
 80013e8:	6a62      	ldr	r2, [r4, #36]	; 0x24
 80013ea:	1c53      	adds	r3, r2, #1
 80013ec:	6263      	str	r3, [r4, #36]	; 0x24
          hi2c->XferSize--;
 80013ee:	8d23      	ldrh	r3, [r4, #40]	; 0x28
 80013f0:	3b01      	subs	r3, #1
 80013f2:	8523      	strh	r3, [r4, #40]	; 0x28
          hi2c->XferCount--;
 80013f4:	8d63      	ldrh	r3, [r4, #42]	; 0x2a
 80013f6:	3b01      	subs	r3, #1
 80013f8:	b29b      	uxth	r3, r3
 80013fa:	8563      	strh	r3, [r4, #42]	; 0x2a
          *hi2c->pBuffPtr = (uint8_t)hi2c->Instance->DR;
 80013fc:	6823      	ldr	r3, [r4, #0]
          *hi2c->pBuffPtr = (uint8_t)hi2c->Instance->DR;
 80013fe:	691b      	ldr	r3, [r3, #16]
 8001400:	7053      	strb	r3, [r2, #1]
 8001402:	e7ba      	b.n	800137a <HAL_I2C_Mem_Read+0x10e>
          if (I2C_WaitOnFlagUntilTimeout(hi2c, I2C_FLAG_BTF, RESET, Timeout, tickstart) != HAL_OK)
 8001404:	f7ff fcc9 	bl	8000d9a <I2C_WaitOnFlagUntilTimeout>
 8001408:	4602      	mov	r2, r0
 800140a:	2800      	cmp	r0, #0
 800140c:	f47f af79 	bne.w	8001302 <HAL_I2C_Mem_Read+0x96>
          CLEAR_BIT(hi2c->Instance->CR1, I2C_CR1_ACK);
 8001410:	6823      	ldr	r3, [r4, #0]
 8001412:	6819      	ldr	r1, [r3, #0]
 8001414:	f421 6180 	bic.w	r1, r1, #1024	; 0x400
 8001418:	6019      	str	r1, [r3, #0]
          *hi2c->pBuffPtr = (uint8_t)hi2c->Instance->DR;
 800141a:	6a61      	ldr	r1, [r4, #36]	; 0x24
 800141c:	691b      	ldr	r3, [r3, #16]
 800141e:	700b      	strb	r3, [r1, #0]
          hi2c->pBuffPtr++;
 8001420:	6a63      	ldr	r3, [r4, #36]	; 0x24
          if (I2C_WaitOnFlagUntilTimeout(hi2c, I2C_FLAG_BTF, RESET, Timeout, tickstart) != HAL_OK)
 8001422:	9600      	str	r6, [sp, #0]
          hi2c->pBuffPtr++;
 8001424:	3301      	adds	r3, #1
 8001426:	6263      	str	r3, [r4, #36]	; 0x24
          hi2c->XferSize--;
 8001428:	8d23      	ldrh	r3, [r4, #40]	; 0x28
 800142a:	3b01      	subs	r3, #1
 800142c:	8523      	strh	r3, [r4, #40]	; 0x28
          hi2c->XferCount--;
 800142e:	8d63      	ldrh	r3, [r4, #42]	; 0x2a
 8001430:	3b01      	subs	r3, #1
 8001432:	b29b      	uxth	r3, r3
 8001434:	8563      	strh	r3, [r4, #42]	; 0x2a
          if (I2C_WaitOnFlagUntilTimeout(hi2c, I2C_FLAG_BTF, RESET, Timeout, tickstart) != HAL_OK)
 8001436:	4641      	mov	r1, r8
 8001438:	463b      	mov	r3, r7
 800143a:	4620      	mov	r0, r4
 800143c:	e7c8      	b.n	80013d0 <HAL_I2C_Mem_Read+0x164>
        if (I2C_WaitOnRXNEFlagUntilTimeout(hi2c, Timeout, tickstart) != HAL_OK)
 800143e:	4632      	mov	r2, r6
 8001440:	4639      	mov	r1, r7
 8001442:	4620      	mov	r0, r4
 8001444:	f7ff fc7a 	bl	8000d3c <I2C_WaitOnRXNEFlagUntilTimeout>
 8001448:	2800      	cmp	r0, #0
 800144a:	f47f af5a 	bne.w	8001302 <HAL_I2C_Mem_Read+0x96>
        *hi2c->pBuffPtr = (uint8_t)hi2c->Instance->DR;
 800144e:	6822      	ldr	r2, [r4, #0]
 8001450:	6a63      	ldr	r3, [r4, #36]	; 0x24
 8001452:	6912      	ldr	r2, [r2, #16]
 8001454:	701a      	strb	r2, [r3, #0]
        hi2c->pBuffPtr++;
 8001456:	6a62      	ldr	r2, [r4, #36]	; 0x24
 8001458:	1c53      	adds	r3, r2, #1
 800145a:	6263      	str	r3, [r4, #36]	; 0x24
        hi2c->XferSize--;
 800145c:	8d23      	ldrh	r3, [r4, #40]	; 0x28
 800145e:	3b01      	subs	r3, #1
 8001460:	8523      	strh	r3, [r4, #40]	; 0x28
        hi2c->XferCount--;
 8001462:	8d63      	ldrh	r3, [r4, #42]	; 0x2a
 8001464:	3b01      	subs	r3, #1
 8001466:	b29b      	uxth	r3, r3
 8001468:	8563      	strh	r3, [r4, #42]	; 0x2a
        if (__HAL_I2C_GET_FLAG(hi2c, I2C_FLAG_BTF) == SET)
 800146a:	6823      	ldr	r3, [r4, #0]
 800146c:	6959      	ldr	r1, [r3, #20]
 800146e:	0749      	lsls	r1, r1, #29
 8001470:	f57f af71 	bpl.w	8001356 <HAL_I2C_Mem_Read+0xea>
 8001474:	e7c3      	b.n	80013fe <HAL_I2C_Mem_Read+0x192>
 8001476:	bf00      	nop
 8001478:	00100002 	.word	0x00100002
 800147c:	ffff0000 	.word	0xffff0000
 8001480:	00010004 	.word	0x00010004

08001484 <HAL_I2CEx_ConfigAnalogFilter>:
{
  /* Check the parameters */
  assert_param(IS_I2C_ALL_INSTANCE(hi2c->Instance));
  assert_param(IS_I2C_ANALOG_FILTER(AnalogFilter));

  if (hi2c->State == HAL_I2C_STATE_READY)
 8001484:	f890 203d 	ldrb.w	r2, [r0, #61]	; 0x3d
 8001488:	b2d2      	uxtb	r2, r2
 800148a:	2a20      	cmp	r2, #32
{
 800148c:	b510      	push	{r4, lr}
  if (hi2c->State == HAL_I2C_STATE_READY)
 800148e:	d116      	bne.n	80014be <HAL_I2CEx_ConfigAnalogFilter+0x3a>
  {
    hi2c->State = HAL_I2C_STATE_BUSY;
 8001490:	2324      	movs	r3, #36	; 0x24
 8001492:	f880 303d 	strb.w	r3, [r0, #61]	; 0x3d

    /* Disable the selected I2C peripheral */
    __HAL_I2C_DISABLE(hi2c);
 8001496:	6803      	ldr	r3, [r0, #0]
 8001498:	681c      	ldr	r4, [r3, #0]
 800149a:	f024 0401 	bic.w	r4, r4, #1
 800149e:	601c      	str	r4, [r3, #0]

    /* Reset I2Cx ANOFF bit */
    hi2c->Instance->FLTR &= ~(I2C_FLTR_ANOFF);
 80014a0:	6a5c      	ldr	r4, [r3, #36]	; 0x24
 80014a2:	f024 0410 	bic.w	r4, r4, #16
 80014a6:	625c      	str	r4, [r3, #36]	; 0x24

    /* Disable the analog filter */
    hi2c->Instance->FLTR |= AnalogFilter;
 80014a8:	6a5c      	ldr	r4, [r3, #36]	; 0x24
 80014aa:	4321      	orrs	r1, r4
 80014ac:	6259      	str	r1, [r3, #36]	; 0x24

    __HAL_I2C_ENABLE(hi2c);
 80014ae:	6819      	ldr	r1, [r3, #0]
 80014b0:	f041 0101 	orr.w	r1, r1, #1
 80014b4:	6019      	str	r1, [r3, #0]

    hi2c->State = HAL_I2C_STATE_READY;
 80014b6:	f880 203d 	strb.w	r2, [r0, #61]	; 0x3d

    return HAL_OK;
 80014ba:	2000      	movs	r0, #0
 80014bc:	bd10      	pop	{r4, pc}
  }
  else
  {
    return HAL_BUSY;
 80014be:	2002      	movs	r0, #2
  }
}
 80014c0:	bd10      	pop	{r4, pc}

080014c2 <HAL_I2CEx_ConfigDigitalFilter>:
  *                the configuration information for the specified I2Cx peripheral.
  * @param  DigitalFilter Coefficient of digital noise filter between 0x00 and 0x0F.
  * @retval HAL status
  */
HAL_StatusTypeDef HAL_I2CEx_ConfigDigitalFilter(I2C_HandleTypeDef *hi2c, uint32_t DigitalFilter)
{
 80014c2:	b530      	push	{r4, r5, lr}

  /* Check the parameters */
  assert_param(IS_I2C_ALL_INSTANCE(hi2c->Instance));
  assert_param(IS_I2C_DIGITAL_FILTER(DigitalFilter));

  if (hi2c->State == HAL_I2C_STATE_READY)
 80014c4:	f890 403d 	ldrb.w	r4, [r0, #61]	; 0x3d
 80014c8:	b2e4      	uxtb	r4, r4
 80014ca:	2c20      	cmp	r4, #32
 80014cc:	d116      	bne.n	80014fc <HAL_I2CEx_ConfigDigitalFilter+0x3a>
  {
    hi2c->State = HAL_I2C_STATE_BUSY;

    /* Disable the selected I2C peripheral */
    __HAL_I2C_DISABLE(hi2c);
 80014ce:	6802      	ldr	r2, [r0, #0]
    hi2c->State = HAL_I2C_STATE_BUSY;
 80014d0:	2324      	movs	r3, #36	; 0x24
 80014d2:	f880 303d 	strb.w	r3, [r0, #61]	; 0x3d
    __HAL_I2C_DISABLE(hi2c);
 80014d6:	6815      	ldr	r5, [r2, #0]
 80014d8:	f025 0501 	bic.w	r5, r5, #1
 80014dc:	6015      	str	r5, [r2, #0]

    /* Get the old register value */
    tmpreg = hi2c->Instance->FLTR;
 80014de:	6a55      	ldr	r5, [r2, #36]	; 0x24

    /* Reset I2Cx DNF bit [3:0] */
    tmpreg &= ~(I2C_FLTR_DNF);
 80014e0:	f64f 73f0 	movw	r3, #65520	; 0xfff0
 80014e4:	402b      	ands	r3, r5

    /* Set I2Cx DNF coefficient */
    tmpreg |= DigitalFilter;
 80014e6:	430b      	orrs	r3, r1

    /* Store the new register value */
    hi2c->Instance->FLTR = tmpreg;
 80014e8:	b29b      	uxth	r3, r3
 80014ea:	6253      	str	r3, [r2, #36]	; 0x24

    __HAL_I2C_ENABLE(hi2c);
 80014ec:	6813      	ldr	r3, [r2, #0]
 80014ee:	f043 0301 	orr.w	r3, r3, #1
 80014f2:	6013      	str	r3, [r2, #0]

    hi2c->State = HAL_I2C_STATE_READY;
 80014f4:	f880 403d 	strb.w	r4, [r0, #61]	; 0x3d

    return HAL_OK;
 80014f8:	2000      	movs	r0, #0
 80014fa:	bd30      	pop	{r4, r5, pc}
  }
  else
  {
    return HAL_BUSY;
 80014fc:	2002      	movs	r0, #2
  }
}
 80014fe:	bd30      	pop	{r4, r5, pc}

08001500 <HAL_PCD_Init>:
  *         parameters in the PCD_InitTypeDef and initialize the associated handle.
  * @param  hpcd PCD handle
  * @retval HAL status
  */
HAL_StatusTypeDef HAL_PCD_Init(PCD_HandleTypeDef *hpcd)
{
 8001500:	b5f0      	push	{r4, r5, r6, r7, lr}
  USB_OTG_GlobalTypeDef *USBx;
  uint8_t i;

  /* Check the PCD handle allocation */
  if (hpcd == NULL)
 8001502:	4604      	mov	r4, r0
{
 8001504:	b08b      	sub	sp, #44	; 0x2c
  if (hpcd == NULL)
 8001506:	b360      	cbz	r0, 8001562 <HAL_PCD_Init+0x62>
  /* Check the parameters */
  assert_param(IS_PCD_ALL_INSTANCE(hpcd->Instance));

  USBx = hpcd->Instance;

  if (hpcd->State == HAL_PCD_STATE_RESET)
 8001508:	f890 33bd 	ldrb.w	r3, [r0, #957]	; 0x3bd
  USBx = hpcd->Instance;
 800150c:	6805      	ldr	r5, [r0, #0]
  if (hpcd->State == HAL_PCD_STATE_RESET)
 800150e:	f003 02ff 	and.w	r2, r3, #255	; 0xff
 8001512:	b91b      	cbnz	r3, 800151c <HAL_PCD_Init+0x1c>
  {
    /* Allocate lock resource and initialize it */
    hpcd->Lock = HAL_UNLOCKED;
 8001514:	f880 23bc 	strb.w	r2, [r0, #956]	; 0x3bc

    /* Init the low level hardware */
    hpcd->MspInitCallback(hpcd);
#else
    /* Init the low level hardware : GPIO, CLOCK, NVIC... */
    HAL_PCD_MspInit(hpcd);
 8001518:	f000 ff9a 	bl	8002450 <HAL_PCD_MspInit>
#endif /* (USE_HAL_PCD_REGISTER_CALLBACKS) */
  }

  hpcd->State = HAL_PCD_STATE_BUSY;
 800151c:	2303      	movs	r3, #3
 800151e:	f884 33bd 	strb.w	r3, [r4, #957]	; 0x3bd

  /* Disable DMA mode for FS instance */
  if ((USBx->CID & (0x1U << 8)) == 0U)
 8001522:	6beb      	ldr	r3, [r5, #60]	; 0x3c
  {
    hpcd->Init.dma_enable = 0U;
  }

  /* Disable the Interrupts */
  __HAL_PCD_DISABLE(hpcd);
 8001524:	4625      	mov	r5, r4
  if ((USBx->CID & (0x1U << 8)) == 0U)
 8001526:	f413 7380 	ands.w	r3, r3, #256	; 0x100
  __HAL_PCD_DISABLE(hpcd);
 800152a:	f855 0b10 	ldr.w	r0, [r5], #16
    hpcd->Init.dma_enable = 0U;
 800152e:	bf08      	it	eq
 8001530:	6123      	streq	r3, [r4, #16]
  __HAL_PCD_DISABLE(hpcd);
 8001532:	f000 fbf7 	bl	8001d24 <USB_DisableGlobalInt>

  /*Init the Core (common init.) */
  if (USB_CoreInit(hpcd->Instance, hpcd->Init) != HAL_OK)
 8001536:	cd0f      	ldmia	r5!, {r0, r1, r2, r3}
 8001538:	466e      	mov	r6, sp
 800153a:	c60f      	stmia	r6!, {r0, r1, r2, r3}
 800153c:	cd0f      	ldmia	r5!, {r0, r1, r2, r3}
 800153e:	c60f      	stmia	r6!, {r0, r1, r2, r3}
 8001540:	e895 0003 	ldmia.w	r5, {r0, r1}
 8001544:	e886 0003 	stmia.w	r6, {r0, r1}
 8001548:	4625      	mov	r5, r4
 800154a:	1d27      	adds	r7, r4, #4
 800154c:	e897 000e 	ldmia.w	r7, {r1, r2, r3}
 8001550:	f855 0b10 	ldr.w	r0, [r5], #16
 8001554:	f000 fba6 	bl	8001ca4 <USB_CoreInit>
 8001558:	4606      	mov	r6, r0
 800155a:	b120      	cbz	r0, 8001566 <HAL_PCD_Init+0x66>
  {
    hpcd->State = HAL_PCD_STATE_ERROR;
 800155c:	2302      	movs	r3, #2
 800155e:	f884 33bd 	strb.w	r3, [r4, #957]	; 0x3bd
    return HAL_ERROR;
 8001562:	2501      	movs	r5, #1
 8001564:	e050      	b.n	8001608 <HAL_PCD_Init+0x108>
    return HAL_ERROR;
  }

  /* Force Device Mode*/
  (void)USB_SetCurrentMode(hpcd->Instance, USB_DEVICE_MODE);
 8001566:	4601      	mov	r1, r0
 8001568:	6820      	ldr	r0, [r4, #0]
 800156a:	f000 fbe1 	bl	8001d30 <USB_SetCurrentMode>

  /* Init endpoints structures */
  for (i = 0U; i < hpcd->Init.dev_endpoints; i++)
 800156e:	4630      	mov	r0, r6
 8001570:	f8d4 e004 	ldr.w	lr, [r4, #4]
  {
    /* Init ep structure */
    hpcd->IN_ep[i].is_in = 1U;
 8001574:	261c      	movs	r6, #28
 8001576:	f04f 0c01 	mov.w	ip, #1
    hpcd->IN_ep[i].num = i;
    hpcd->IN_ep[i].tx_fifo_num = i;
    /* Control until ep is activated */
    hpcd->IN_ep[i].type = EP_TYPE_CTRL;
 800157a:	4601      	mov	r1, r0
 800157c:	b2c2      	uxtb	r2, r0
  for (i = 0U; i < hpcd->Init.dev_endpoints; i++)
 800157e:	4596      	cmp	lr, r2
 8001580:	f100 0001 	add.w	r0, r0, #1
 8001584:	d81c      	bhi.n	80015c0 <HAL_PCD_Init+0xc0>
 8001586:	2300      	movs	r3, #0
    hpcd->IN_ep[i].xfer_len = 0U;
  }

  for (i = 0U; i < hpcd->Init.dev_endpoints; i++)
  {
    hpcd->OUT_ep[i].is_in = 0U;
 8001588:	261c      	movs	r6, #28
 800158a:	4619      	mov	r1, r3
 800158c:	b2d8      	uxtb	r0, r3
  for (i = 0U; i < hpcd->Init.dev_endpoints; i++)
 800158e:	4586      	cmp	lr, r0
 8001590:	f103 0301 	add.w	r3, r3, #1
 8001594:	d822      	bhi.n	80015dc <HAL_PCD_Init+0xdc>
    hpcd->OUT_ep[i].xfer_buff = 0U;
    hpcd->OUT_ep[i].xfer_len = 0U;
  }

  /* Init Device */
  if (USB_DevInit(hpcd->Instance, hpcd->Init) != HAL_OK)
 8001596:	cd0f      	ldmia	r5!, {r0, r1, r2, r3}
 8001598:	466e      	mov	r6, sp
 800159a:	c60f      	stmia	r6!, {r0, r1, r2, r3}
 800159c:	cd0f      	ldmia	r5!, {r0, r1, r2, r3}
 800159e:	c60f      	stmia	r6!, {r0, r1, r2, r3}
 80015a0:	e895 0003 	ldmia.w	r5, {r0, r1}
 80015a4:	e886 0003 	stmia.w	r6, {r0, r1}
 80015a8:	e897 000e 	ldmia.w	r7, {r1, r2, r3}
 80015ac:	6820      	ldr	r0, [r4, #0]
 80015ae:	f000 fc01 	bl	8001db4 <USB_DevInit>
 80015b2:	2301      	movs	r3, #1
 80015b4:	4605      	mov	r5, r0
 80015b6:	b300      	cbz	r0, 80015fa <HAL_PCD_Init+0xfa>
  {
    hpcd->State = HAL_PCD_STATE_ERROR;
 80015b8:	2202      	movs	r2, #2
 80015ba:	f884 23bd 	strb.w	r2, [r4, #957]	; 0x3bd
 80015be:	e7d0      	b.n	8001562 <HAL_PCD_Init+0x62>
    hpcd->IN_ep[i].is_in = 1U;
 80015c0:	fb06 4302 	mla	r3, r6, r2, r4
 80015c4:	f883 c03d 	strb.w	ip, [r3, #61]	; 0x3d
    hpcd->IN_ep[i].num = i;
 80015c8:	f883 203c 	strb.w	r2, [r3, #60]	; 0x3c
    hpcd->IN_ep[i].tx_fifo_num = i;
 80015cc:	f8a3 2042 	strh.w	r2, [r3, #66]	; 0x42
    hpcd->IN_ep[i].type = EP_TYPE_CTRL;
 80015d0:	f883 103f 	strb.w	r1, [r3, #63]	; 0x3f
    hpcd->IN_ep[i].maxpacket = 0U;
 80015d4:	6459      	str	r1, [r3, #68]	; 0x44
    hpcd->IN_ep[i].xfer_buff = 0U;
 80015d6:	6499      	str	r1, [r3, #72]	; 0x48
    hpcd->IN_ep[i].xfer_len = 0U;
 80015d8:	6519      	str	r1, [r3, #80]	; 0x50
 80015da:	e7cf      	b.n	800157c <HAL_PCD_Init+0x7c>
    hpcd->OUT_ep[i].is_in = 0U;
 80015dc:	fb06 4200 	mla	r2, r6, r0, r4
 80015e0:	f882 11fd 	strb.w	r1, [r2, #509]	; 0x1fd
    hpcd->OUT_ep[i].num = i;
 80015e4:	f882 01fc 	strb.w	r0, [r2, #508]	; 0x1fc
    hpcd->OUT_ep[i].type = EP_TYPE_CTRL;
 80015e8:	f882 11ff 	strb.w	r1, [r2, #511]	; 0x1ff
    hpcd->OUT_ep[i].maxpacket = 0U;
 80015ec:	f8c2 1204 	str.w	r1, [r2, #516]	; 0x204
    hpcd->OUT_ep[i].xfer_buff = 0U;
 80015f0:	f8c2 1208 	str.w	r1, [r2, #520]	; 0x208
    hpcd->OUT_ep[i].xfer_len = 0U;
 80015f4:	f8c2 1210 	str.w	r1, [r2, #528]	; 0x210
 80015f8:	e7c8      	b.n	800158c <HAL_PCD_Init+0x8c>
    return HAL_ERROR;
  }

  hpcd->USB_Address = 0U;
 80015fa:	f884 0038 	strb.w	r0, [r4, #56]	; 0x38
  hpcd->State = HAL_PCD_STATE_READY;
 80015fe:	f884 33bd 	strb.w	r3, [r4, #957]	; 0x3bd
  if (hpcd->Init.lpm_enable == 1U)
  {
    (void)HAL_PCDEx_ActivateLPM(hpcd);
  }
  #endif /* defined(STM32F446xx) || defined(STM32F469xx) || defined(STM32F479xx) || defined(STM32F412Zx) || defined(STM32F412Vx) || defined(STM32F412Rx) || defined(STM32F412Cx) || defined(STM32F413xx) || defined(STM32F423xx) */
  (void)USB_DevDisconnect(hpcd->Instance);
 8001602:	6820      	ldr	r0, [r4, #0]
 8001604:	f000 fc90 	bl	8001f28 <USB_DevDisconnect>

  return HAL_OK;
}
 8001608:	4628      	mov	r0, r5
 800160a:	b00b      	add	sp, #44	; 0x2c
 800160c:	bdf0      	pop	{r4, r5, r6, r7, pc}
	...

08001610 <HAL_RCC_OscConfig>:
  *         supported by this API. User should request a transition to HSE Off
  *         first and then HSE On or HSE Bypass.
  * @retval HAL status
  */
__weak HAL_StatusTypeDef HAL_RCC_OscConfig(RCC_OscInitTypeDef  *RCC_OscInitStruct)
{
 8001610:	e92d 41f3 	stmdb	sp!, {r0, r1, r4, r5, r6, r7, r8, lr}
  uint32_t tickstart, pll_config;

  /* Check Null pointer */
  if(RCC_OscInitStruct == NULL)
 8001614:	4604      	mov	r4, r0
 8001616:	b908      	cbnz	r0, 800161c <HAL_RCC_OscConfig+0xc>
    else
    {
      /* Check if there is a request to disable the PLL used as System clock source */
      if((RCC_OscInitStruct->PLL.PLLState) == RCC_PLL_OFF)
      {
        return HAL_ERROR;
 8001618:	2001      	movs	r0, #1
 800161a:	e03f      	b.n	800169c <HAL_RCC_OscConfig+0x8c>
  if(((RCC_OscInitStruct->OscillatorType) & RCC_OSCILLATORTYPE_HSE) == RCC_OSCILLATORTYPE_HSE)
 800161c:	6803      	ldr	r3, [r0, #0]
 800161e:	07dd      	lsls	r5, r3, #31
 8001620:	d410      	bmi.n	8001644 <HAL_RCC_OscConfig+0x34>
  if(((RCC_OscInitStruct->OscillatorType) & RCC_OSCILLATORTYPE_HSI) == RCC_OSCILLATORTYPE_HSI)
 8001622:	6823      	ldr	r3, [r4, #0]
 8001624:	0798      	lsls	r0, r3, #30
 8001626:	d45a      	bmi.n	80016de <HAL_RCC_OscConfig+0xce>
  if(((RCC_OscInitStruct->OscillatorType) & RCC_OSCILLATORTYPE_LSI) == RCC_OSCILLATORTYPE_LSI)
 8001628:	6823      	ldr	r3, [r4, #0]
 800162a:	071a      	lsls	r2, r3, #28
 800162c:	f100 809c 	bmi.w	8001768 <HAL_RCC_OscConfig+0x158>
  if(((RCC_OscInitStruct->OscillatorType) & RCC_OSCILLATORTYPE_LSE) == RCC_OSCILLATORTYPE_LSE)
 8001630:	6823      	ldr	r3, [r4, #0]
 8001632:	075b      	lsls	r3, r3, #29
 8001634:	f100 80ba 	bmi.w	80017ac <HAL_RCC_OscConfig+0x19c>
  if ((RCC_OscInitStruct->PLL.PLLState) != RCC_PLL_NONE)
 8001638:	69a0      	ldr	r0, [r4, #24]
 800163a:	2800      	cmp	r0, #0
 800163c:	f040 811b 	bne.w	8001876 <HAL_RCC_OscConfig+0x266>
          return HAL_ERROR;
        }
      }
    }
  }
  return HAL_OK;
 8001640:	2000      	movs	r0, #0
 8001642:	e02b      	b.n	800169c <HAL_RCC_OscConfig+0x8c>
    if((__HAL_RCC_GET_SYSCLK_SOURCE() == RCC_CFGR_SWS_HSE) ||\
 8001644:	4ba4      	ldr	r3, [pc, #656]	; (80018d8 <HAL_RCC_OscConfig+0x2c8>)
 8001646:	689a      	ldr	r2, [r3, #8]
 8001648:	f002 020c 	and.w	r2, r2, #12
 800164c:	2a04      	cmp	r2, #4
 800164e:	d007      	beq.n	8001660 <HAL_RCC_OscConfig+0x50>
      ((__HAL_RCC_GET_SYSCLK_SOURCE() == RCC_CFGR_SWS_PLL) && ((RCC->PLLCFGR & RCC_PLLCFGR_PLLSRC) == RCC_PLLCFGR_PLLSRC_HSE)))
 8001650:	689a      	ldr	r2, [r3, #8]
 8001652:	f002 020c 	and.w	r2, r2, #12
    if((__HAL_RCC_GET_SYSCLK_SOURCE() == RCC_CFGR_SWS_HSE) ||\
 8001656:	2a08      	cmp	r2, #8
 8001658:	d10a      	bne.n	8001670 <HAL_RCC_OscConfig+0x60>
      ((__HAL_RCC_GET_SYSCLK_SOURCE() == RCC_CFGR_SWS_PLL) && ((RCC->PLLCFGR & RCC_PLLCFGR_PLLSRC) == RCC_PLLCFGR_PLLSRC_HSE)))
 800165a:	685b      	ldr	r3, [r3, #4]
 800165c:	0259      	lsls	r1, r3, #9
 800165e:	d507      	bpl.n	8001670 <HAL_RCC_OscConfig+0x60>
      if((__HAL_RCC_GET_FLAG(RCC_FLAG_HSERDY) != RESET) && (RCC_OscInitStruct->HSEState == RCC_HSE_OFF))
 8001660:	4b9d      	ldr	r3, [pc, #628]	; (80018d8 <HAL_RCC_OscConfig+0x2c8>)
 8001662:	681b      	ldr	r3, [r3, #0]
 8001664:	039a      	lsls	r2, r3, #14
 8001666:	d5dc      	bpl.n	8001622 <HAL_RCC_OscConfig+0x12>
 8001668:	6863      	ldr	r3, [r4, #4]
 800166a:	2b00      	cmp	r3, #0
 800166c:	d1d9      	bne.n	8001622 <HAL_RCC_OscConfig+0x12>
 800166e:	e7d3      	b.n	8001618 <HAL_RCC_OscConfig+0x8>
      __HAL_RCC_HSE_CONFIG(RCC_OscInitStruct->HSEState);
 8001670:	6863      	ldr	r3, [r4, #4]
 8001672:	4d99      	ldr	r5, [pc, #612]	; (80018d8 <HAL_RCC_OscConfig+0x2c8>)
 8001674:	f5b3 3f80 	cmp.w	r3, #65536	; 0x10000
 8001678:	d113      	bne.n	80016a2 <HAL_RCC_OscConfig+0x92>
 800167a:	682b      	ldr	r3, [r5, #0]
 800167c:	f443 3380 	orr.w	r3, r3, #65536	; 0x10000
 8001680:	602b      	str	r3, [r5, #0]
        tickstart = HAL_GetTick();
 8001682:	f7fe ff85 	bl	8000590 <HAL_GetTick>
        while(__HAL_RCC_GET_FLAG(RCC_FLAG_HSERDY) == RESET)
 8001686:	4d94      	ldr	r5, [pc, #592]	; (80018d8 <HAL_RCC_OscConfig+0x2c8>)
        tickstart = HAL_GetTick();
 8001688:	4606      	mov	r6, r0
        while(__HAL_RCC_GET_FLAG(RCC_FLAG_HSERDY) == RESET)
 800168a:	682b      	ldr	r3, [r5, #0]
 800168c:	039b      	lsls	r3, r3, #14
 800168e:	d4c8      	bmi.n	8001622 <HAL_RCC_OscConfig+0x12>
          if((HAL_GetTick() - tickstart ) > HSE_TIMEOUT_VALUE)
 8001690:	f7fe ff7e 	bl	8000590 <HAL_GetTick>
 8001694:	1b80      	subs	r0, r0, r6
 8001696:	2864      	cmp	r0, #100	; 0x64
 8001698:	d9f7      	bls.n	800168a <HAL_RCC_OscConfig+0x7a>
            return HAL_TIMEOUT;
 800169a:	2003      	movs	r0, #3
}
 800169c:	b002      	add	sp, #8
 800169e:	e8bd 81f0 	ldmia.w	sp!, {r4, r5, r6, r7, r8, pc}
      __HAL_RCC_HSE_CONFIG(RCC_OscInitStruct->HSEState);
 80016a2:	f5b3 2fa0 	cmp.w	r3, #327680	; 0x50000
 80016a6:	d104      	bne.n	80016b2 <HAL_RCC_OscConfig+0xa2>
 80016a8:	682b      	ldr	r3, [r5, #0]
 80016aa:	f443 2380 	orr.w	r3, r3, #262144	; 0x40000
 80016ae:	602b      	str	r3, [r5, #0]
 80016b0:	e7e3      	b.n	800167a <HAL_RCC_OscConfig+0x6a>
 80016b2:	682a      	ldr	r2, [r5, #0]
 80016b4:	f422 3280 	bic.w	r2, r2, #65536	; 0x10000
 80016b8:	602a      	str	r2, [r5, #0]
 80016ba:	682a      	ldr	r2, [r5, #0]
 80016bc:	f422 2280 	bic.w	r2, r2, #262144	; 0x40000
 80016c0:	602a      	str	r2, [r5, #0]
      if((RCC_OscInitStruct->HSEState) != RCC_HSE_OFF)
 80016c2:	2b00      	cmp	r3, #0
 80016c4:	d1dd      	bne.n	8001682 <HAL_RCC_OscConfig+0x72>
        tickstart = HAL_GetTick();
 80016c6:	f7fe ff63 	bl	8000590 <HAL_GetTick>
 80016ca:	4606      	mov	r6, r0
        while(__HAL_RCC_GET_FLAG(RCC_FLAG_HSERDY) != RESET)
 80016cc:	682b      	ldr	r3, [r5, #0]
 80016ce:	039f      	lsls	r7, r3, #14
 80016d0:	d5a7      	bpl.n	8001622 <HAL_RCC_OscConfig+0x12>
          if((HAL_GetTick() - tickstart ) > HSE_TIMEOUT_VALUE)
 80016d2:	f7fe ff5d 	bl	8000590 <HAL_GetTick>
 80016d6:	1b80      	subs	r0, r0, r6
 80016d8:	2864      	cmp	r0, #100	; 0x64
 80016da:	d9f7      	bls.n	80016cc <HAL_RCC_OscConfig+0xbc>
 80016dc:	e7dd      	b.n	800169a <HAL_RCC_OscConfig+0x8a>
    if((__HAL_RCC_GET_SYSCLK_SOURCE() == RCC_CFGR_SWS_HSI) ||\
 80016de:	4b7e      	ldr	r3, [pc, #504]	; (80018d8 <HAL_RCC_OscConfig+0x2c8>)
 80016e0:	689a      	ldr	r2, [r3, #8]
 80016e2:	f012 0f0c 	tst.w	r2, #12
 80016e6:	d007      	beq.n	80016f8 <HAL_RCC_OscConfig+0xe8>
      ((__HAL_RCC_GET_SYSCLK_SOURCE() == RCC_CFGR_SWS_PLL) && ((RCC->PLLCFGR & RCC_PLLCFGR_PLLSRC) == RCC_PLLCFGR_PLLSRC_HSI)))
 80016e8:	689a      	ldr	r2, [r3, #8]
 80016ea:	f002 020c 	and.w	r2, r2, #12
    if((__HAL_RCC_GET_SYSCLK_SOURCE() == RCC_CFGR_SWS_HSI) ||\
 80016ee:	2a08      	cmp	r2, #8
 80016f0:	d111      	bne.n	8001716 <HAL_RCC_OscConfig+0x106>
      ((__HAL_RCC_GET_SYSCLK_SOURCE() == RCC_CFGR_SWS_PLL) && ((RCC->PLLCFGR & RCC_PLLCFGR_PLLSRC) == RCC_PLLCFGR_PLLSRC_HSI)))
 80016f2:	685b      	ldr	r3, [r3, #4]
 80016f4:	025e      	lsls	r6, r3, #9
 80016f6:	d40e      	bmi.n	8001716 <HAL_RCC_OscConfig+0x106>
      if((__HAL_RCC_GET_FLAG(RCC_FLAG_HSIRDY) != RESET) && (RCC_OscInitStruct->HSIState != RCC_HSI_ON))
 80016f8:	4b77      	ldr	r3, [pc, #476]	; (80018d8 <HAL_RCC_OscConfig+0x2c8>)
 80016fa:	681a      	ldr	r2, [r3, #0]
 80016fc:	0795      	lsls	r5, r2, #30
 80016fe:	d502      	bpl.n	8001706 <HAL_RCC_OscConfig+0xf6>
 8001700:	68e2      	ldr	r2, [r4, #12]
 8001702:	2a01      	cmp	r2, #1
 8001704:	d188      	bne.n	8001618 <HAL_RCC_OscConfig+0x8>
        __HAL_RCC_HSI_CALIBRATIONVALUE_ADJUST(RCC_OscInitStruct->HSICalibrationValue);
 8001706:	681a      	ldr	r2, [r3, #0]
 8001708:	6921      	ldr	r1, [r4, #16]
 800170a:	f022 02f8 	bic.w	r2, r2, #248	; 0xf8
 800170e:	ea42 02c1 	orr.w	r2, r2, r1, lsl #3
 8001712:	601a      	str	r2, [r3, #0]
      if((__HAL_RCC_GET_FLAG(RCC_FLAG_HSIRDY) != RESET) && (RCC_OscInitStruct->HSIState != RCC_HSI_ON))
 8001714:	e788      	b.n	8001628 <HAL_RCC_OscConfig+0x18>
      if((RCC_OscInitStruct->HSIState)!= RCC_HSI_OFF)
 8001716:	68e2      	ldr	r2, [r4, #12]
 8001718:	4b70      	ldr	r3, [pc, #448]	; (80018dc <HAL_RCC_OscConfig+0x2cc>)
 800171a:	b1b2      	cbz	r2, 800174a <HAL_RCC_OscConfig+0x13a>
        __HAL_RCC_HSI_ENABLE();
 800171c:	2201      	movs	r2, #1
 800171e:	601a      	str	r2, [r3, #0]
        tickstart = HAL_GetTick();
 8001720:	f7fe ff36 	bl	8000590 <HAL_GetTick>
        while(__HAL_RCC_GET_FLAG(RCC_FLAG_HSIRDY) == RESET)
 8001724:	4d6c      	ldr	r5, [pc, #432]	; (80018d8 <HAL_RCC_OscConfig+0x2c8>)
        tickstart = HAL_GetTick();
 8001726:	4606      	mov	r6, r0
        while(__HAL_RCC_GET_FLAG(RCC_FLAG_HSIRDY) == RESET)
 8001728:	682b      	ldr	r3, [r5, #0]
 800172a:	0798      	lsls	r0, r3, #30
 800172c:	d507      	bpl.n	800173e <HAL_RCC_OscConfig+0x12e>
        __HAL_RCC_HSI_CALIBRATIONVALUE_ADJUST(RCC_OscInitStruct->HSICalibrationValue);
 800172e:	682b      	ldr	r3, [r5, #0]
 8001730:	6922      	ldr	r2, [r4, #16]
 8001732:	f023 03f8 	bic.w	r3, r3, #248	; 0xf8
 8001736:	ea43 03c2 	orr.w	r3, r3, r2, lsl #3
 800173a:	602b      	str	r3, [r5, #0]
 800173c:	e774      	b.n	8001628 <HAL_RCC_OscConfig+0x18>
          if((HAL_GetTick() - tickstart ) > HSI_TIMEOUT_VALUE)
 800173e:	f7fe ff27 	bl	8000590 <HAL_GetTick>
 8001742:	1b80      	subs	r0, r0, r6
 8001744:	2802      	cmp	r0, #2
 8001746:	d9ef      	bls.n	8001728 <HAL_RCC_OscConfig+0x118>
 8001748:	e7a7      	b.n	800169a <HAL_RCC_OscConfig+0x8a>
        __HAL_RCC_HSI_DISABLE();
 800174a:	601a      	str	r2, [r3, #0]
        tickstart = HAL_GetTick();
 800174c:	f7fe ff20 	bl	8000590 <HAL_GetTick>
        while(__HAL_RCC_GET_FLAG(RCC_FLAG_HSIRDY) != RESET)
 8001750:	4d61      	ldr	r5, [pc, #388]	; (80018d8 <HAL_RCC_OscConfig+0x2c8>)
        tickstart = HAL_GetTick();
 8001752:	4606      	mov	r6, r0
        while(__HAL_RCC_GET_FLAG(RCC_FLAG_HSIRDY) != RESET)
 8001754:	682b      	ldr	r3, [r5, #0]
 8001756:	0799      	lsls	r1, r3, #30
 8001758:	f57f af66 	bpl.w	8001628 <HAL_RCC_OscConfig+0x18>
          if((HAL_GetTick() - tickstart ) > HSI_TIMEOUT_VALUE)
 800175c:	f7fe ff18 	bl	8000590 <HAL_GetTick>
 8001760:	1b80      	subs	r0, r0, r6
 8001762:	2802      	cmp	r0, #2
 8001764:	d9f6      	bls.n	8001754 <HAL_RCC_OscConfig+0x144>
 8001766:	e798      	b.n	800169a <HAL_RCC_OscConfig+0x8a>
    if((RCC_OscInitStruct->LSIState)!= RCC_LSI_OFF)
 8001768:	6962      	ldr	r2, [r4, #20]
 800176a:	4b5d      	ldr	r3, [pc, #372]	; (80018e0 <HAL_RCC_OscConfig+0x2d0>)
 800176c:	b17a      	cbz	r2, 800178e <HAL_RCC_OscConfig+0x17e>
      __HAL_RCC_LSI_ENABLE();
 800176e:	2201      	movs	r2, #1
 8001770:	601a      	str	r2, [r3, #0]
      tickstart = HAL_GetTick();
 8001772:	f7fe ff0d 	bl	8000590 <HAL_GetTick>
      while(__HAL_RCC_GET_FLAG(RCC_FLAG_LSIRDY) == RESET)
 8001776:	4d58      	ldr	r5, [pc, #352]	; (80018d8 <HAL_RCC_OscConfig+0x2c8>)
      tickstart = HAL_GetTick();
 8001778:	4606      	mov	r6, r0
      while(__HAL_RCC_GET_FLAG(RCC_FLAG_LSIRDY) == RESET)
 800177a:	6f6b      	ldr	r3, [r5, #116]	; 0x74
 800177c:	079f      	lsls	r7, r3, #30
 800177e:	f53f af57 	bmi.w	8001630 <HAL_RCC_OscConfig+0x20>
        if((HAL_GetTick() - tickstart ) > LSI_TIMEOUT_VALUE)
 8001782:	f7fe ff05 	bl	8000590 <HAL_GetTick>
 8001786:	1b80      	subs	r0, r0, r6
 8001788:	2802      	cmp	r0, #2
 800178a:	d9f6      	bls.n	800177a <HAL_RCC_OscConfig+0x16a>
 800178c:	e785      	b.n	800169a <HAL_RCC_OscConfig+0x8a>
      __HAL_RCC_LSI_DISABLE();
 800178e:	601a      	str	r2, [r3, #0]
      tickstart = HAL_GetTick();
 8001790:	f7fe fefe 	bl	8000590 <HAL_GetTick>
      while(__HAL_RCC_GET_FLAG(RCC_FLAG_LSIRDY) != RESET)
 8001794:	4d50      	ldr	r5, [pc, #320]	; (80018d8 <HAL_RCC_OscConfig+0x2c8>)
      tickstart = HAL_GetTick();
 8001796:	4606      	mov	r6, r0
      while(__HAL_RCC_GET_FLAG(RCC_FLAG_LSIRDY) != RESET)
 8001798:	6f6b      	ldr	r3, [r5, #116]	; 0x74
 800179a:	0798      	lsls	r0, r3, #30
 800179c:	f57f af48 	bpl.w	8001630 <HAL_RCC_OscConfig+0x20>
        if((HAL_GetTick() - tickstart ) > LSI_TIMEOUT_VALUE)
 80017a0:	f7fe fef6 	bl	8000590 <HAL_GetTick>
 80017a4:	1b80      	subs	r0, r0, r6
 80017a6:	2802      	cmp	r0, #2
 80017a8:	d9f6      	bls.n	8001798 <HAL_RCC_OscConfig+0x188>
 80017aa:	e776      	b.n	800169a <HAL_RCC_OscConfig+0x8a>
    if(__HAL_RCC_PWR_IS_CLK_DISABLED())
 80017ac:	4b4a      	ldr	r3, [pc, #296]	; (80018d8 <HAL_RCC_OscConfig+0x2c8>)
 80017ae:	6c1a      	ldr	r2, [r3, #64]	; 0x40
 80017b0:	f012 5280 	ands.w	r2, r2, #268435456	; 0x10000000
 80017b4:	d128      	bne.n	8001808 <HAL_RCC_OscConfig+0x1f8>
      __HAL_RCC_PWR_CLK_ENABLE();
 80017b6:	9201      	str	r2, [sp, #4]
 80017b8:	6c1a      	ldr	r2, [r3, #64]	; 0x40
 80017ba:	f042 5280 	orr.w	r2, r2, #268435456	; 0x10000000
 80017be:	641a      	str	r2, [r3, #64]	; 0x40
 80017c0:	6c1b      	ldr	r3, [r3, #64]	; 0x40
 80017c2:	f003 5380 	and.w	r3, r3, #268435456	; 0x10000000
 80017c6:	9301      	str	r3, [sp, #4]
 80017c8:	9b01      	ldr	r3, [sp, #4]
      pwrclkchanged = SET;
 80017ca:	2601      	movs	r6, #1
    if(HAL_IS_BIT_CLR(PWR->CR, PWR_CR_DBP))
 80017cc:	4d45      	ldr	r5, [pc, #276]	; (80018e4 <HAL_RCC_OscConfig+0x2d4>)
 80017ce:	682b      	ldr	r3, [r5, #0]
 80017d0:	05d9      	lsls	r1, r3, #23
 80017d2:	d51b      	bpl.n	800180c <HAL_RCC_OscConfig+0x1fc>
    __HAL_RCC_LSE_CONFIG(RCC_OscInitStruct->LSEState);
 80017d4:	68a3      	ldr	r3, [r4, #8]
 80017d6:	4d40      	ldr	r5, [pc, #256]	; (80018d8 <HAL_RCC_OscConfig+0x2c8>)
 80017d8:	2b01      	cmp	r3, #1
 80017da:	d127      	bne.n	800182c <HAL_RCC_OscConfig+0x21c>
 80017dc:	6f2b      	ldr	r3, [r5, #112]	; 0x70
 80017de:	f043 0301 	orr.w	r3, r3, #1
 80017e2:	672b      	str	r3, [r5, #112]	; 0x70
      tickstart = HAL_GetTick();
 80017e4:	f7fe fed4 	bl	8000590 <HAL_GetTick>
      while(__HAL_RCC_GET_FLAG(RCC_FLAG_LSERDY) == RESET)
 80017e8:	4d3b      	ldr	r5, [pc, #236]	; (80018d8 <HAL_RCC_OscConfig+0x2c8>)
      tickstart = HAL_GetTick();
 80017ea:	4607      	mov	r7, r0
        if((HAL_GetTick() - tickstart ) > RCC_LSE_TIMEOUT_VALUE)
 80017ec:	f241 3888 	movw	r8, #5000	; 0x1388
      while(__HAL_RCC_GET_FLAG(RCC_FLAG_LSERDY) == RESET)
 80017f0:	6f2b      	ldr	r3, [r5, #112]	; 0x70
 80017f2:	079b      	lsls	r3, r3, #30
 80017f4:	d539      	bpl.n	800186a <HAL_RCC_OscConfig+0x25a>
    if(pwrclkchanged == SET)
 80017f6:	2e00      	cmp	r6, #0
 80017f8:	f43f af1e 	beq.w	8001638 <HAL_RCC_OscConfig+0x28>
      __HAL_RCC_PWR_CLK_DISABLE();
 80017fc:	4a36      	ldr	r2, [pc, #216]	; (80018d8 <HAL_RCC_OscConfig+0x2c8>)
 80017fe:	6c13      	ldr	r3, [r2, #64]	; 0x40
 8001800:	f023 5380 	bic.w	r3, r3, #268435456	; 0x10000000
 8001804:	6413      	str	r3, [r2, #64]	; 0x40
 8001806:	e717      	b.n	8001638 <HAL_RCC_OscConfig+0x28>
    FlagStatus       pwrclkchanged = RESET;
 8001808:	2600      	movs	r6, #0
 800180a:	e7df      	b.n	80017cc <HAL_RCC_OscConfig+0x1bc>
      SET_BIT(PWR->CR, PWR_CR_DBP);
 800180c:	682b      	ldr	r3, [r5, #0]
 800180e:	f443 7380 	orr.w	r3, r3, #256	; 0x100
 8001812:	602b      	str	r3, [r5, #0]
      tickstart = HAL_GetTick();
 8001814:	f7fe febc 	bl	8000590 <HAL_GetTick>
 8001818:	4607      	mov	r7, r0
      while(HAL_IS_BIT_CLR(PWR->CR, PWR_CR_DBP))
 800181a:	682b      	ldr	r3, [r5, #0]
 800181c:	05da      	lsls	r2, r3, #23
 800181e:	d4d9      	bmi.n	80017d4 <HAL_RCC_OscConfig+0x1c4>
        if((HAL_GetTick() - tickstart) > RCC_DBP_TIMEOUT_VALUE)
 8001820:	f7fe feb6 	bl	8000590 <HAL_GetTick>
 8001824:	1bc0      	subs	r0, r0, r7
 8001826:	2802      	cmp	r0, #2
 8001828:	d9f7      	bls.n	800181a <HAL_RCC_OscConfig+0x20a>
 800182a:	e736      	b.n	800169a <HAL_RCC_OscConfig+0x8a>
    __HAL_RCC_LSE_CONFIG(RCC_OscInitStruct->LSEState);
 800182c:	2b05      	cmp	r3, #5
 800182e:	d104      	bne.n	800183a <HAL_RCC_OscConfig+0x22a>
 8001830:	6f2b      	ldr	r3, [r5, #112]	; 0x70
 8001832:	f043 0304 	orr.w	r3, r3, #4
 8001836:	672b      	str	r3, [r5, #112]	; 0x70
 8001838:	e7d0      	b.n	80017dc <HAL_RCC_OscConfig+0x1cc>
 800183a:	6f2a      	ldr	r2, [r5, #112]	; 0x70
 800183c:	f022 0201 	bic.w	r2, r2, #1
 8001840:	672a      	str	r2, [r5, #112]	; 0x70
 8001842:	6f2a      	ldr	r2, [r5, #112]	; 0x70
 8001844:	f022 0204 	bic.w	r2, r2, #4
 8001848:	672a      	str	r2, [r5, #112]	; 0x70
    if((RCC_OscInitStruct->LSEState) != RCC_LSE_OFF)
 800184a:	2b00      	cmp	r3, #0
 800184c:	d1ca      	bne.n	80017e4 <HAL_RCC_OscConfig+0x1d4>
      tickstart = HAL_GetTick();
 800184e:	f7fe fe9f 	bl	8000590 <HAL_GetTick>
        if((HAL_GetTick() - tickstart ) > RCC_LSE_TIMEOUT_VALUE)
 8001852:	f241 3888 	movw	r8, #5000	; 0x1388
      tickstart = HAL_GetTick();
 8001856:	4607      	mov	r7, r0
      while(__HAL_RCC_GET_FLAG(RCC_FLAG_LSERDY) != RESET)
 8001858:	6f2b      	ldr	r3, [r5, #112]	; 0x70
 800185a:	0798      	lsls	r0, r3, #30
 800185c:	d5cb      	bpl.n	80017f6 <HAL_RCC_OscConfig+0x1e6>
        if((HAL_GetTick() - tickstart ) > RCC_LSE_TIMEOUT_VALUE)
 800185e:	f7fe fe97 	bl	8000590 <HAL_GetTick>
 8001862:	1bc0      	subs	r0, r0, r7
 8001864:	4540      	cmp	r0, r8
 8001866:	d9f7      	bls.n	8001858 <HAL_RCC_OscConfig+0x248>
 8001868:	e717      	b.n	800169a <HAL_RCC_OscConfig+0x8a>
        if((HAL_GetTick() - tickstart ) > RCC_LSE_TIMEOUT_VALUE)
 800186a:	f7fe fe91 	bl	8000590 <HAL_GetTick>
 800186e:	1bc0      	subs	r0, r0, r7
 8001870:	4540      	cmp	r0, r8
 8001872:	d9bd      	bls.n	80017f0 <HAL_RCC_OscConfig+0x1e0>
 8001874:	e711      	b.n	800169a <HAL_RCC_OscConfig+0x8a>
    if(__HAL_RCC_GET_SYSCLK_SOURCE() != RCC_CFGR_SWS_PLL)
 8001876:	4d18      	ldr	r5, [pc, #96]	; (80018d8 <HAL_RCC_OscConfig+0x2c8>)
 8001878:	68ab      	ldr	r3, [r5, #8]
 800187a:	f003 030c 	and.w	r3, r3, #12
 800187e:	2b08      	cmp	r3, #8
 8001880:	d047      	beq.n	8001912 <HAL_RCC_OscConfig+0x302>
 8001882:	4e19      	ldr	r6, [pc, #100]	; (80018e8 <HAL_RCC_OscConfig+0x2d8>)
 8001884:	2300      	movs	r3, #0
      if((RCC_OscInitStruct->PLL.PLLState) == RCC_PLL_ON)
 8001886:	2802      	cmp	r0, #2
        __HAL_RCC_PLL_DISABLE();
 8001888:	6033      	str	r3, [r6, #0]
      if((RCC_OscInitStruct->PLL.PLLState) == RCC_PLL_ON)
 800188a:	d135      	bne.n	80018f8 <HAL_RCC_OscConfig+0x2e8>
        tickstart = HAL_GetTick();
 800188c:	f7fe fe80 	bl	8000590 <HAL_GetTick>
 8001890:	4607      	mov	r7, r0
        while(__HAL_RCC_GET_FLAG(RCC_FLAG_PLLRDY) != RESET)
 8001892:	682b      	ldr	r3, [r5, #0]
 8001894:	0199      	lsls	r1, r3, #6
 8001896:	d429      	bmi.n	80018ec <HAL_RCC_OscConfig+0x2dc>
        WRITE_REG(RCC->PLLCFGR, (RCC_OscInitStruct->PLL.PLLSource                                            | \
 8001898:	6a22      	ldr	r2, [r4, #32]
 800189a:	69e3      	ldr	r3, [r4, #28]
 800189c:	4313      	orrs	r3, r2
 800189e:	6a62      	ldr	r2, [r4, #36]	; 0x24
 80018a0:	ea43 1382 	orr.w	r3, r3, r2, lsl #6
 80018a4:	6ae2      	ldr	r2, [r4, #44]	; 0x2c
 80018a6:	ea43 6302 	orr.w	r3, r3, r2, lsl #24
 80018aa:	6aa2      	ldr	r2, [r4, #40]	; 0x28
        while(__HAL_RCC_GET_FLAG(RCC_FLAG_PLLRDY) == RESET)
 80018ac:	4c0a      	ldr	r4, [pc, #40]	; (80018d8 <HAL_RCC_OscConfig+0x2c8>)
        WRITE_REG(RCC->PLLCFGR, (RCC_OscInitStruct->PLL.PLLSource                                            | \
 80018ae:	0852      	lsrs	r2, r2, #1
 80018b0:	3a01      	subs	r2, #1
 80018b2:	ea43 4302 	orr.w	r3, r3, r2, lsl #16
 80018b6:	606b      	str	r3, [r5, #4]
        __HAL_RCC_PLL_ENABLE();
 80018b8:	2301      	movs	r3, #1
 80018ba:	6033      	str	r3, [r6, #0]
        tickstart = HAL_GetTick();
 80018bc:	f7fe fe68 	bl	8000590 <HAL_GetTick>
 80018c0:	4605      	mov	r5, r0
        while(__HAL_RCC_GET_FLAG(RCC_FLAG_PLLRDY) == RESET)
 80018c2:	6823      	ldr	r3, [r4, #0]
 80018c4:	019a      	lsls	r2, r3, #6
 80018c6:	f53f aebb 	bmi.w	8001640 <HAL_RCC_OscConfig+0x30>
          if((HAL_GetTick() - tickstart ) > PLL_TIMEOUT_VALUE)
 80018ca:	f7fe fe61 	bl	8000590 <HAL_GetTick>
 80018ce:	1b40      	subs	r0, r0, r5
 80018d0:	2802      	cmp	r0, #2
 80018d2:	d9f6      	bls.n	80018c2 <HAL_RCC_OscConfig+0x2b2>
 80018d4:	e6e1      	b.n	800169a <HAL_RCC_OscConfig+0x8a>
 80018d6:	bf00      	nop
 80018d8:	40023800 	.word	0x40023800
 80018dc:	42470000 	.word	0x42470000
 80018e0:	42470e80 	.word	0x42470e80
 80018e4:	40007000 	.word	0x40007000
 80018e8:	42470060 	.word	0x42470060
          if((HAL_GetTick() - tickstart ) > PLL_TIMEOUT_VALUE)
 80018ec:	f7fe fe50 	bl	8000590 <HAL_GetTick>
 80018f0:	1bc0      	subs	r0, r0, r7
 80018f2:	2802      	cmp	r0, #2
 80018f4:	d9cd      	bls.n	8001892 <HAL_RCC_OscConfig+0x282>
 80018f6:	e6d0      	b.n	800169a <HAL_RCC_OscConfig+0x8a>
        tickstart = HAL_GetTick();
 80018f8:	f7fe fe4a 	bl	8000590 <HAL_GetTick>
 80018fc:	4604      	mov	r4, r0
        while(__HAL_RCC_GET_FLAG(RCC_FLAG_PLLRDY) != RESET)
 80018fe:	682b      	ldr	r3, [r5, #0]
 8001900:	019b      	lsls	r3, r3, #6
 8001902:	f57f ae9d 	bpl.w	8001640 <HAL_RCC_OscConfig+0x30>
          if((HAL_GetTick() - tickstart ) > PLL_TIMEOUT_VALUE)
 8001906:	f7fe fe43 	bl	8000590 <HAL_GetTick>
 800190a:	1b00      	subs	r0, r0, r4
 800190c:	2802      	cmp	r0, #2
 800190e:	d9f6      	bls.n	80018fe <HAL_RCC_OscConfig+0x2ee>
 8001910:	e6c3      	b.n	800169a <HAL_RCC_OscConfig+0x8a>
      if((RCC_OscInitStruct->PLL.PLLState) == RCC_PLL_OFF)
 8001912:	2801      	cmp	r0, #1
 8001914:	f43f aec2 	beq.w	800169c <HAL_RCC_OscConfig+0x8c>
        pll_config = RCC->PLLCFGR;
 8001918:	6868      	ldr	r0, [r5, #4]
        if((READ_BIT(pll_config, RCC_PLLCFGR_PLLSRC) != RCC_OscInitStruct->PLL.PLLSource) ||
 800191a:	69e3      	ldr	r3, [r4, #28]
 800191c:	f400 0280 	and.w	r2, r0, #4194304	; 0x400000
 8001920:	429a      	cmp	r2, r3
 8001922:	f47f ae79 	bne.w	8001618 <HAL_RCC_OscConfig+0x8>
 8001926:	6a22      	ldr	r2, [r4, #32]
           (READ_BIT(pll_config, RCC_PLLCFGR_PLLM) != RCC_OscInitStruct->PLL.PLLM) ||
 8001928:	f000 033f 	and.w	r3, r0, #63	; 0x3f
        if((READ_BIT(pll_config, RCC_PLLCFGR_PLLSRC) != RCC_OscInitStruct->PLL.PLLSource) ||
 800192c:	4293      	cmp	r3, r2
 800192e:	f47f ae73 	bne.w	8001618 <HAL_RCC_OscConfig+0x8>
           (READ_BIT(pll_config, RCC_PLLCFGR_PLLM) != RCC_OscInitStruct->PLL.PLLM) ||
 8001932:	6a62      	ldr	r2, [r4, #36]	; 0x24
 8001934:	f647 73c0 	movw	r3, #32704	; 0x7fc0
 8001938:	4003      	ands	r3, r0
 800193a:	4293      	cmp	r3, r2
 800193c:	f47f ae6c 	bne.w	8001618 <HAL_RCC_OscConfig+0x8>
           (READ_BIT(pll_config, RCC_PLLCFGR_PLLN) != RCC_OscInitStruct->PLL.PLLN) ||
 8001940:	6aa2      	ldr	r2, [r4, #40]	; 0x28
           (READ_BIT(pll_config, RCC_PLLCFGR_PLLP) != RCC_OscInitStruct->PLL.PLLP) ||
 8001942:	f400 3340 	and.w	r3, r0, #196608	; 0x30000
           (READ_BIT(pll_config, RCC_PLLCFGR_PLLN) != RCC_OscInitStruct->PLL.PLLN) ||
 8001946:	4293      	cmp	r3, r2
 8001948:	f47f ae66 	bne.w	8001618 <HAL_RCC_OscConfig+0x8>
           (READ_BIT(pll_config, RCC_PLLCFGR_PLLP) != RCC_OscInitStruct->PLL.PLLP) ||
 800194c:	6ae3      	ldr	r3, [r4, #44]	; 0x2c
           (READ_BIT(pll_config, RCC_PLLCFGR_PLLQ) != RCC_OscInitStruct->PLL.PLLQ))
 800194e:	f000 6070 	and.w	r0, r0, #251658240	; 0xf000000
    return HAL_ERROR;
 8001952:	1ac0      	subs	r0, r0, r3
 8001954:	bf18      	it	ne
 8001956:	2001      	movne	r0, #1
 8001958:	e6a0      	b.n	800169c <HAL_RCC_OscConfig+0x8c>
 800195a:	bf00      	nop

0800195c <HAL_RCC_GetSysClockFreq>:
{
  uint32_t pllm = 0U, pllvco = 0U, pllp = 0U;
  uint32_t sysclockfreq = 0U;

  /* Get SYSCLK source -------------------------------------------------------*/
  switch (RCC->CFGR & RCC_CFGR_SWS)
 800195c:	4913      	ldr	r1, [pc, #76]	; (80019ac <HAL_RCC_GetSysClockFreq+0x50>)
{
 800195e:	b508      	push	{r3, lr}
  switch (RCC->CFGR & RCC_CFGR_SWS)
 8001960:	688b      	ldr	r3, [r1, #8]
 8001962:	f003 030c 	and.w	r3, r3, #12
 8001966:	2b04      	cmp	r3, #4
 8001968:	d003      	beq.n	8001972 <HAL_RCC_GetSysClockFreq+0x16>
 800196a:	2b08      	cmp	r3, #8
 800196c:	d003      	beq.n	8001976 <HAL_RCC_GetSysClockFreq+0x1a>
  {
    case RCC_CFGR_SWS_HSI:  /* HSI used as system clock source */
    {
      sysclockfreq = HSI_VALUE;
 800196e:	4810      	ldr	r0, [pc, #64]	; (80019b0 <HAL_RCC_GetSysClockFreq+0x54>)
      sysclockfreq = HSI_VALUE;
      break;
    }
  }
  return sysclockfreq;
}
 8001970:	bd08      	pop	{r3, pc}
      sysclockfreq = HSE_VALUE;
 8001972:	4810      	ldr	r0, [pc, #64]	; (80019b4 <HAL_RCC_GetSysClockFreq+0x58>)
 8001974:	bd08      	pop	{r3, pc}
      pllm = RCC->PLLCFGR & RCC_PLLCFGR_PLLM;
 8001976:	684a      	ldr	r2, [r1, #4]
      if(__HAL_RCC_GET_PLL_OSCSOURCE() != RCC_PLLSOURCE_HSI)
 8001978:	684b      	ldr	r3, [r1, #4]
        pllvco = (uint32_t) ((((uint64_t) HSE_VALUE * ((uint64_t) ((RCC->PLLCFGR & RCC_PLLCFGR_PLLN) >> RCC_PLLCFGR_PLLN_Pos)))) / (uint64_t)pllm);
 800197a:	6849      	ldr	r1, [r1, #4]
      if(__HAL_RCC_GET_PLL_OSCSOURCE() != RCC_PLLSOURCE_HSI)
 800197c:	f413 0380 	ands.w	r3, r3, #4194304	; 0x400000
        pllvco = (uint32_t) ((((uint64_t) HSE_VALUE * ((uint64_t) ((RCC->PLLCFGR & RCC_PLLCFGR_PLLN) >> RCC_PLLCFGR_PLLN_Pos)))) / (uint64_t)pllm);
 8001980:	bf14      	ite	ne
 8001982:	480c      	ldrne	r0, [pc, #48]	; (80019b4 <HAL_RCC_GetSysClockFreq+0x58>)
        pllvco = (uint32_t) ((((uint64_t) HSI_VALUE * ((uint64_t) ((RCC->PLLCFGR & RCC_PLLCFGR_PLLN) >> RCC_PLLCFGR_PLLN_Pos)))) / (uint64_t)pllm);
 8001984:	480a      	ldreq	r0, [pc, #40]	; (80019b0 <HAL_RCC_GetSysClockFreq+0x54>)
        pllvco = (uint32_t) ((((uint64_t) HSE_VALUE * ((uint64_t) ((RCC->PLLCFGR & RCC_PLLCFGR_PLLN) >> RCC_PLLCFGR_PLLN_Pos)))) / (uint64_t)pllm);
 8001986:	f3c1 1188 	ubfx	r1, r1, #6, #9
 800198a:	bf18      	it	ne
 800198c:	2300      	movne	r3, #0
      pllm = RCC->PLLCFGR & RCC_PLLCFGR_PLLM;
 800198e:	f002 023f 	and.w	r2, r2, #63	; 0x3f
        pllvco = (uint32_t) ((((uint64_t) HSI_VALUE * ((uint64_t) ((RCC->PLLCFGR & RCC_PLLCFGR_PLLN) >> RCC_PLLCFGR_PLLN_Pos)))) / (uint64_t)pllm);
 8001992:	fba1 0100 	umull	r0, r1, r1, r0
 8001996:	f7fe fc29 	bl	80001ec <__aeabi_uldivmod>
      pllp = ((((RCC->PLLCFGR & RCC_PLLCFGR_PLLP) >> RCC_PLLCFGR_PLLP_Pos) + 1U) *2U);
 800199a:	4b04      	ldr	r3, [pc, #16]	; (80019ac <HAL_RCC_GetSysClockFreq+0x50>)
 800199c:	685b      	ldr	r3, [r3, #4]
 800199e:	f3c3 4301 	ubfx	r3, r3, #16, #2
 80019a2:	3301      	adds	r3, #1
 80019a4:	005b      	lsls	r3, r3, #1
      sysclockfreq = pllvco/pllp;
 80019a6:	fbb0 f0f3 	udiv	r0, r0, r3
 80019aa:	bd08      	pop	{r3, pc}
 80019ac:	40023800 	.word	0x40023800
 80019b0:	00f42400 	.word	0x00f42400
 80019b4:	007a1200 	.word	0x007a1200

080019b8 <HAL_RCC_ClockConfig>:
{
 80019b8:	e92d 41f0 	stmdb	sp!, {r4, r5, r6, r7, r8, lr}
 80019bc:	460d      	mov	r5, r1
  if(RCC_ClkInitStruct == NULL)
 80019be:	4604      	mov	r4, r0
 80019c0:	b910      	cbnz	r0, 80019c8 <HAL_RCC_ClockConfig+0x10>
    return HAL_ERROR;
 80019c2:	2001      	movs	r0, #1
 80019c4:	e8bd 81f0 	ldmia.w	sp!, {r4, r5, r6, r7, r8, pc}
  if(FLatency > __HAL_FLASH_GET_LATENCY())
 80019c8:	4b44      	ldr	r3, [pc, #272]	; (8001adc <HAL_RCC_ClockConfig+0x124>)
 80019ca:	681a      	ldr	r2, [r3, #0]
 80019cc:	f002 020f 	and.w	r2, r2, #15
 80019d0:	428a      	cmp	r2, r1
 80019d2:	d329      	bcc.n	8001a28 <HAL_RCC_ClockConfig+0x70>
  if(((RCC_ClkInitStruct->ClockType) & RCC_CLOCKTYPE_HCLK) == RCC_CLOCKTYPE_HCLK)
 80019d4:	6821      	ldr	r1, [r4, #0]
 80019d6:	078f      	lsls	r7, r1, #30
 80019d8:	d42e      	bmi.n	8001a38 <HAL_RCC_ClockConfig+0x80>
  if(((RCC_ClkInitStruct->ClockType) & RCC_CLOCKTYPE_SYSCLK) == RCC_CLOCKTYPE_SYSCLK)
 80019da:	07c8      	lsls	r0, r1, #31
 80019dc:	d441      	bmi.n	8001a62 <HAL_RCC_ClockConfig+0xaa>
  if(FLatency < __HAL_FLASH_GET_LATENCY())
 80019de:	4b3f      	ldr	r3, [pc, #252]	; (8001adc <HAL_RCC_ClockConfig+0x124>)
 80019e0:	681a      	ldr	r2, [r3, #0]
 80019e2:	f002 020f 	and.w	r2, r2, #15
 80019e6:	4295      	cmp	r5, r2
 80019e8:	d367      	bcc.n	8001aba <HAL_RCC_ClockConfig+0x102>
  if(((RCC_ClkInitStruct->ClockType) & RCC_CLOCKTYPE_PCLK1) == RCC_CLOCKTYPE_PCLK1)
 80019ea:	6822      	ldr	r2, [r4, #0]
 80019ec:	0751      	lsls	r1, r2, #29
 80019ee:	d46d      	bmi.n	8001acc <HAL_RCC_ClockConfig+0x114>
  if(((RCC_ClkInitStruct->ClockType) & RCC_CLOCKTYPE_PCLK2) == RCC_CLOCKTYPE_PCLK2)
 80019f0:	0713      	lsls	r3, r2, #28
 80019f2:	d507      	bpl.n	8001a04 <HAL_RCC_ClockConfig+0x4c>
    MODIFY_REG(RCC->CFGR, RCC_CFGR_PPRE2, ((RCC_ClkInitStruct->APB2CLKDivider) << 3U));
 80019f4:	4a3a      	ldr	r2, [pc, #232]	; (8001ae0 <HAL_RCC_ClockConfig+0x128>)
 80019f6:	6921      	ldr	r1, [r4, #16]
 80019f8:	6893      	ldr	r3, [r2, #8]
 80019fa:	f423 4360 	bic.w	r3, r3, #57344	; 0xe000
 80019fe:	ea43 03c1 	orr.w	r3, r3, r1, lsl #3
 8001a02:	6093      	str	r3, [r2, #8]
  SystemCoreClock = HAL_RCC_GetSysClockFreq() >> AHBPrescTable[(RCC->CFGR & RCC_CFGR_HPRE)>> RCC_CFGR_HPRE_Pos];
 8001a04:	f7ff ffaa 	bl	800195c <HAL_RCC_GetSysClockFreq>
 8001a08:	4b35      	ldr	r3, [pc, #212]	; (8001ae0 <HAL_RCC_ClockConfig+0x128>)
 8001a0a:	4a36      	ldr	r2, [pc, #216]	; (8001ae4 <HAL_RCC_ClockConfig+0x12c>)
 8001a0c:	689b      	ldr	r3, [r3, #8]
 8001a0e:	f3c3 1303 	ubfx	r3, r3, #4, #4
 8001a12:	5cd3      	ldrb	r3, [r2, r3]
 8001a14:	40d8      	lsrs	r0, r3
 8001a16:	4b34      	ldr	r3, [pc, #208]	; (8001ae8 <HAL_RCC_ClockConfig+0x130>)
 8001a18:	6018      	str	r0, [r3, #0]
  HAL_InitTick (uwTickPrio);
 8001a1a:	4b34      	ldr	r3, [pc, #208]	; (8001aec <HAL_RCC_ClockConfig+0x134>)
 8001a1c:	6818      	ldr	r0, [r3, #0]
 8001a1e:	f7fe fd6d 	bl	80004fc <HAL_InitTick>
  return HAL_OK;
 8001a22:	2000      	movs	r0, #0
 8001a24:	e8bd 81f0 	ldmia.w	sp!, {r4, r5, r6, r7, r8, pc}
    __HAL_FLASH_SET_LATENCY(FLatency);
 8001a28:	b2ca      	uxtb	r2, r1
 8001a2a:	701a      	strb	r2, [r3, #0]
    if(__HAL_FLASH_GET_LATENCY() != FLatency)
 8001a2c:	681b      	ldr	r3, [r3, #0]
 8001a2e:	f003 030f 	and.w	r3, r3, #15
 8001a32:	4299      	cmp	r1, r3
 8001a34:	d1c5      	bne.n	80019c2 <HAL_RCC_ClockConfig+0xa>
 8001a36:	e7cd      	b.n	80019d4 <HAL_RCC_ClockConfig+0x1c>
 8001a38:	4b29      	ldr	r3, [pc, #164]	; (8001ae0 <HAL_RCC_ClockConfig+0x128>)
    if(((RCC_ClkInitStruct->ClockType) & RCC_CLOCKTYPE_PCLK1) == RCC_CLOCKTYPE_PCLK1)
 8001a3a:	f011 0f04 	tst.w	r1, #4
      MODIFY_REG(RCC->CFGR, RCC_CFGR_PPRE1, RCC_HCLK_DIV16);
 8001a3e:	bf1e      	ittt	ne
 8001a40:	689a      	ldrne	r2, [r3, #8]
 8001a42:	f442 52e0 	orrne.w	r2, r2, #7168	; 0x1c00
 8001a46:	609a      	strne	r2, [r3, #8]
    if(((RCC_ClkInitStruct->ClockType) & RCC_CLOCKTYPE_PCLK2) == RCC_CLOCKTYPE_PCLK2)
 8001a48:	070e      	lsls	r6, r1, #28
      MODIFY_REG(RCC->CFGR, RCC_CFGR_PPRE2, (RCC_HCLK_DIV16 << 3));
 8001a4a:	bf42      	ittt	mi
 8001a4c:	689a      	ldrmi	r2, [r3, #8]
 8001a4e:	f442 4260 	orrmi.w	r2, r2, #57344	; 0xe000
 8001a52:	609a      	strmi	r2, [r3, #8]
    MODIFY_REG(RCC->CFGR, RCC_CFGR_HPRE, RCC_ClkInitStruct->AHBCLKDivider);
 8001a54:	689a      	ldr	r2, [r3, #8]
 8001a56:	68a0      	ldr	r0, [r4, #8]
 8001a58:	f022 02f0 	bic.w	r2, r2, #240	; 0xf0
 8001a5c:	4302      	orrs	r2, r0
 8001a5e:	609a      	str	r2, [r3, #8]
 8001a60:	e7bb      	b.n	80019da <HAL_RCC_ClockConfig+0x22>
    if(RCC_ClkInitStruct->SYSCLKSource == RCC_SYSCLKSOURCE_HSE)
 8001a62:	6862      	ldr	r2, [r4, #4]
 8001a64:	4b1e      	ldr	r3, [pc, #120]	; (8001ae0 <HAL_RCC_ClockConfig+0x128>)
 8001a66:	2a01      	cmp	r2, #1
 8001a68:	d11d      	bne.n	8001aa6 <HAL_RCC_ClockConfig+0xee>
      if(__HAL_RCC_GET_FLAG(RCC_FLAG_HSERDY) == RESET)
 8001a6a:	681b      	ldr	r3, [r3, #0]
 8001a6c:	f413 3f00 	tst.w	r3, #131072	; 0x20000
      if(__HAL_RCC_GET_FLAG(RCC_FLAG_HSIRDY) == RESET)
 8001a70:	d0a7      	beq.n	80019c2 <HAL_RCC_ClockConfig+0xa>
    __HAL_RCC_SYSCLK_CONFIG(RCC_ClkInitStruct->SYSCLKSource);
 8001a72:	4e1b      	ldr	r6, [pc, #108]	; (8001ae0 <HAL_RCC_ClockConfig+0x128>)
 8001a74:	68b3      	ldr	r3, [r6, #8]
 8001a76:	f023 0303 	bic.w	r3, r3, #3
 8001a7a:	4313      	orrs	r3, r2
 8001a7c:	60b3      	str	r3, [r6, #8]
    tickstart = HAL_GetTick();
 8001a7e:	f7fe fd87 	bl	8000590 <HAL_GetTick>
      if ((HAL_GetTick() - tickstart) > CLOCKSWITCH_TIMEOUT_VALUE)
 8001a82:	f241 3888 	movw	r8, #5000	; 0x1388
    tickstart = HAL_GetTick();
 8001a86:	4607      	mov	r7, r0
    while (__HAL_RCC_GET_SYSCLK_SOURCE() != (RCC_ClkInitStruct->SYSCLKSource << RCC_CFGR_SWS_Pos))
 8001a88:	68b3      	ldr	r3, [r6, #8]
 8001a8a:	6862      	ldr	r2, [r4, #4]
 8001a8c:	f003 030c 	and.w	r3, r3, #12
 8001a90:	ebb3 0f82 	cmp.w	r3, r2, lsl #2
 8001a94:	d0a3      	beq.n	80019de <HAL_RCC_ClockConfig+0x26>
      if ((HAL_GetTick() - tickstart) > CLOCKSWITCH_TIMEOUT_VALUE)
 8001a96:	f7fe fd7b 	bl	8000590 <HAL_GetTick>
 8001a9a:	1bc0      	subs	r0, r0, r7
 8001a9c:	4540      	cmp	r0, r8
 8001a9e:	d9f3      	bls.n	8001a88 <HAL_RCC_ClockConfig+0xd0>
        return HAL_TIMEOUT;
 8001aa0:	2003      	movs	r0, #3
}
 8001aa2:	e8bd 81f0 	ldmia.w	sp!, {r4, r5, r6, r7, r8, pc}
    else if((RCC_ClkInitStruct->SYSCLKSource == RCC_SYSCLKSOURCE_PLLCLK)   ||
 8001aa6:	1e91      	subs	r1, r2, #2
 8001aa8:	2901      	cmp	r1, #1
      if(__HAL_RCC_GET_FLAG(RCC_FLAG_PLLRDY) == RESET)
 8001aaa:	681b      	ldr	r3, [r3, #0]
    else if((RCC_ClkInitStruct->SYSCLKSource == RCC_SYSCLKSOURCE_PLLCLK)   ||
 8001aac:	d802      	bhi.n	8001ab4 <HAL_RCC_ClockConfig+0xfc>
      if(__HAL_RCC_GET_FLAG(RCC_FLAG_PLLRDY) == RESET)
 8001aae:	f013 7f00 	tst.w	r3, #33554432	; 0x2000000
 8001ab2:	e7dd      	b.n	8001a70 <HAL_RCC_ClockConfig+0xb8>
      if(__HAL_RCC_GET_FLAG(RCC_FLAG_HSIRDY) == RESET)
 8001ab4:	f013 0f02 	tst.w	r3, #2
 8001ab8:	e7da      	b.n	8001a70 <HAL_RCC_ClockConfig+0xb8>
    __HAL_FLASH_SET_LATENCY(FLatency);
 8001aba:	b2ea      	uxtb	r2, r5
 8001abc:	701a      	strb	r2, [r3, #0]
    if(__HAL_FLASH_GET_LATENCY() != FLatency)
 8001abe:	681b      	ldr	r3, [r3, #0]
 8001ac0:	f003 030f 	and.w	r3, r3, #15
 8001ac4:	429d      	cmp	r5, r3
 8001ac6:	f47f af7c 	bne.w	80019c2 <HAL_RCC_ClockConfig+0xa>
 8001aca:	e78e      	b.n	80019ea <HAL_RCC_ClockConfig+0x32>
    MODIFY_REG(RCC->CFGR, RCC_CFGR_PPRE1, RCC_ClkInitStruct->APB1CLKDivider);
 8001acc:	4904      	ldr	r1, [pc, #16]	; (8001ae0 <HAL_RCC_ClockConfig+0x128>)
 8001ace:	68e0      	ldr	r0, [r4, #12]
 8001ad0:	688b      	ldr	r3, [r1, #8]
 8001ad2:	f423 53e0 	bic.w	r3, r3, #7168	; 0x1c00
 8001ad6:	4303      	orrs	r3, r0
 8001ad8:	608b      	str	r3, [r1, #8]
 8001ada:	e789      	b.n	80019f0 <HAL_RCC_ClockConfig+0x38>
 8001adc:	40023c00 	.word	0x40023c00
 8001ae0:	40023800 	.word	0x40023800
 8001ae4:	080025c8 	.word	0x080025c8
 8001ae8:	20000008 	.word	0x20000008
 8001aec:	20000004 	.word	0x20000004

08001af0 <HAL_RCC_GetHCLKFreq>:
  * @retval HCLK frequency
  */
uint32_t HAL_RCC_GetHCLKFreq(void)
{
  return SystemCoreClock;
}
 8001af0:	4b01      	ldr	r3, [pc, #4]	; (8001af8 <HAL_RCC_GetHCLKFreq+0x8>)
 8001af2:	6818      	ldr	r0, [r3, #0]
 8001af4:	4770      	bx	lr
 8001af6:	bf00      	nop
 8001af8:	20000008 	.word	0x20000008

08001afc <HAL_RCC_GetPCLK1Freq>:
  * @retval PCLK1 frequency
  */
uint32_t HAL_RCC_GetPCLK1Freq(void)
{
  /* Get HCLK source and Compute PCLK1 frequency ---------------------------*/
  return (HAL_RCC_GetHCLKFreq() >> APBPrescTable[(RCC->CFGR & RCC_CFGR_PPRE1)>> RCC_CFGR_PPRE1_Pos]);
 8001afc:	4b04      	ldr	r3, [pc, #16]	; (8001b10 <HAL_RCC_GetPCLK1Freq+0x14>)
 8001afe:	4a05      	ldr	r2, [pc, #20]	; (8001b14 <HAL_RCC_GetPCLK1Freq+0x18>)
 8001b00:	689b      	ldr	r3, [r3, #8]
 8001b02:	f3c3 2382 	ubfx	r3, r3, #10, #3
 8001b06:	5cd3      	ldrb	r3, [r2, r3]
 8001b08:	4a03      	ldr	r2, [pc, #12]	; (8001b18 <HAL_RCC_GetPCLK1Freq+0x1c>)
 8001b0a:	6810      	ldr	r0, [r2, #0]
}
 8001b0c:	40d8      	lsrs	r0, r3
 8001b0e:	4770      	bx	lr
 8001b10:	40023800 	.word	0x40023800
 8001b14:	080025d8 	.word	0x080025d8
 8001b18:	20000008 	.word	0x20000008

08001b1c <HAL_RCC_GetPCLK2Freq>:
  * @retval PCLK2 frequency
  */
uint32_t HAL_RCC_GetPCLK2Freq(void)
{
  /* Get HCLK source and Compute PCLK2 frequency ---------------------------*/
  return (HAL_RCC_GetHCLKFreq()>> APBPrescTable[(RCC->CFGR & RCC_CFGR_PPRE2)>> RCC_CFGR_PPRE2_Pos]);
 8001b1c:	4b04      	ldr	r3, [pc, #16]	; (8001b30 <HAL_RCC_GetPCLK2Freq+0x14>)
 8001b1e:	4a05      	ldr	r2, [pc, #20]	; (8001b34 <HAL_RCC_GetPCLK2Freq+0x18>)
 8001b20:	689b      	ldr	r3, [r3, #8]
 8001b22:	f3c3 3342 	ubfx	r3, r3, #13, #3
 8001b26:	5cd3      	ldrb	r3, [r2, r3]
 8001b28:	4a03      	ldr	r2, [pc, #12]	; (8001b38 <HAL_RCC_GetPCLK2Freq+0x1c>)
 8001b2a:	6810      	ldr	r0, [r2, #0]
}
 8001b2c:	40d8      	lsrs	r0, r3
 8001b2e:	4770      	bx	lr
 8001b30:	40023800 	.word	0x40023800
 8001b34:	080025d8 	.word	0x080025d8
 8001b38:	20000008 	.word	0x20000008

08001b3c <UART_SetConfig>:
  * @param  huart  Pointer to a UART_HandleTypeDef structure that contains
  *                the configuration information for the specified UART module.
  * @retval None
  */
static void UART_SetConfig(UART_HandleTypeDef *huart)
{
 8001b3c:	b538      	push	{r3, r4, r5, lr}
  assert_param(IS_UART_MODE(huart->Init.Mode));

  /*-------------------------- USART CR2 Configuration -----------------------*/
  /* Configure the UART Stop Bits: Set STOP[13:12] bits
     according to huart->Init.StopBits value */
  MODIFY_REG(huart->Instance->CR2, USART_CR2_STOP, huart->Init.StopBits);
 8001b3e:	6803      	ldr	r3, [r0, #0]
 8001b40:	68c1      	ldr	r1, [r0, #12]
 8001b42:	691a      	ldr	r2, [r3, #16]
{
 8001b44:	4604      	mov	r4, r0
  MODIFY_REG(huart->Instance->CR2, USART_CR2_STOP, huart->Init.StopBits);
 8001b46:	f422 5240 	bic.w	r2, r2, #12288	; 0x3000
 8001b4a:	430a      	orrs	r2, r1
 8001b4c:	611a      	str	r2, [r3, #16]
     Set the M bits according to huart->Init.WordLength value
     Set PCE and PS bits according to huart->Init.Parity value
     Set TE and RE bits according to huart->Init.Mode value
     Set OVER8 bit according to huart->Init.OverSampling value */

  tmpreg = (uint32_t)huart->Init.WordLength | huart->Init.Parity | huart->Init.Mode | huart->Init.OverSampling;
 8001b4e:	6925      	ldr	r5, [r4, #16]
 8001b50:	68a2      	ldr	r2, [r4, #8]
  MODIFY_REG(huart->Instance->CR1,
 8001b52:	68d9      	ldr	r1, [r3, #12]
  tmpreg = (uint32_t)huart->Init.WordLength | huart->Init.Parity | huart->Init.Mode | huart->Init.OverSampling;
 8001b54:	69c0      	ldr	r0, [r0, #28]
 8001b56:	432a      	orrs	r2, r5
 8001b58:	6965      	ldr	r5, [r4, #20]
  MODIFY_REG(huart->Instance->CR1,
 8001b5a:	f421 4116 	bic.w	r1, r1, #38400	; 0x9600
  tmpreg = (uint32_t)huart->Init.WordLength | huart->Init.Parity | huart->Init.Mode | huart->Init.OverSampling;
 8001b5e:	432a      	orrs	r2, r5
  MODIFY_REG(huart->Instance->CR1,
 8001b60:	f021 010c 	bic.w	r1, r1, #12
  tmpreg = (uint32_t)huart->Init.WordLength | huart->Init.Parity | huart->Init.Mode | huart->Init.OverSampling;
 8001b64:	4302      	orrs	r2, r0
  MODIFY_REG(huart->Instance->CR1,
 8001b66:	430a      	orrs	r2, r1
 8001b68:	60da      	str	r2, [r3, #12]
             (uint32_t)(USART_CR1_M | USART_CR1_PCE | USART_CR1_PS | USART_CR1_TE | USART_CR1_RE | USART_CR1_OVER8),
             tmpreg);

  /*-------------------------- USART CR3 Configuration -----------------------*/
  /* Configure the UART HFC: Set CTSE and RTSE bits according to huart->Init.HwFlowCtl value */
  MODIFY_REG(huart->Instance->CR3, (USART_CR3_RTSE | USART_CR3_CTSE), huart->Init.HwFlowCtl);
 8001b6a:	695a      	ldr	r2, [r3, #20]
 8001b6c:	69a1      	ldr	r1, [r4, #24]
 8001b6e:	f422 7240 	bic.w	r2, r2, #768	; 0x300
 8001b72:	430a      	orrs	r2, r1

  /* Check the Over Sampling */
  if (huart->Init.OverSampling == UART_OVERSAMPLING_8)
 8001b74:	f5b0 4f00 	cmp.w	r0, #32768	; 0x8000
  MODIFY_REG(huart->Instance->CR3, (USART_CR3_RTSE | USART_CR3_CTSE), huart->Init.HwFlowCtl);
 8001b78:	615a      	str	r2, [r3, #20]
 8001b7a:	4a25      	ldr	r2, [pc, #148]	; (8001c10 <UART_SetConfig+0xd4>)
  if (huart->Init.OverSampling == UART_OVERSAMPLING_8)
 8001b7c:	d129      	bne.n	8001bd2 <UART_SetConfig+0x96>
    {
      pclk = HAL_RCC_GetPCLK2Freq();
      huart->Instance->BRR = UART_BRR_SAMPLING8(pclk, huart->Init.BaudRate);
    }
#elif defined(USART6)
    if ((huart->Instance == USART1) || (huart->Instance == USART6))
 8001b7e:	4293      	cmp	r3, r2
 8001b80:	d003      	beq.n	8001b8a <UART_SetConfig+0x4e>
 8001b82:	f502 6280 	add.w	r2, r2, #1024	; 0x400
 8001b86:	4293      	cmp	r3, r2
 8001b88:	d120      	bne.n	8001bcc <UART_SetConfig+0x90>
    {
      pclk = HAL_RCC_GetPCLK2Freq();
 8001b8a:	f7ff ffc7 	bl	8001b1c <HAL_RCC_GetPCLK2Freq>
    }
#endif /* USART6 */
    else
    {
      pclk = HAL_RCC_GetPCLK1Freq();
      huart->Instance->BRR = UART_BRR_SAMPLING8(pclk, huart->Init.BaudRate);
 8001b8e:	6862      	ldr	r2, [r4, #4]
 8001b90:	6825      	ldr	r5, [r4, #0]
 8001b92:	1892      	adds	r2, r2, r2
 8001b94:	f04f 0300 	mov.w	r3, #0
 8001b98:	f04f 0119 	mov.w	r1, #25
 8001b9c:	415b      	adcs	r3, r3
 8001b9e:	fba0 0101 	umull	r0, r1, r0, r1
 8001ba2:	f7fe fb23 	bl	80001ec <__aeabi_uldivmod>
 8001ba6:	2164      	movs	r1, #100	; 0x64
 8001ba8:	fbb0 f4f1 	udiv	r4, r0, r1
 8001bac:	fb01 0314 	mls	r3, r1, r4, r0
 8001bb0:	00db      	lsls	r3, r3, #3
 8001bb2:	3332      	adds	r3, #50	; 0x32
 8001bb4:	fbb3 f3f1 	udiv	r3, r3, r1
 8001bb8:	f003 0207 	and.w	r2, r3, #7
 8001bbc:	005b      	lsls	r3, r3, #1
 8001bbe:	eb02 1204 	add.w	r2, r2, r4, lsl #4
 8001bc2:	f403 73f8 	and.w	r3, r3, #496	; 0x1f0
 8001bc6:	4413      	add	r3, r2
    }
#endif /* USART6 */
    else
    {
      pclk = HAL_RCC_GetPCLK1Freq();
      huart->Instance->BRR = UART_BRR_SAMPLING16(pclk, huart->Init.BaudRate);
 8001bc8:	60ab      	str	r3, [r5, #8]
 8001bca:	bd38      	pop	{r3, r4, r5, pc}
      pclk = HAL_RCC_GetPCLK1Freq();
 8001bcc:	f7ff ff96 	bl	8001afc <HAL_RCC_GetPCLK1Freq>
 8001bd0:	e7dd      	b.n	8001b8e <UART_SetConfig+0x52>
    if ((huart->Instance == USART1) || (huart->Instance == USART6))
 8001bd2:	4293      	cmp	r3, r2
 8001bd4:	d002      	beq.n	8001bdc <UART_SetConfig+0xa0>
 8001bd6:	4a0f      	ldr	r2, [pc, #60]	; (8001c14 <UART_SetConfig+0xd8>)
 8001bd8:	4293      	cmp	r3, r2
 8001bda:	d116      	bne.n	8001c0a <UART_SetConfig+0xce>
      pclk = HAL_RCC_GetPCLK2Freq();
 8001bdc:	f7ff ff9e 	bl	8001b1c <HAL_RCC_GetPCLK2Freq>
      huart->Instance->BRR = UART_BRR_SAMPLING16(pclk, huart->Init.BaudRate);
 8001be0:	6863      	ldr	r3, [r4, #4]
 8001be2:	6825      	ldr	r5, [r4, #0]
 8001be4:	2119      	movs	r1, #25
 8001be6:	009a      	lsls	r2, r3, #2
 8001be8:	fba0 0101 	umull	r0, r1, r0, r1
 8001bec:	0f9b      	lsrs	r3, r3, #30
 8001bee:	f7fe fafd 	bl	80001ec <__aeabi_uldivmod>
 8001bf2:	2264      	movs	r2, #100	; 0x64
 8001bf4:	fbb0 f1f2 	udiv	r1, r0, r2
 8001bf8:	fb02 0311 	mls	r3, r2, r1, r0
 8001bfc:	011b      	lsls	r3, r3, #4
 8001bfe:	3332      	adds	r3, #50	; 0x32
 8001c00:	fbb3 f3f2 	udiv	r3, r3, r2
 8001c04:	eb03 1301 	add.w	r3, r3, r1, lsl #4
 8001c08:	e7de      	b.n	8001bc8 <UART_SetConfig+0x8c>
      pclk = HAL_RCC_GetPCLK1Freq();
 8001c0a:	f7ff ff77 	bl	8001afc <HAL_RCC_GetPCLK1Freq>
 8001c0e:	e7e7      	b.n	8001be0 <UART_SetConfig+0xa4>
 8001c10:	40011000 	.word	0x40011000
 8001c14:	40011400 	.word	0x40011400

08001c18 <HAL_UART_Init>:
{
 8001c18:	b510      	push	{r4, lr}
  if (huart == NULL)
 8001c1a:	4604      	mov	r4, r0
 8001c1c:	b340      	cbz	r0, 8001c70 <HAL_UART_Init+0x58>
  if (huart->gState == HAL_UART_STATE_RESET)
 8001c1e:	f890 3039 	ldrb.w	r3, [r0, #57]	; 0x39
 8001c22:	f003 02ff 	and.w	r2, r3, #255	; 0xff
 8001c26:	b91b      	cbnz	r3, 8001c30 <HAL_UART_Init+0x18>
    huart->Lock = HAL_UNLOCKED;
 8001c28:	f880 2038 	strb.w	r2, [r0, #56]	; 0x38
    HAL_UART_MspInit(huart);
 8001c2c:	f000 fbda 	bl	80023e4 <HAL_UART_MspInit>
  __HAL_UART_DISABLE(huart);
 8001c30:	6822      	ldr	r2, [r4, #0]
  huart->gState = HAL_UART_STATE_BUSY;
 8001c32:	2324      	movs	r3, #36	; 0x24
 8001c34:	f884 3039 	strb.w	r3, [r4, #57]	; 0x39
  __HAL_UART_DISABLE(huart);
 8001c38:	68d3      	ldr	r3, [r2, #12]
 8001c3a:	f423 5300 	bic.w	r3, r3, #8192	; 0x2000
 8001c3e:	60d3      	str	r3, [r2, #12]
  UART_SetConfig(huart);
 8001c40:	4620      	mov	r0, r4
 8001c42:	f7ff ff7b 	bl	8001b3c <UART_SetConfig>
  CLEAR_BIT(huart->Instance->CR2, (USART_CR2_LINEN | USART_CR2_CLKEN));
 8001c46:	6823      	ldr	r3, [r4, #0]
 8001c48:	691a      	ldr	r2, [r3, #16]
 8001c4a:	f422 4290 	bic.w	r2, r2, #18432	; 0x4800
 8001c4e:	611a      	str	r2, [r3, #16]
  CLEAR_BIT(huart->Instance->CR3, (USART_CR3_SCEN | USART_CR3_HDSEL | USART_CR3_IREN));
 8001c50:	695a      	ldr	r2, [r3, #20]
 8001c52:	f022 022a 	bic.w	r2, r2, #42	; 0x2a
 8001c56:	615a      	str	r2, [r3, #20]
  __HAL_UART_ENABLE(huart);
 8001c58:	68da      	ldr	r2, [r3, #12]
 8001c5a:	f442 5200 	orr.w	r2, r2, #8192	; 0x2000
 8001c5e:	60da      	str	r2, [r3, #12]
  huart->ErrorCode = HAL_UART_ERROR_NONE;
 8001c60:	2000      	movs	r0, #0
  huart->gState = HAL_UART_STATE_READY;
 8001c62:	2320      	movs	r3, #32
  huart->ErrorCode = HAL_UART_ERROR_NONE;
 8001c64:	63e0      	str	r0, [r4, #60]	; 0x3c
  huart->gState = HAL_UART_STATE_READY;
 8001c66:	f884 3039 	strb.w	r3, [r4, #57]	; 0x39
  huart->RxState = HAL_UART_STATE_READY;
 8001c6a:	f884 303a 	strb.w	r3, [r4, #58]	; 0x3a
  return HAL_OK;
 8001c6e:	bd10      	pop	{r4, pc}
    return HAL_ERROR;
 8001c70:	2001      	movs	r0, #1
}
 8001c72:	bd10      	pop	{r4, pc}

08001c74 <USB_CoreReset>:
  * @brief  Reset the USB Core (needed after USB clock settings change)
  * @param  USBx  Selected device
  * @retval HAL status
  */
static HAL_StatusTypeDef USB_CoreReset(USB_OTG_GlobalTypeDef *USBx)
{
 8001c74:	4b0a      	ldr	r3, [pc, #40]	; (8001ca0 <USB_CoreReset+0x2c>)
  uint32_t count = 0U;

  /* Wait for AHB master IDLE state. */
  do
  {
    if (++count > 200000U)
 8001c76:	3b01      	subs	r3, #1
 8001c78:	d101      	bne.n	8001c7e <USB_CoreReset+0xa>
    {
      return HAL_TIMEOUT;
 8001c7a:	2003      	movs	r0, #3
 8001c7c:	4770      	bx	lr
    }
  }
  while ((USBx->GRSTCTL & USB_OTG_GRSTCTL_AHBIDL) == 0U);
 8001c7e:	6902      	ldr	r2, [r0, #16]
 8001c80:	2a00      	cmp	r2, #0
 8001c82:	daf8      	bge.n	8001c76 <USB_CoreReset+0x2>

  /* Core Soft Reset */
  count = 0U;
  USBx->GRSTCTL |= USB_OTG_GRSTCTL_CSRST;
 8001c84:	6903      	ldr	r3, [r0, #16]
 8001c86:	4a06      	ldr	r2, [pc, #24]	; (8001ca0 <USB_CoreReset+0x2c>)
 8001c88:	f043 0301 	orr.w	r3, r3, #1
 8001c8c:	6103      	str	r3, [r0, #16]

  do
  {
    if (++count > 200000U)
 8001c8e:	3a01      	subs	r2, #1
 8001c90:	d0f3      	beq.n	8001c7a <USB_CoreReset+0x6>
    {
      return HAL_TIMEOUT;
    }
  }
  while ((USBx->GRSTCTL & USB_OTG_GRSTCTL_CSRST) == USB_OTG_GRSTCTL_CSRST);
 8001c92:	6903      	ldr	r3, [r0, #16]
 8001c94:	f013 0301 	ands.w	r3, r3, #1
 8001c98:	d1f9      	bne.n	8001c8e <USB_CoreReset+0x1a>

  return HAL_OK;
 8001c9a:	4618      	mov	r0, r3
}
 8001c9c:	4770      	bx	lr
 8001c9e:	bf00      	nop
 8001ca0:	00030d41 	.word	0x00030d41

08001ca4 <USB_CoreInit>:
{
 8001ca4:	b084      	sub	sp, #16
 8001ca6:	b538      	push	{r3, r4, r5, lr}
 8001ca8:	ad05      	add	r5, sp, #20
 8001caa:	e885 000e 	stmia.w	r5, {r1, r2, r3}
  if (cfg.phy_itface == USB_OTG_ULPI_PHY)
 8001cae:	9b0a      	ldr	r3, [sp, #40]	; 0x28
 8001cb0:	2b01      	cmp	r3, #1
{
 8001cb2:	4604      	mov	r4, r0
  if (cfg.phy_itface == USB_OTG_ULPI_PHY)
 8001cb4:	d125      	bne.n	8001d02 <USB_CoreInit+0x5e>
    USBx->GCCFG &= ~(USB_OTG_GCCFG_PWRDWN);
 8001cb6:	6b83      	ldr	r3, [r0, #56]	; 0x38
 8001cb8:	f423 3380 	bic.w	r3, r3, #65536	; 0x10000
 8001cbc:	6383      	str	r3, [r0, #56]	; 0x38
    USBx->GUSBCFG &= ~(USB_OTG_GUSBCFG_TSDPS | USB_OTG_GUSBCFG_ULPIFSLS | USB_OTG_GUSBCFG_PHYSEL);
 8001cbe:	68c3      	ldr	r3, [r0, #12]
 8001cc0:	f423 0384 	bic.w	r3, r3, #4325376	; 0x420000
 8001cc4:	f023 0340 	bic.w	r3, r3, #64	; 0x40
 8001cc8:	60c3      	str	r3, [r0, #12]
    USBx->GUSBCFG &= ~(USB_OTG_GUSBCFG_ULPIEVBUSD | USB_OTG_GUSBCFG_ULPIEVBUSI);
 8001cca:	68c3      	ldr	r3, [r0, #12]
 8001ccc:	f423 1340 	bic.w	r3, r3, #3145728	; 0x300000
 8001cd0:	60c3      	str	r3, [r0, #12]
    if (cfg.use_external_vbus == 1U)
 8001cd2:	9b11      	ldr	r3, [sp, #68]	; 0x44
 8001cd4:	2b01      	cmp	r3, #1
      USBx->GUSBCFG |= USB_OTG_GUSBCFG_ULPIEVBUSD;
 8001cd6:	bf02      	ittt	eq
 8001cd8:	68c3      	ldreq	r3, [r0, #12]
 8001cda:	f443 1380 	orreq.w	r3, r3, #1048576	; 0x100000
 8001cde:	60c3      	streq	r3, [r0, #12]
    ret = USB_CoreReset(USBx);
 8001ce0:	f7ff ffc8 	bl	8001c74 <USB_CoreReset>
  if (cfg.dma_enable == 1U)
 8001ce4:	9b08      	ldr	r3, [sp, #32]
 8001ce6:	2b01      	cmp	r3, #1
 8001ce8:	d107      	bne.n	8001cfa <USB_CoreInit+0x56>
    USBx->GAHBCFG |= USB_OTG_GAHBCFG_HBSTLEN_2;
 8001cea:	68a3      	ldr	r3, [r4, #8]
 8001cec:	f043 0306 	orr.w	r3, r3, #6
 8001cf0:	60a3      	str	r3, [r4, #8]
    USBx->GAHBCFG |= USB_OTG_GAHBCFG_DMAEN;
 8001cf2:	68a3      	ldr	r3, [r4, #8]
 8001cf4:	f043 0320 	orr.w	r3, r3, #32
 8001cf8:	60a3      	str	r3, [r4, #8]
}
 8001cfa:	e8bd 4038 	ldmia.w	sp!, {r3, r4, r5, lr}
 8001cfe:	b004      	add	sp, #16
 8001d00:	4770      	bx	lr
    USBx->GUSBCFG |= USB_OTG_GUSBCFG_PHYSEL;
 8001d02:	68c3      	ldr	r3, [r0, #12]
 8001d04:	f043 0340 	orr.w	r3, r3, #64	; 0x40
 8001d08:	60c3      	str	r3, [r0, #12]
    ret = USB_CoreReset(USBx);
 8001d0a:	f7ff ffb3 	bl	8001c74 <USB_CoreReset>
    if (cfg.battery_charging_enable == 0U)
 8001d0e:	9b0e      	ldr	r3, [sp, #56]	; 0x38
 8001d10:	b923      	cbnz	r3, 8001d1c <USB_CoreInit+0x78>
      USBx->GCCFG |= USB_OTG_GCCFG_PWRDWN;
 8001d12:	6ba3      	ldr	r3, [r4, #56]	; 0x38
 8001d14:	f443 3380 	orr.w	r3, r3, #65536	; 0x10000
      USBx->GCCFG &= ~(USB_OTG_GCCFG_PWRDWN);
 8001d18:	63a3      	str	r3, [r4, #56]	; 0x38
 8001d1a:	e7e3      	b.n	8001ce4 <USB_CoreInit+0x40>
 8001d1c:	6ba3      	ldr	r3, [r4, #56]	; 0x38
 8001d1e:	f423 3380 	bic.w	r3, r3, #65536	; 0x10000
 8001d22:	e7f9      	b.n	8001d18 <USB_CoreInit+0x74>

08001d24 <USB_DisableGlobalInt>:
  USBx->GAHBCFG &= ~USB_OTG_GAHBCFG_GINT;
 8001d24:	6883      	ldr	r3, [r0, #8]
 8001d26:	f023 0301 	bic.w	r3, r3, #1
 8001d2a:	6083      	str	r3, [r0, #8]
}
 8001d2c:	2000      	movs	r0, #0
 8001d2e:	4770      	bx	lr

08001d30 <USB_SetCurrentMode>:
{
 8001d30:	b508      	push	{r3, lr}
  USBx->GUSBCFG &= ~(USB_OTG_GUSBCFG_FHMOD | USB_OTG_GUSBCFG_FDMOD);
 8001d32:	68c3      	ldr	r3, [r0, #12]
  if (mode == USB_HOST_MODE)
 8001d34:	2901      	cmp	r1, #1
  USBx->GUSBCFG &= ~(USB_OTG_GUSBCFG_FHMOD | USB_OTG_GUSBCFG_FDMOD);
 8001d36:	f023 43c0 	bic.w	r3, r3, #1610612736	; 0x60000000
 8001d3a:	60c3      	str	r3, [r0, #12]
  if (mode == USB_HOST_MODE)
 8001d3c:	d108      	bne.n	8001d50 <USB_SetCurrentMode+0x20>
    USBx->GUSBCFG |= USB_OTG_GUSBCFG_FHMOD;
 8001d3e:	68c3      	ldr	r3, [r0, #12]
 8001d40:	f043 5300 	orr.w	r3, r3, #536870912	; 0x20000000
    USBx->GUSBCFG |= USB_OTG_GUSBCFG_FDMOD;
 8001d44:	60c3      	str	r3, [r0, #12]
  HAL_Delay(50U);
 8001d46:	2032      	movs	r0, #50	; 0x32
 8001d48:	f7fe fc28 	bl	800059c <HAL_Delay>
  return HAL_OK;
 8001d4c:	2000      	movs	r0, #0
 8001d4e:	bd08      	pop	{r3, pc}
  else if (mode == USB_DEVICE_MODE)
 8001d50:	b919      	cbnz	r1, 8001d5a <USB_SetCurrentMode+0x2a>
    USBx->GUSBCFG |= USB_OTG_GUSBCFG_FDMOD;
 8001d52:	68c3      	ldr	r3, [r0, #12]
 8001d54:	f043 4380 	orr.w	r3, r3, #1073741824	; 0x40000000
 8001d58:	e7f4      	b.n	8001d44 <USB_SetCurrentMode+0x14>
    return HAL_ERROR;
 8001d5a:	2001      	movs	r0, #1
}
 8001d5c:	bd08      	pop	{r3, pc}
	...

08001d60 <USB_FlushTxFifo>:
  USBx->GRSTCTL = (USB_OTG_GRSTCTL_TXFFLSH | (num << 6));
 8001d60:	0189      	lsls	r1, r1, #6
 8001d62:	f041 0120 	orr.w	r1, r1, #32
 8001d66:	4a06      	ldr	r2, [pc, #24]	; (8001d80 <USB_FlushTxFifo+0x20>)
 8001d68:	6101      	str	r1, [r0, #16]
    if (++count > 200000U)
 8001d6a:	3a01      	subs	r2, #1
 8001d6c:	d005      	beq.n	8001d7a <USB_FlushTxFifo+0x1a>
  while ((USBx->GRSTCTL & USB_OTG_GRSTCTL_TXFFLSH) == USB_OTG_GRSTCTL_TXFFLSH);
 8001d6e:	6903      	ldr	r3, [r0, #16]
 8001d70:	f013 0320 	ands.w	r3, r3, #32
 8001d74:	d1f9      	bne.n	8001d6a <USB_FlushTxFifo+0xa>
  return HAL_OK;
 8001d76:	4618      	mov	r0, r3
 8001d78:	4770      	bx	lr
      return HAL_TIMEOUT;
 8001d7a:	2003      	movs	r0, #3
}
 8001d7c:	4770      	bx	lr
 8001d7e:	bf00      	nop
 8001d80:	00030d41 	.word	0x00030d41

08001d84 <USB_FlushRxFifo>:
  USBx->GRSTCTL = USB_OTG_GRSTCTL_RXFFLSH;
 8001d84:	2310      	movs	r3, #16
 8001d86:	4a06      	ldr	r2, [pc, #24]	; (8001da0 <USB_FlushRxFifo+0x1c>)
 8001d88:	6103      	str	r3, [r0, #16]
    if (++count > 200000U)
 8001d8a:	3a01      	subs	r2, #1
 8001d8c:	d005      	beq.n	8001d9a <USB_FlushRxFifo+0x16>
  while ((USBx->GRSTCTL & USB_OTG_GRSTCTL_RXFFLSH) == USB_OTG_GRSTCTL_RXFFLSH);
 8001d8e:	6903      	ldr	r3, [r0, #16]
 8001d90:	f013 0310 	ands.w	r3, r3, #16
 8001d94:	d1f9      	bne.n	8001d8a <USB_FlushRxFifo+0x6>
  return HAL_OK;
 8001d96:	4618      	mov	r0, r3
 8001d98:	4770      	bx	lr
      return HAL_TIMEOUT;
 8001d9a:	2003      	movs	r0, #3
}
 8001d9c:	4770      	bx	lr
 8001d9e:	bf00      	nop
 8001da0:	00030d41 	.word	0x00030d41

08001da4 <USB_SetDevSpeed>:
  USBx_DEVICE->DCFG |= speed;
 8001da4:	f8d0 3800 	ldr.w	r3, [r0, #2048]	; 0x800
 8001da8:	4319      	orrs	r1, r3
 8001daa:	f8c0 1800 	str.w	r1, [r0, #2048]	; 0x800
}
 8001dae:	2000      	movs	r0, #0
 8001db0:	4770      	bx	lr
	...

08001db4 <USB_DevInit>:
{
 8001db4:	b084      	sub	sp, #16
 8001db6:	e92d 43f8 	stmdb	sp!, {r3, r4, r5, r6, r7, r8, r9, lr}
 8001dba:	4604      	mov	r4, r0
 8001dbc:	a809      	add	r0, sp, #36	; 0x24
 8001dbe:	e880 000e 	stmia.w	r0, {r1, r2, r3}
  for (i = 0U; i < 15U; i++)
 8001dc2:	2300      	movs	r3, #0
 8001dc4:	9d13      	ldr	r5, [sp, #76]	; 0x4c
 8001dc6:	460f      	mov	r7, r1
    USBx->DIEPTXF[i] = 0U;
 8001dc8:	4619      	mov	r1, r3
 8001dca:	f103 0240 	add.w	r2, r3, #64	; 0x40
 8001dce:	eb04 0282 	add.w	r2, r4, r2, lsl #2
  for (i = 0U; i < 15U; i++)
 8001dd2:	3301      	adds	r3, #1
 8001dd4:	2b0f      	cmp	r3, #15
    USBx->DIEPTXF[i] = 0U;
 8001dd6:	6051      	str	r1, [r2, #4]
  for (i = 0U; i < 15U; i++)
 8001dd8:	d1f7      	bne.n	8001dca <USB_DevInit+0x16>
 8001dda:	f504 6600 	add.w	r6, r4, #2048	; 0x800
  if (cfg.vbus_sensing_enable == 0U)
 8001dde:	2d00      	cmp	r5, #0
 8001de0:	d16c      	bne.n	8001ebc <USB_DevInit+0x108>
    USBx_DEVICE->DCTL |= USB_OTG_DCTL_SDIS;
 8001de2:	6873      	ldr	r3, [r6, #4]
 8001de4:	f043 0302 	orr.w	r3, r3, #2
 8001de8:	6073      	str	r3, [r6, #4]
    USBx->GCCFG |= USB_OTG_GCCFG_NOVBUSSENS;
 8001dea:	6ba3      	ldr	r3, [r4, #56]	; 0x38
 8001dec:	f443 1300 	orr.w	r3, r3, #2097152	; 0x200000
 8001df0:	63a3      	str	r3, [r4, #56]	; 0x38
    USBx->GCCFG &= ~USB_OTG_GCCFG_VBUSBSEN;
 8001df2:	6ba3      	ldr	r3, [r4, #56]	; 0x38
 8001df4:	f423 2300 	bic.w	r3, r3, #524288	; 0x80000
 8001df8:	63a3      	str	r3, [r4, #56]	; 0x38
    USBx->GCCFG &= ~USB_OTG_GCCFG_VBUSASEN;
 8001dfa:	6ba3      	ldr	r3, [r4, #56]	; 0x38
 8001dfc:	f423 2380 	bic.w	r3, r3, #262144	; 0x40000
    USBx->GCCFG |= USB_OTG_GCCFG_VBUSBSEN;
 8001e00:	63a3      	str	r3, [r4, #56]	; 0x38
  USBx_PCGCCTL = 0U;
 8001e02:	2300      	movs	r3, #0
 8001e04:	f8c4 3e00 	str.w	r3, [r4, #3584]	; 0xe00
  USBx_DEVICE->DCFG |= DCFG_FRAME_INTERVAL_80;
 8001e08:	f8d4 3800 	ldr.w	r3, [r4, #2048]	; 0x800
 8001e0c:	f8c4 3800 	str.w	r3, [r4, #2048]	; 0x800
  if (cfg.phy_itface == USB_OTG_ULPI_PHY)
 8001e10:	9b0e      	ldr	r3, [sp, #56]	; 0x38
 8001e12:	2b01      	cmp	r3, #1
 8001e14:	d15c      	bne.n	8001ed0 <USB_DevInit+0x11c>
    if (cfg.speed == USBD_HS_SPEED)
 8001e16:	990b      	ldr	r1, [sp, #44]	; 0x2c
 8001e18:	2900      	cmp	r1, #0
 8001e1a:	d157      	bne.n	8001ecc <USB_DevInit+0x118>
    (void)USB_SetDevSpeed(USBx, USB_OTG_SPEED_FULL);
 8001e1c:	4620      	mov	r0, r4
 8001e1e:	f7ff ffc1 	bl	8001da4 <USB_SetDevSpeed>
  if (USB_FlushTxFifo(USBx, 0x10U) != HAL_OK) /* all Tx FIFOs */
 8001e22:	2110      	movs	r1, #16
 8001e24:	4620      	mov	r0, r4
 8001e26:	f7ff ff9b 	bl	8001d60 <USB_FlushTxFifo>
 8001e2a:	4601      	mov	r1, r0
  if (USB_FlushRxFifo(USBx) != HAL_OK)
 8001e2c:	4620      	mov	r0, r4
 8001e2e:	f7ff ffa9 	bl	8001d84 <USB_FlushRxFifo>
 8001e32:	2800      	cmp	r0, #0
 8001e34:	d14e      	bne.n	8001ed4 <USB_DevInit+0x120>
  if (USB_FlushTxFifo(USBx, 0x10U) != HAL_OK) /* all Tx FIFOs */
 8001e36:	1c08      	adds	r0, r1, #0
 8001e38:	bf18      	it	ne
 8001e3a:	2001      	movne	r0, #1
  USBx_DEVICE->DIEPMSK = 0U;
 8001e3c:	2300      	movs	r3, #0
 8001e3e:	6133      	str	r3, [r6, #16]
 8001e40:	f504 6210 	add.w	r2, r4, #2304	; 0x900
  USBx_DEVICE->DOEPMSK = 0U;
 8001e44:	6173      	str	r3, [r6, #20]
      USBx_INEP(i)->DIEPCTL = 0U;
 8001e46:	4619      	mov	r1, r3
  USBx_DEVICE->DAINTMSK = 0U;
 8001e48:	61f3      	str	r3, [r6, #28]
        USBx_INEP(i)->DIEPCTL = USB_OTG_DIEPCTL_EPDIS | USB_OTG_DIEPCTL_SNAK;
 8001e4a:	f04f 4e90 	mov.w	lr, #1207959552	; 0x48000000
        USBx_INEP(i)->DIEPCTL = USB_OTG_DIEPCTL_SNAK;
 8001e4e:	f04f 6c00 	mov.w	ip, #134217728	; 0x8000000
    USBx_INEP(i)->DIEPINT  = 0xFB7FU;
 8001e52:	f64f 387f 	movw	r8, #64383	; 0xfb7f
  for (i = 0U; i < cfg.dev_endpoints; i++)
 8001e56:	42bb      	cmp	r3, r7
 8001e58:	d13e      	bne.n	8001ed8 <USB_DevInit+0x124>
 8001e5a:	2100      	movs	r1, #0
 8001e5c:	f504 6230 	add.w	r2, r4, #2816	; 0xb00
      USBx_OUTEP(i)->DOEPCTL = 0U;
 8001e60:	460f      	mov	r7, r1
        USBx_OUTEP(i)->DOEPCTL = USB_OTG_DOEPCTL_EPDIS | USB_OTG_DOEPCTL_SNAK;
 8001e62:	f04f 4e90 	mov.w	lr, #1207959552	; 0x48000000
        USBx_OUTEP(i)->DOEPCTL = USB_OTG_DOEPCTL_SNAK;
 8001e66:	f04f 6c00 	mov.w	ip, #134217728	; 0x8000000
    USBx_OUTEP(i)->DOEPINT  = 0xFB7FU;
 8001e6a:	f64f 387f 	movw	r8, #64383	; 0xfb7f
  for (i = 0U; i < cfg.dev_endpoints; i++)
 8001e6e:	428b      	cmp	r3, r1
 8001e70:	d145      	bne.n	8001efe <USB_DevInit+0x14a>
  USBx_DEVICE->DIEPMSK &= ~(USB_OTG_DIEPMSK_TXFURM);
 8001e72:	6933      	ldr	r3, [r6, #16]
 8001e74:	f423 7380 	bic.w	r3, r3, #256	; 0x100
 8001e78:	6133      	str	r3, [r6, #16]
  USBx->GINTMSK = 0U;
 8001e7a:	2300      	movs	r3, #0
 8001e7c:	61a3      	str	r3, [r4, #24]
  USBx->GINTSTS = 0xBFFFFFFFU;
 8001e7e:	f06f 4380 	mvn.w	r3, #1073741824	; 0x40000000
 8001e82:	6163      	str	r3, [r4, #20]
  if (cfg.dma_enable == 0U)
 8001e84:	9b0c      	ldr	r3, [sp, #48]	; 0x30
 8001e86:	b91b      	cbnz	r3, 8001e90 <USB_DevInit+0xdc>
    USBx->GINTMSK |= USB_OTG_GINTMSK_RXFLVLM;
 8001e88:	69a3      	ldr	r3, [r4, #24]
 8001e8a:	f043 0310 	orr.w	r3, r3, #16
 8001e8e:	61a3      	str	r3, [r4, #24]
  USBx->GINTMSK |= USB_OTG_GINTMSK_USBSUSPM | USB_OTG_GINTMSK_USBRST |
 8001e90:	69a2      	ldr	r2, [r4, #24]
 8001e92:	4b24      	ldr	r3, [pc, #144]	; (8001f24 <USB_DevInit+0x170>)
 8001e94:	4313      	orrs	r3, r2
 8001e96:	61a3      	str	r3, [r4, #24]
  if (cfg.Sof_enable != 0U)
 8001e98:	9b0f      	ldr	r3, [sp, #60]	; 0x3c
 8001e9a:	b11b      	cbz	r3, 8001ea4 <USB_DevInit+0xf0>
    USBx->GINTMSK |= USB_OTG_GINTMSK_SOFM;
 8001e9c:	69a3      	ldr	r3, [r4, #24]
 8001e9e:	f043 0308 	orr.w	r3, r3, #8
 8001ea2:	61a3      	str	r3, [r4, #24]
  if (cfg.vbus_sensing_enable == 1U)
 8001ea4:	2d01      	cmp	r5, #1
    USBx->GINTMSK |= (USB_OTG_GINTMSK_SRQIM | USB_OTG_GINTMSK_OTGINT);
 8001ea6:	bf01      	itttt	eq
 8001ea8:	69a3      	ldreq	r3, [r4, #24]
 8001eaa:	f043 4380 	orreq.w	r3, r3, #1073741824	; 0x40000000
 8001eae:	f043 0304 	orreq.w	r3, r3, #4
 8001eb2:	61a3      	streq	r3, [r4, #24]
}
 8001eb4:	e8bd 43f8 	ldmia.w	sp!, {r3, r4, r5, r6, r7, r8, r9, lr}
 8001eb8:	b004      	add	sp, #16
 8001eba:	4770      	bx	lr
    USBx->GCCFG &= ~USB_OTG_GCCFG_NOVBUSSENS;
 8001ebc:	6ba3      	ldr	r3, [r4, #56]	; 0x38
 8001ebe:	f423 1300 	bic.w	r3, r3, #2097152	; 0x200000
 8001ec2:	63a3      	str	r3, [r4, #56]	; 0x38
    USBx->GCCFG |= USB_OTG_GCCFG_VBUSBSEN;
 8001ec4:	6ba3      	ldr	r3, [r4, #56]	; 0x38
 8001ec6:	f443 2300 	orr.w	r3, r3, #524288	; 0x80000
 8001eca:	e799      	b.n	8001e00 <USB_DevInit+0x4c>
      (void)USB_SetDevSpeed(USBx, USB_OTG_SPEED_HIGH_IN_FULL);
 8001ecc:	4619      	mov	r1, r3
 8001ece:	e7a5      	b.n	8001e1c <USB_DevInit+0x68>
    (void)USB_SetDevSpeed(USBx, USB_OTG_SPEED_FULL);
 8001ed0:	2103      	movs	r1, #3
 8001ed2:	e7a3      	b.n	8001e1c <USB_DevInit+0x68>
 8001ed4:	2001      	movs	r0, #1
 8001ed6:	e7b1      	b.n	8001e3c <USB_DevInit+0x88>
    if ((USBx_INEP(i)->DIEPCTL & USB_OTG_DIEPCTL_EPENA) == USB_OTG_DIEPCTL_EPENA)
 8001ed8:	f8d2 9000 	ldr.w	r9, [r2]
 8001edc:	f1b9 0f00 	cmp.w	r9, #0
 8001ee0:	da0b      	bge.n	8001efa <USB_DevInit+0x146>
      if (i == 0U)
 8001ee2:	b93b      	cbnz	r3, 8001ef4 <USB_DevInit+0x140>
        USBx_INEP(i)->DIEPCTL = USB_OTG_DIEPCTL_SNAK;
 8001ee4:	f8c2 c000 	str.w	ip, [r2]
    USBx_INEP(i)->DIEPTSIZ = 0U;
 8001ee8:	6111      	str	r1, [r2, #16]
  for (i = 0U; i < cfg.dev_endpoints; i++)
 8001eea:	3301      	adds	r3, #1
    USBx_INEP(i)->DIEPINT  = 0xFB7FU;
 8001eec:	f8c2 8008 	str.w	r8, [r2, #8]
 8001ef0:	3220      	adds	r2, #32
 8001ef2:	e7b0      	b.n	8001e56 <USB_DevInit+0xa2>
        USBx_INEP(i)->DIEPCTL = USB_OTG_DIEPCTL_EPDIS | USB_OTG_DIEPCTL_SNAK;
 8001ef4:	f8c2 e000 	str.w	lr, [r2]
 8001ef8:	e7f6      	b.n	8001ee8 <USB_DevInit+0x134>
      USBx_INEP(i)->DIEPCTL = 0U;
 8001efa:	6011      	str	r1, [r2, #0]
 8001efc:	e7f4      	b.n	8001ee8 <USB_DevInit+0x134>
    if ((USBx_OUTEP(i)->DOEPCTL & USB_OTG_DOEPCTL_EPENA) == USB_OTG_DOEPCTL_EPENA)
 8001efe:	f8d2 9000 	ldr.w	r9, [r2]
 8001f02:	f1b9 0f00 	cmp.w	r9, #0
 8001f06:	da0b      	bge.n	8001f20 <USB_DevInit+0x16c>
      if (i == 0U)
 8001f08:	b939      	cbnz	r1, 8001f1a <USB_DevInit+0x166>
        USBx_OUTEP(i)->DOEPCTL = USB_OTG_DOEPCTL_SNAK;
 8001f0a:	f8c2 c000 	str.w	ip, [r2]
    USBx_OUTEP(i)->DOEPTSIZ = 0U;
 8001f0e:	6117      	str	r7, [r2, #16]
  for (i = 0U; i < cfg.dev_endpoints; i++)
 8001f10:	3101      	adds	r1, #1
    USBx_OUTEP(i)->DOEPINT  = 0xFB7FU;
 8001f12:	f8c2 8008 	str.w	r8, [r2, #8]
 8001f16:	3220      	adds	r2, #32
 8001f18:	e7a9      	b.n	8001e6e <USB_DevInit+0xba>
        USBx_OUTEP(i)->DOEPCTL = USB_OTG_DOEPCTL_EPDIS | USB_OTG_DOEPCTL_SNAK;
 8001f1a:	f8c2 e000 	str.w	lr, [r2]
 8001f1e:	e7f6      	b.n	8001f0e <USB_DevInit+0x15a>
      USBx_OUTEP(i)->DOEPCTL = 0U;
 8001f20:	6017      	str	r7, [r2, #0]
 8001f22:	e7f4      	b.n	8001f0e <USB_DevInit+0x15a>
 8001f24:	803c3800 	.word	0x803c3800

08001f28 <USB_DevDisconnect>:
{
 8001f28:	b508      	push	{r3, lr}
  USBx_DEVICE->DCTL |= USB_OTG_DCTL_SDIS;
 8001f2a:	f8d0 3804 	ldr.w	r3, [r0, #2052]	; 0x804
 8001f2e:	f043 0302 	orr.w	r3, r3, #2
 8001f32:	f8c0 3804 	str.w	r3, [r0, #2052]	; 0x804
  HAL_Delay(3U);
 8001f36:	2003      	movs	r0, #3
 8001f38:	f7fe fb30 	bl	800059c <HAL_Delay>
}
 8001f3c:	2000      	movs	r0, #0
 8001f3e:	bd08      	pop	{r3, pc}

08001f40 <SystemClock_Config>:

/**
 * @brief System Clock Configuration
 * @retval None
 */
void SystemClock_Config(void) {
 8001f40:	b530      	push	{r4, r5, lr}
 8001f42:	b095      	sub	sp, #84	; 0x54
	RCC_OscInitTypeDef RCC_OscInitStruct = { 0 };
 8001f44:	2230      	movs	r2, #48	; 0x30
 8001f46:	2100      	movs	r1, #0
 8001f48:	a808      	add	r0, sp, #32
 8001f4a:	f000 fb29 	bl	80025a0 <memset>
	RCC_ClkInitTypeDef RCC_ClkInitStruct = { 0 };
 8001f4e:	2100      	movs	r1, #0
 8001f50:	2214      	movs	r2, #20
 8001f52:	a803      	add	r0, sp, #12
 8001f54:	f000 fb24 	bl	80025a0 <memset>

	/** Configure the main internal regulator output voltage
	 */
	__HAL_RCC_PWR_CLK_ENABLE()
 8001f58:	2400      	movs	r4, #0
 8001f5a:	4b1d      	ldr	r3, [pc, #116]	; (8001fd0 <SystemClock_Config+0x90>)
 8001f5c:	9401      	str	r4, [sp, #4]
 8001f5e:	6c1a      	ldr	r2, [r3, #64]	; 0x40
 8001f60:	f042 5280 	orr.w	r2, r2, #268435456	; 0x10000000
 8001f64:	641a      	str	r2, [r3, #64]	; 0x40
 8001f66:	6c1b      	ldr	r3, [r3, #64]	; 0x40
 8001f68:	f003 5380 	and.w	r3, r3, #268435456	; 0x10000000
 8001f6c:	9301      	str	r3, [sp, #4]
 8001f6e:	9b01      	ldr	r3, [sp, #4]
	;
	__HAL_PWR_VOLTAGESCALING_CONFIG(PWR_REGULATOR_VOLTAGE_SCALE1);
 8001f70:	4b18      	ldr	r3, [pc, #96]	; (8001fd4 <SystemClock_Config+0x94>)
 8001f72:	9402      	str	r4, [sp, #8]
 8001f74:	681a      	ldr	r2, [r3, #0]
 8001f76:	f442 4240 	orr.w	r2, r2, #49152	; 0xc000
 8001f7a:	601a      	str	r2, [r3, #0]
 8001f7c:	681b      	ldr	r3, [r3, #0]
 8001f7e:	f403 4340 	and.w	r3, r3, #49152	; 0xc000
 8001f82:	9302      	str	r3, [sp, #8]
 8001f84:	9b02      	ldr	r3, [sp, #8]
	/** Initializes the CPU, AHB and APB busses clocks
	 */
	RCC_OscInitStruct.OscillatorType = RCC_OSCILLATORTYPE_HSE;
 8001f86:	2301      	movs	r3, #1
 8001f88:	9308      	str	r3, [sp, #32]
	RCC_OscInitStruct.HSEState = RCC_HSE_BYPASS;
 8001f8a:	f44f 23a0 	mov.w	r3, #327680	; 0x50000
 8001f8e:	9309      	str	r3, [sp, #36]	; 0x24
	RCC_OscInitStruct.PLL.PLLState = RCC_PLL_ON;
	RCC_OscInitStruct.PLL.PLLSource = RCC_PLLSOURCE_HSE;
 8001f90:	f44f 0380 	mov.w	r3, #4194304	; 0x400000
 8001f94:	930f      	str	r3, [sp, #60]	; 0x3c
	RCC_OscInitStruct.PLL.PLLM = 4;
 8001f96:	2304      	movs	r3, #4
 8001f98:	9310      	str	r3, [sp, #64]	; 0x40
	RCC_OscInitStruct.PLL.PLLN = 168;
 8001f9a:	23a8      	movs	r3, #168	; 0xa8
	RCC_OscInitStruct.PLL.PLLState = RCC_PLL_ON;
 8001f9c:	2502      	movs	r5, #2
	RCC_OscInitStruct.PLL.PLLN = 168;
 8001f9e:	9311      	str	r3, [sp, #68]	; 0x44
	RCC_OscInitStruct.PLL.PLLP = RCC_PLLP_DIV2;
	RCC_OscInitStruct.PLL.PLLQ = 7;
	if (HAL_RCC_OscConfig(&RCC_OscInitStruct) != HAL_OK) {
 8001fa0:	a808      	add	r0, sp, #32
	RCC_OscInitStruct.PLL.PLLQ = 7;
 8001fa2:	2307      	movs	r3, #7
 8001fa4:	9313      	str	r3, [sp, #76]	; 0x4c
	RCC_OscInitStruct.PLL.PLLState = RCC_PLL_ON;
 8001fa6:	950e      	str	r5, [sp, #56]	; 0x38
	RCC_OscInitStruct.PLL.PLLP = RCC_PLLP_DIV2;
 8001fa8:	9512      	str	r5, [sp, #72]	; 0x48
	if (HAL_RCC_OscConfig(&RCC_OscInitStruct) != HAL_OK) {
 8001faa:	f7ff fb31 	bl	8001610 <HAL_RCC_OscConfig>
		Error_Handler();
	}
	/** Initializes the CPU, AHB and APB busses clocks
	 */
	RCC_ClkInitStruct.ClockType = RCC_CLOCKTYPE_HCLK | RCC_CLOCKTYPE_SYSCLK
 8001fae:	230f      	movs	r3, #15
 8001fb0:	9303      	str	r3, [sp, #12]
			| RCC_CLOCKTYPE_PCLK1 | RCC_CLOCKTYPE_PCLK2;
	RCC_ClkInitStruct.SYSCLKSource = RCC_SYSCLKSOURCE_PLLCLK;
	RCC_ClkInitStruct.AHBCLKDivider = RCC_SYSCLK_DIV1;
	RCC_ClkInitStruct.APB1CLKDivider = RCC_HCLK_DIV4;
 8001fb2:	f44f 53a0 	mov.w	r3, #5120	; 0x1400
 8001fb6:	9306      	str	r3, [sp, #24]
